{
  "_format": "hh-sol-artifact-1",
  "contractName": "GovernanceToken",
  "sourceName": "contracts/GovernanceToken/GovernanceToken.sol",
  "abi": [
    {
      "inputs": [],
      "stateMutability": "nonpayable",
      "type": "constructor"
    },
    {
      "anonymous": false,
      "inputs": [
        {
          "indexed": true,
          "internalType": "address",
          "name": "owner",
          "type": "address"
        },
        {
          "indexed": true,
          "internalType": "address",
          "name": "spender",
          "type": "address"
        },
        {
          "indexed": false,
          "internalType": "uint256",
          "name": "value",
          "type": "uint256"
        }
      ],
      "name": "Approval",
      "type": "event"
    },
    {
      "anonymous": false,
      "inputs": [
        {
          "indexed": false,
          "internalType": "uint8",
          "name": "version",
          "type": "uint8"
        }
      ],
      "name": "Initialized",
      "type": "event"
    },
    {
      "anonymous": false,
      "inputs": [
        {
          "indexed": false,
          "internalType": "uint256",
          "name": "id",
          "type": "uint256"
        }
      ],
      "name": "Snapshot",
      "type": "event"
    },
    {
      "anonymous": false,
      "inputs": [
        {
          "indexed": true,
          "internalType": "address",
          "name": "from",
          "type": "address"
        },
        {
          "indexed": true,
          "internalType": "address",
          "name": "to",
          "type": "address"
        },
        {
          "indexed": false,
          "internalType": "uint256",
          "name": "value",
          "type": "uint256"
        }
      ],
      "name": "Transfer",
      "type": "event"
    },
    {
      "anonymous": false,
      "inputs": [
        {
          "indexed": false,
          "internalType": "address",
          "name": "to",
          "type": "address"
        },
        {
          "indexed": false,
          "internalType": "uint256",
          "name": "amount",
          "type": "uint256"
        }
      ],
      "name": "VestingSet",
      "type": "event"
    },
    {
      "inputs": [
        {
          "internalType": "address",
          "name": "owner",
          "type": "address"
        },
        {
          "internalType": "address",
          "name": "spender",
          "type": "address"
        }
      ],
      "name": "allowance",
      "outputs": [
        {
          "internalType": "uint256",
          "name": "",
          "type": "uint256"
        }
      ],
      "stateMutability": "view",
      "type": "function"
    },
    {
      "inputs": [
        {
          "internalType": "address",
          "name": "spender",
          "type": "address"
        },
        {
          "internalType": "uint256",
          "name": "amount",
          "type": "uint256"
        }
      ],
      "name": "approve",
      "outputs": [
        {
          "internalType": "bool",
          "name": "",
          "type": "bool"
        }
      ],
      "stateMutability": "nonpayable",
      "type": "function"
    },
    {
      "inputs": [
        {
          "internalType": "address",
          "name": "account",
          "type": "address"
        }
      ],
      "name": "balanceOf",
      "outputs": [
        {
          "internalType": "uint256",
          "name": "",
          "type": "uint256"
        }
      ],
      "stateMutability": "view",
      "type": "function"
    },
    {
      "inputs": [
        {
          "internalType": "address",
          "name": "account",
          "type": "address"
        },
        {
          "internalType": "uint256",
          "name": "snapshotId",
          "type": "uint256"
        }
      ],
      "name": "balanceOfAt",
      "outputs": [
        {
          "internalType": "uint256",
          "name": "",
          "type": "uint256"
        }
      ],
      "stateMutability": "view",
      "type": "function"
    },
    {
      "inputs": [
        {
          "internalType": "address",
          "name": "from",
          "type": "address"
        },
        {
          "internalType": "uint256",
          "name": "amount",
          "type": "uint256"
        }
      ],
      "name": "burn",
      "outputs": [],
      "stateMutability": "nonpayable",
      "type": "function"
    },
    {
      "inputs": [],
      "name": "decimals",
      "outputs": [
        {
          "internalType": "uint8",
          "name": "",
          "type": "uint8"
        }
      ],
      "stateMutability": "view",
      "type": "function"
    },
    {
      "inputs": [
        {
          "internalType": "address",
          "name": "spender",
          "type": "address"
        },
        {
          "internalType": "uint256",
          "name": "subtractedValue",
          "type": "uint256"
        }
      ],
      "name": "decreaseAllowance",
      "outputs": [
        {
          "internalType": "bool",
          "name": "",
          "type": "bool"
        }
      ],
      "stateMutability": "nonpayable",
      "type": "function"
    },
    {
      "inputs": [],
      "name": "getCurrentSnapshotId",
      "outputs": [
        {
          "internalType": "uint256",
          "name": "",
          "type": "uint256"
        }
      ],
      "stateMutability": "view",
      "type": "function"
    },
    {
      "inputs": [],
      "name": "getRoles",
      "outputs": [
        {
          "internalType": "contract DAORoles",
          "name": "",
          "type": "address"
        }
      ],
      "stateMutability": "view",
      "type": "function"
    },
    {
      "inputs": [
        {
          "internalType": "address",
          "name": "spender",
          "type": "address"
        },
        {
          "internalType": "uint256",
          "name": "addedValue",
          "type": "uint256"
        }
      ],
      "name": "increaseAllowance",
      "outputs": [
        {
          "internalType": "bool",
          "name": "",
          "type": "bool"
        }
      ],
      "stateMutability": "nonpayable",
      "type": "function"
    },
    {
      "inputs": [
        {
          "internalType": "contract DAORoles",
          "name": "roles",
          "type": "address"
        },
        {
          "internalType": "string",
          "name": "name",
          "type": "string"
        },
        {
          "internalType": "string",
          "name": "symbol",
          "type": "string"
        }
      ],
      "name": "initialize",
      "outputs": [],
      "stateMutability": "nonpayable",
      "type": "function"
    },
    {
      "inputs": [
        {
          "internalType": "address",
          "name": "to",
          "type": "address"
        },
        {
          "internalType": "uint256",
          "name": "amount",
          "type": "uint256"
        }
      ],
      "name": "mint",
      "outputs": [],
      "stateMutability": "nonpayable",
      "type": "function"
    },
    {
      "inputs": [
        {
          "internalType": "address",
          "name": "to",
          "type": "address"
        },
        {
          "internalType": "uint256",
          "name": "amount",
          "type": "uint256"
        }
      ],
      "name": "mintVesting",
      "outputs": [],
      "stateMutability": "nonpayable",
      "type": "function"
    },
    {
      "inputs": [],
      "name": "name",
      "outputs": [
        {
          "internalType": "string",
          "name": "",
          "type": "string"
        }
      ],
      "stateMutability": "view",
      "type": "function"
    },
    {
      "inputs": [
        {
          "internalType": "contract IRedemptionController",
          "name": "redemption",
          "type": "address"
        }
      ],
      "name": "setRedemptionController",
      "outputs": [],
      "stateMutability": "nonpayable",
      "type": "function"
    },
    {
      "inputs": [
        {
          "internalType": "contract DAORoles",
          "name": "roles",
          "type": "address"
        }
      ],
      "name": "setRoles",
      "outputs": [],
      "stateMutability": "nonpayable",
      "type": "function"
    },
    {
      "inputs": [
        {
          "internalType": "address",
          "name": "tokenExternalAddress",
          "type": "address"
        }
      ],
      "name": "setTokenExternal",
      "outputs": [],
      "stateMutability": "nonpayable",
      "type": "function"
    },
    {
      "inputs": [
        {
          "internalType": "address",
          "name": "to",
          "type": "address"
        },
        {
          "internalType": "uint256",
          "name": "amount",
          "type": "uint256"
        }
      ],
      "name": "setVesting",
      "outputs": [],
      "stateMutability": "nonpayable",
      "type": "function"
    },
    {
      "inputs": [
        {
          "internalType": "contract IVoting",
          "name": "voting",
          "type": "address"
        }
      ],
      "name": "setVoting",
      "outputs": [],
      "stateMutability": "nonpayable",
      "type": "function"
    },
    {
      "inputs": [],
      "name": "snapshot",
      "outputs": [
        {
          "internalType": "uint256",
          "name": "",
          "type": "uint256"
        }
      ],
      "stateMutability": "nonpayable",
      "type": "function"
    },
    {
      "inputs": [],
      "name": "symbol",
      "outputs": [
        {
          "internalType": "string",
          "name": "",
          "type": "string"
        }
      ],
      "stateMutability": "view",
      "type": "function"
    },
    {
      "inputs": [],
      "name": "tokenExternal",
      "outputs": [
        {
          "internalType": "contract INeokingdomToken",
          "name": "",
          "type": "address"
        }
      ],
      "stateMutability": "view",
      "type": "function"
    },
    {
      "inputs": [],
      "name": "totalSupply",
      "outputs": [
        {
          "internalType": "uint256",
          "name": "",
          "type": "uint256"
        }
      ],
      "stateMutability": "view",
      "type": "function"
    },
    {
      "inputs": [
        {
          "internalType": "uint256",
          "name": "snapshotId",
          "type": "uint256"
        }
      ],
      "name": "totalSupplyAt",
      "outputs": [
        {
          "internalType": "uint256",
          "name": "",
          "type": "uint256"
        }
      ],
      "stateMutability": "view",
      "type": "function"
    },
    {
      "inputs": [
        {
          "internalType": "address",
          "name": "to",
          "type": "address"
        },
        {
          "internalType": "uint256",
          "name": "amount",
          "type": "uint256"
        }
      ],
      "name": "transfer",
      "outputs": [
        {
          "internalType": "bool",
          "name": "",
          "type": "bool"
        }
      ],
      "stateMutability": "nonpayable",
      "type": "function"
    },
    {
      "inputs": [
        {
          "internalType": "address",
          "name": "from",
          "type": "address"
        },
        {
          "internalType": "address",
          "name": "to",
          "type": "address"
        },
        {
          "internalType": "uint256",
          "name": "amount",
          "type": "uint256"
        }
      ],
      "name": "transferFrom",
      "outputs": [
        {
          "internalType": "bool",
          "name": "",
          "type": "bool"
        }
      ],
      "stateMutability": "nonpayable",
      "type": "function"
    },
    {
      "inputs": [
        {
          "internalType": "address",
          "name": "from",
          "type": "address"
        },
        {
          "internalType": "address",
          "name": "to",
          "type": "address"
        },
        {
          "internalType": "uint256",
          "name": "amount",
          "type": "uint256"
        }
      ],
      "name": "unwrap",
      "outputs": [],
      "stateMutability": "nonpayable",
      "type": "function"
    },
    {
      "inputs": [
        {
          "internalType": "address",
          "name": "account",
          "type": "address"
        }
      ],
      "name": "vestingBalanceOf",
      "outputs": [
        {
          "internalType": "uint256",
          "name": "",
          "type": "uint256"
        }
      ],
      "stateMutability": "view",
      "type": "function"
    },
    {
      "inputs": [
        {
          "internalType": "address",
          "name": "from",
          "type": "address"
        },
        {
          "internalType": "uint256",
          "name": "amount",
          "type": "uint256"
        }
      ],
      "name": "wrap",
      "outputs": [],
      "stateMutability": "nonpayable",
      "type": "function"
    }
  ],
  "bytecode": "0x60806040523480156200001157600080fd5b50600054610100900460ff1615808015620000335750600054600160ff909116105b806200004f5750303b1580156200004f575060005460ff166001145b620000b75760405162461bcd60e51b815260206004820152602e60248201527f496e697469616c697a61626c653a20636f6e747261637420697320616c72656160448201526d191e481a5b9a5d1a585b1a5e995960921b606482015260840160405180910390fd5b6000805460ff191660011790558015620000db576000805461ff0019166101001790555b801562000122576000805461ff0019169055604051600181527f7f26b83ff96e1f2b6a682f133852f6798a09c465da95921460cefb38474024989060200160405180910390a15b506125e780620001336000396000f3fe608060405234801561001057600080fd5b50600436106101cf5760003560e01c80638cc7104f116101045780639dc29fac116100a2578063bf414ee311610071578063bf414ee3146103e4578063c4d07951146103f7578063dd62ed3e1461040a578063fd1e41271461041d57600080fd5b80639dc29fac14610398578063a457c2d7146103ab578063a9059cbb146103be578063bf376c7a146103d157600080fd5b806396c9ee62116100de57806396c9ee62146103575780639711715a1461036a578063981b24d0146103725780639b04e88d1461038557600080fd5b80638cc7104f14610329578063906571471461033c57806395d89b411461034f57600080fd5b806339509351116101715780634ee2cd7e1161014b5780634ee2cd7e146102c05780635439ad86146102d357806370a08231146102db578063710613981461030457600080fd5b8063395093511461028757806340c10f191461029a57806344292600146102ad57600080fd5b806318160ddd116101ad57806318160ddd1461022a57806323b872dd1461023c578063313ce5671461024f57806336ca03651461025e57600080fd5b806306fdde03146101d457806309031db6146101f2578063095ea7b314610207575b600080fd5b6101dc610430565b6040516101e99190612068565b60405180910390f35b6102056102003660046120b0565b6104c2565b005b61021a6102153660046120cd565b6105b1565b60405190151581526020016101e9565b6036545b6040519081526020016101e9565b61021a61024a3660046120f9565b6105cb565b604051601281526020016101e9565b61022e61026c3660046120b0565b6001600160a01b031660009081526069602052604090205490565b61021a6102953660046120cd565b610677565b6102056102a83660046120cd565b610699565b6102056102bb3660046120cd565b610751565b61022e6102ce3660046120cd565b610803565b606a5461022e565b61022e6102e93660046120b0565b6001600160a01b031660009081526034602052604090205490565b6033546001600160a01b03165b6040516001600160a01b0390911681526020016101e9565b6102056103373660046120f9565b61085c565b61020561034a3660046121dd565b610904565b6101dc610a22565b6102056103653660046120cd565b610a31565b61022e610ad1565b61022e610380366004612253565b610b89565b6102056103933660046120b0565b610bb4565b6102056103a63660046120cd565b610c6a565b61021a6103b93660046120cd565b610d0a565b61021a6103cc3660046120cd565b610d90565b6102056103df3660046120cd565b610e31565b606854610311906001600160a01b031681565b6102056104053660046120b0565b610ed1565b61022e61041836600461226c565b610f87565b61020561042b3660046120b0565b610fb2565b60606037805461043f906122a5565b80601f016020809104026020016040519081016040528092919081815260200182805461046b906122a5565b80156104b85780601f1061048d576101008083540402835291602001916104b8565b820191906000526020600020905b81548152906001019060200180831161049b57829003601f168201915b5050505050905090565b600080516020612592833981519152600033603354604051632474521560e21b8152600481018590526001600160a01b0380841660248301529293509116906391d1485490604401602060405180830381865afa158015610527573d6000803e3d6000fd5b505050506040513d601f19601f8201168201806040525081019061054b91906122df565b6105a35761055881611068565b61056383602061107a565b604051602001610574929190612301565b60408051601f198184030181529082905262461bcd60e51b825261059a91600401612068565b60405180910390fd5b6105ac8361121d565b505050565b6000336105bf81858561123f565b60019150505b92915050565b60006000805160206125728339815191528133603354604051632474521560e21b8152600481018590526001600160a01b0380841660248301529293509116906391d1485490604401602060405180830381865afa158015610631573d6000803e3d6000fd5b505050506040513d601f19601f8201168201806040525081019061065591906122df565b6106625761055881611068565b61066d868686611363565b9695505050505050565b6000336105bf81858561068a8383610f87565b610694919061238c565b61123f565b7f7b97752341782019d21e7c1027eedcd270e56f5b672dcc28d53bf58a346002fc600033603354604051632474521560e21b8152600481018590526001600160a01b0380841660248301529293509116906391d1485490604401602060405180830381865afa158015610710573d6000803e3d6000fd5b505050506040513d601f19601f8201168201806040525081019061073491906122df565b6107415761055881611068565b61074b848461137c565b50505050565b7f7b97752341782019d21e7c1027eedcd270e56f5b672dcc28d53bf58a346002fc600033603354604051632474521560e21b8152600481018590526001600160a01b0380841660248301529293509116906391d1485490604401602060405180830381865afa1580156107c8573d6000803e3d6000fd5b505050506040513d601f19601f820116820180604052508101906107ec91906122df565b6107f95761055881611068565b61074b84846113ee565b6001600160a01b0382166000908152606b602052604081208190819061082a908590611476565b9150915081610851576001600160a01b038516600090815260346020526040902054610853565b805b95945050505050565b600080516020612572833981519152600033603354604051632474521560e21b8152600481018590526001600160a01b0380841660248301529293509116906391d1485490604401602060405180830381865afa1580156108c1573d6000803e3d6000fd5b505050506040513d601f19601f820116820180604052508101906108e591906122df565b6108f25761055881611068565b6108fd8585856114ba565b5050505050565b600054610100900460ff16158080156109245750600054600160ff909116105b8061093e5750303b15801561093e575060005460ff166001145b6109a15760405162461bcd60e51b815260206004820152602e60248201527f496e697469616c697a61626c653a20636f6e747261637420697320616c72656160448201526d191e481a5b9a5d1a585b1a5e995960921b606482015260840161059a565b6000805460ff1916600117905580156109c4576000805461ff0019166101001790555b6109ce838361153c565b6109d78461121d565b801561074b576000805461ff0019169055604051600181527f7f26b83ff96e1f2b6a682f133852f6798a09c465da95921460cefb38474024989060200160405180910390a150505050565b60606038805461043f906122a5565b600080516020612592833981519152600033603354604051632474521560e21b8152600481018590526001600160a01b0380841660248301529293509116906391d1485490604401602060405180830381865afa158015610a96573d6000803e3d6000fd5b505050506040513d601f19601f82011682018060405250810190610aba91906122df565b610ac75761055881611068565b61074b8484611546565b60007f7b97752341782019d21e7c1027eedcd270e56f5b672dcc28d53bf58a346002fc8133603354604051632474521560e21b8152600481018590526001600160a01b0380841660248301529293509116906391d1485490604401602060405180830381865afa158015610b49573d6000803e3d6000fd5b505050506040513d601f19601f82011682018060405250810190610b6d91906122df565b610b7a5761055881611068565b610b82611622565b9250505090565b6000806000610b9984606c611476565b9150915081610baa57603654610bac565b805b949350505050565b600080516020612592833981519152600033603354604051632474521560e21b8152600481018590526001600160a01b0380841660248301529293509116906391d1485490604401602060405180830381865afa158015610c19573d6000803e3d6000fd5b505050506040513d601f19601f82011682018060405250810190610c3d91906122df565b610c4a5761055881611068565b606780546001600160a01b0319166001600160a01b038516179055505050565b600080516020612572833981519152600033603354604051632474521560e21b8152600481018590526001600160a01b0380841660248301529293509116906391d1485490604401602060405180830381865afa158015610ccf573d6000803e3d6000fd5b505050506040513d601f19601f82011682018060405250810190610cf391906122df565b610d005761055881611068565b61074b8484611665565b60003381610d188286610f87565b905083811015610d785760405162461bcd60e51b815260206004820152602560248201527f45524332303a2064656372656173656420616c6c6f77616e63652062656c6f77604482015264207a65726f60d81b606482015260840161059a565b610d85828686840361123f565b506001949350505050565b60006000805160206125728339815191528133603354604051632474521560e21b8152600481018590526001600160a01b0380841660248301529293509116906391d1485490604401602060405180830381865afa158015610df6573d6000803e3d6000fd5b505050506040513d601f19601f82011682018060405250810190610e1a91906122df565b610e275761055881611068565b61085385856116cd565b600080516020612572833981519152600033603354604051632474521560e21b8152600481018590526001600160a01b0380841660248301529293509116906391d1485490604401602060405180830381865afa158015610e96573d6000803e3d6000fd5b505050506040513d601f19601f82011682018060405250810190610eba91906122df565b610ec75761055881611068565b61074b84846116db565b600080516020612592833981519152600033603354604051632474521560e21b8152600481018590526001600160a01b0380841660248301529293509116906391d1485490604401602060405180830381865afa158015610f36573d6000803e3d6000fd5b505050506040513d601f19601f82011682018060405250810190610f5a91906122df565b610f675761055881611068565b606680546001600160a01b0319166001600160a01b038516179055505050565b6001600160a01b03918216600090815260356020908152604080832093909416825291909152205490565b600080516020612592833981519152600033603354604051632474521560e21b8152600481018590526001600160a01b0380841660248301529293509116906391d1485490604401602060405180830381865afa158015611017573d6000803e3d6000fd5b505050506040513d601f19601f8201168201806040525081019061103b91906122df565b6110485761055881611068565b606880546001600160a01b0319166001600160a01b038516179055505050565b60606105c56001600160a01b03831660145b6060600061108983600261239f565b61109490600261238c565b67ffffffffffffffff8111156110ac576110ac61213a565b6040519080825280601f01601f1916602001820160405280156110d6576020820181803683370190505b509050600360fc1b816000815181106110f1576110f16123b6565b60200101906001600160f81b031916908160001a905350600f60fb1b81600181518110611120576111206123b6565b60200101906001600160f81b031916908160001a905350600061114484600261239f565b61114f90600161238c565b90505b60018111156111c7576f181899199a1a9b1b9c1cb0b131b232b360811b85600f1660108110611183576111836123b6565b1a60f81b828281518110611199576111996123b6565b60200101906001600160f81b031916908160001a90535060049490941c936111c0816123cc565b9050611152565b5083156112165760405162461bcd60e51b815260206004820181905260248201527f537472696e67733a20686578206c656e67746820696e73756666696369656e74604482015260640161059a565b9392505050565b603380546001600160a01b0319166001600160a01b0392909216919091179055565b6001600160a01b0383166112a15760405162461bcd60e51b8152602060048201526024808201527f45524332303a20617070726f76652066726f6d20746865207a65726f206164646044820152637265737360e01b606482015260840161059a565b6001600160a01b0382166113025760405162461bcd60e51b815260206004820152602260248201527f45524332303a20617070726f766520746f20746865207a65726f206164647265604482015261737360f01b606482015260840161059a565b6001600160a01b0383811660008181526035602090815260408083209487168084529482529182902085905590518481527f8c5be1e5ebec7d5bd14f71427d1e84f3dd0314c0f7b2291e5b200ac8c7c3b925910160405180910390a3505050565b600033611371858285611763565b610d858585856117d7565b6068546040516340c10f1960e01b8152306004820152602481018390526001600160a01b03909116906340c10f1990604401600060405180830381600087803b1580156113c857600080fd5b505af11580156113dc573d6000803e3d6000fd5b505050506113ea8282611993565b5050565b6001600160a01b0382166000908152606960205260408120805483929061141690849061238c565b90915550506001600160a01b038216600081815260696020908152604091829020548251938452908301527f90782417eb6da69d0b671119cc8e9c2063c7b0987ef1378141a54770a8c91fb3910160405180910390a16113ea828261137c565b600080806114848585611a68565b909350905082156114b2578360010181815481106114a4576114a46123b6565b906000526020600020015491505b509250929050565b60685460405163a9059cbb60e01b81526001600160a01b038481166004830152602482018490529091169063a9059cbb906044016020604051808303816000875af115801561150d573d6000803e3d6000fd5b505050506040513d601f19601f8201168201806040525081019061153191906122df565b506105ac8382611b36565b6113ea8282611c7d565b6001600160a01b03821660009081526069602052604090205481106115c45760405162461bcd60e51b815260206004820152602e60248201527f476f7665726e616e6365546f6b656e3a2076657374696e672063616e206f6e6c60448201526d1e48189948191958dc99585cd95960921b606482015260840161059a565b604080516001600160a01b0384168152602081018390527f90782417eb6da69d0b671119cc8e9c2063c7b0987ef1378141a54770a8c91fb3910160405180910390a16001600160a01b03909116600090815260696020526040902055565b42606a8190556040519081526000907f8030e83b04d87bef53480e26263266d6ca66863aa8506aca6f2559d18aa1cb679060200160405180910390a150606a5490565b606854604051630852cd8d60e31b8152600481018390526001600160a01b03909116906342966c6890602401600060405180830381600087803b1580156116ab57600080fd5b505af11580156116bf573d6000803e3d6000fd5b505050506113ea8282611b36565b6000336105bf8185856117d7565b6068546040516323b872dd60e01b81526001600160a01b03848116600483015230602483015260448201849052909116906323b872dd906064016020604051808303816000875af1158015611734573d6000803e3d6000fd5b505050506040513d601f19601f8201168201806040525081019061175891906122df565b506113ea8282611993565b600061176f8484610f87565b9050600019811461074b57818110156117ca5760405162461bcd60e51b815260206004820152601d60248201527f45524332303a20696e73756666696369656e7420616c6c6f77616e6365000000604482015260640161059a565b61074b848484840361123f565b6001600160a01b03831661183b5760405162461bcd60e51b815260206004820152602560248201527f45524332303a207472616e736665722066726f6d20746865207a65726f206164604482015264647265737360d81b606482015260840161059a565b6001600160a01b03821661189d5760405162461bcd60e51b815260206004820152602360248201527f45524332303a207472616e7366657220746f20746865207a65726f206164647260448201526265737360e81b606482015260840161059a565b6118a8838383611cae565b6001600160a01b038316600090815260346020526040902054818110156119205760405162461bcd60e51b815260206004820152602660248201527f45524332303a207472616e7366657220616d6f756e7420657863656564732062604482015265616c616e636560d01b606482015260840161059a565b6001600160a01b0380851660008181526034602052604080822086860390559286168082529083902080548601905591517fddf252ad1be2c89b69c2b068fc378daa952ba7f163c4a11628f55a4df523b3ef906119809086815260200190565b60405180910390a361074b848484611cf6565b6001600160a01b0382166119e95760405162461bcd60e51b815260206004820152601f60248201527f45524332303a206d696e7420746f20746865207a65726f206164647265737300604482015260640161059a565b6119f560008383611cae565b8060366000828254611a07919061238c565b90915550506001600160a01b0382166000818152603460209081526040808320805486019055518481527fddf252ad1be2c89b69c2b068fc378daa952ba7f163c4a11628f55a4df523b3ef910160405180910390a36113ea60008383611cf6565b60008060008411611ab45760405162461bcd60e51b81526020600482015260166024820152750536e617073686f747461626c653a20696420697320360541b604482015260640161059a565b606a54841115611b065760405162461bcd60e51b815260206004820152601d60248201527f536e617073686f747461626c653a206e6f6e6578697374656e74206964000000604482015260640161059a565b6000611b128486611e66565b84549091508103611b2857600092509050611b2f565b6001925090505b9250929050565b6001600160a01b038216611b965760405162461bcd60e51b815260206004820152602160248201527f45524332303a206275726e2066726f6d20746865207a65726f206164647265736044820152607360f81b606482015260840161059a565b611ba282600083611cae565b6001600160a01b03821660009081526034602052604090205481811015611c165760405162461bcd60e51b815260206004820152602260248201527f45524332303a206275726e20616d6f756e7420657863656564732062616c616e604482015261636560f01b606482015260840161059a565b6001600160a01b03831660008181526034602090815260408083208686039055603680548790039055518581529192917fddf252ad1be2c89b69c2b068fc378daa952ba7f163c4a11628f55a4df523b3ef910160405180910390a36105ac83600084611cf6565b600054610100900460ff16611ca45760405162461bcd60e51b815260040161059a906123e3565b6113ea8282611f13565b6001600160a01b038316611ccd57611cc582611f53565b6105ac611f89565b6001600160a01b038216611ce457611cc583611f53565b611ced83611f53565b6105ac82611f53565b606654604051636fb12c5f60e11b81526001600160a01b0385811660048301528481166024830152604482018490529091169063df6258be90606401600060405180830381600087803b158015611d4c57600080fd5b505af1158015611d60573d6000803e3d6000fd5b5050506001600160a01b0384169050611dda5760675460405163228bea5360e21b81526001600160a01b0384811660048301526024820184905290911690638a2fa94c90604401600060405180830381600087803b158015611dc157600080fd5b505af1158015611dd5573d6000803e3d6000fd5b505050505b6001600160a01b03831660009081526069602090815260408083205460349092529091205410156105ac5760405162461bcd60e51b815260206004820152603060248201527f476f7665726e616e6365546f6b656e3a207472616e7366657220616d6f756e7460448201526f20657863656564732076657374696e6760801b606482015260840161059a565b81546000908103611e79575060006105c5565b82546000905b80821015611ec6576000611e938383611f99565b60008781526020902090915085908201541115611eb257809150611ec0565b611ebd81600161238c565b92505b50611e7f565b600082118015611ef2575083611eef86611ee160018661242e565b600091825260209091200190565b54145b15611f0b57611f0260018361242e565b925050506105c5565b5090506105c5565b600054610100900460ff16611f3a5760405162461bcd60e51b815260040161059a906123e3565b6037611f46838261248f565b5060386105ac828261248f565b6001600160a01b0381166000908152606b60209081526040808320603490925290912054611f869190611fb4565b611fb4565b50565b611f97606c611f8160365490565b565b6000611fa8600284841861254f565b6112169084841661238c565b6000611fbf606a5490565b905080611fcb84611fff565b10156105ac578254600180820185556000858152602080822090930193909355938401805494850181558252902090910155565b8054600090810361201257506000919050565b815482906120229060019061242e565b81548110612032576120326123b6565b90600052602060002001549050919050565b60005b8381101561205f578181015183820152602001612047565b50506000910152565b6020815260008251806020840152612087816040850160208701612044565b601f01601f19169190910160400192915050565b6001600160a01b0381168114611f8657600080fd5b6000602082840312156120c257600080fd5b81356112168161209b565b600080604083850312156120e057600080fd5b82356120eb8161209b565b946020939093013593505050565b60008060006060848603121561210e57600080fd5b83356121198161209b565b925060208401356121298161209b565b929592945050506040919091013590565b634e487b7160e01b600052604160045260246000fd5b600082601f83011261216157600080fd5b813567ffffffffffffffff8082111561217c5761217c61213a565b604051601f8301601f19908116603f011681019082821181831017156121a4576121a461213a565b816040528381528660208588010111156121bd57600080fd5b836020870160208301376000602085830101528094505050505092915050565b6000806000606084860312156121f257600080fd5b83356121fd8161209b565b9250602084013567ffffffffffffffff8082111561221a57600080fd5b61222687838801612150565b9350604086013591508082111561223c57600080fd5b5061224986828701612150565b9150509250925092565b60006020828403121561226557600080fd5b5035919050565b6000806040838503121561227f57600080fd5b823561228a8161209b565b9150602083013561229a8161209b565b809150509250929050565b600181811c908216806122b957607f821691505b6020821081036122d957634e487b7160e01b600052602260045260246000fd5b50919050565b6000602082840312156122f157600080fd5b8151801515811461121657600080fd5b7f416363657373436f6e74726f6c3a206163636f756e7420000000000000000000815260008351612339816017850160208801612044565b7001034b99036b4b9b9b4b733903937b6329607d1b601791840191820152835161236a816028840160208801612044565b01602801949350505050565b634e487b7160e01b600052601160045260246000fd5b808201808211156105c5576105c5612376565b80820281158282048414176105c5576105c5612376565b634e487b7160e01b600052603260045260246000fd5b6000816123db576123db612376565b506000190190565b6020808252602b908201527f496e697469616c697a61626c653a20636f6e7472616374206973206e6f74206960408201526a6e697469616c697a696e6760a81b606082015260800190565b818103818111156105c5576105c5612376565b601f8211156105ac57600081815260208120601f850160051c810160208610156124685750805b601f850160051c820191505b8181101561248757828155600101612474565b505050505050565b815167ffffffffffffffff8111156124a9576124a961213a565b6124bd816124b784546122a5565b84612441565b602080601f8311600181146124f257600084156124da5750858301515b600019600386901b1c1916600185901b178555612487565b600085815260208120601f198616915b8281101561252157888601518255948401946001909101908401612502565b508582101561253f5787850151600019600388901b60f8161c191681555b5050505050600190811b01905550565b60008261256c57634e487b7160e01b600052601260045260246000fd5b50049056fe395f08be531c0d7403cba7c5ffd2b57329184452bcebcd6a48299ebbbf39db6f97667070c54ef182b0f5858b034beac1b6f3089aa2d3188bb1e8929f4fa9b929a264697066735822122076cf76852628c6db52c04fa86bdaac9791b22c2016dd436bb23f1c519fbc1b4e64736f6c63430008130033",
  "linkReferences": {},
  "deployedLinkReferences": {}
}