{
  "_format": "hh-sol-artifact-1",
  "contractName": "GovernanceToken",
  "sourceName": "contracts/GovernanceToken/GovernanceToken.sol",
  "abi": [
    {
      "inputs": [],
      "stateMutability": "nonpayable",
      "type": "constructor"
    },
    {
      "anonymous": false,
      "inputs": [
        {
          "indexed": true,
          "internalType": "address",
          "name": "owner",
          "type": "address"
        },
        {
          "indexed": true,
          "internalType": "address",
          "name": "spender",
          "type": "address"
        },
        {
          "indexed": false,
          "internalType": "uint256",
          "name": "value",
          "type": "uint256"
        }
      ],
      "name": "Approval",
      "type": "event"
    },
    {
      "anonymous": false,
      "inputs": [
        {
          "indexed": true,
          "internalType": "uint256",
          "name": "index",
          "type": "uint256"
        },
        {
          "indexed": false,
          "internalType": "address",
          "name": "from",
          "type": "address"
        },
        {
          "indexed": false,
          "internalType": "uint256",
          "name": "amount",
          "type": "uint256"
        },
        {
          "indexed": false,
          "internalType": "uint256",
          "name": "settlementTimestamp",
          "type": "uint256"
        }
      ],
      "name": "DepositStarted",
      "type": "event"
    },
    {
      "anonymous": false,
      "inputs": [
        {
          "indexed": false,
          "internalType": "uint8",
          "name": "version",
          "type": "uint8"
        }
      ],
      "name": "Initialized",
      "type": "event"
    },
    {
      "anonymous": false,
      "inputs": [
        {
          "indexed": true,
          "internalType": "uint256",
          "name": "index",
          "type": "uint256"
        },
        {
          "indexed": false,
          "internalType": "address",
          "name": "from",
          "type": "address"
        }
      ],
      "name": "Settled",
      "type": "event"
    },
    {
      "anonymous": false,
      "inputs": [
        {
          "indexed": false,
          "internalType": "uint256",
          "name": "id",
          "type": "uint256"
        }
      ],
      "name": "Snapshot",
      "type": "event"
    },
    {
      "anonymous": false,
      "inputs": [
        {
          "indexed": true,
          "internalType": "address",
          "name": "from",
          "type": "address"
        },
        {
          "indexed": true,
          "internalType": "address",
          "name": "to",
          "type": "address"
        },
        {
          "indexed": false,
          "internalType": "uint256",
          "name": "value",
          "type": "uint256"
        }
      ],
      "name": "Transfer",
      "type": "event"
    },
    {
      "anonymous": false,
      "inputs": [
        {
          "indexed": false,
          "internalType": "address",
          "name": "to",
          "type": "address"
        },
        {
          "indexed": false,
          "internalType": "uint256",
          "name": "amount",
          "type": "uint256"
        }
      ],
      "name": "VestingSet",
      "type": "event"
    },
    {
      "inputs": [
        {
          "internalType": "address",
          "name": "owner",
          "type": "address"
        },
        {
          "internalType": "address",
          "name": "spender",
          "type": "address"
        }
      ],
      "name": "allowance",
      "outputs": [
        {
          "internalType": "uint256",
          "name": "",
          "type": "uint256"
        }
      ],
      "stateMutability": "view",
      "type": "function"
    },
    {
      "inputs": [
        {
          "internalType": "address",
          "name": "spender",
          "type": "address"
        },
        {
          "internalType": "uint256",
          "name": "amount",
          "type": "uint256"
        }
      ],
      "name": "approve",
      "outputs": [
        {
          "internalType": "bool",
          "name": "",
          "type": "bool"
        }
      ],
      "stateMutability": "nonpayable",
      "type": "function"
    },
    {
      "inputs": [
        {
          "internalType": "address",
          "name": "account",
          "type": "address"
        }
      ],
      "name": "balanceOf",
      "outputs": [
        {
          "internalType": "uint256",
          "name": "",
          "type": "uint256"
        }
      ],
      "stateMutability": "view",
      "type": "function"
    },
    {
      "inputs": [
        {
          "internalType": "address",
          "name": "account",
          "type": "address"
        },
        {
          "internalType": "uint256",
          "name": "snapshotId",
          "type": "uint256"
        }
      ],
      "name": "balanceOfAt",
      "outputs": [
        {
          "internalType": "uint256",
          "name": "",
          "type": "uint256"
        }
      ],
      "stateMutability": "view",
      "type": "function"
    },
    {
      "inputs": [
        {
          "internalType": "address",
          "name": "from",
          "type": "address"
        },
        {
          "internalType": "uint256",
          "name": "amount",
          "type": "uint256"
        }
      ],
      "name": "burn",
      "outputs": [],
      "stateMutability": "nonpayable",
      "type": "function"
    },
    {
      "inputs": [],
      "name": "decimals",
      "outputs": [
        {
          "internalType": "uint8",
          "name": "",
          "type": "uint8"
        }
      ],
      "stateMutability": "view",
      "type": "function"
    },
    {
      "inputs": [
        {
          "internalType": "address",
          "name": "spender",
          "type": "address"
        },
        {
          "internalType": "uint256",
          "name": "subtractedValue",
          "type": "uint256"
        }
      ],
      "name": "decreaseAllowance",
      "outputs": [
        {
          "internalType": "bool",
          "name": "",
          "type": "bool"
        }
      ],
      "stateMutability": "nonpayable",
      "type": "function"
    },
    {
      "inputs": [],
      "name": "getCurrentSnapshotId",
      "outputs": [
        {
          "internalType": "uint256",
          "name": "",
          "type": "uint256"
        }
      ],
      "stateMutability": "view",
      "type": "function"
    },
    {
      "inputs": [],
      "name": "getRoles",
      "outputs": [
        {
          "internalType": "contract DAORoles",
          "name": "",
          "type": "address"
        }
      ],
      "stateMutability": "view",
      "type": "function"
    },
    {
      "inputs": [
        {
          "internalType": "address",
          "name": "spender",
          "type": "address"
        },
        {
          "internalType": "uint256",
          "name": "addedValue",
          "type": "uint256"
        }
      ],
      "name": "increaseAllowance",
      "outputs": [
        {
          "internalType": "bool",
          "name": "",
          "type": "bool"
        }
      ],
      "stateMutability": "nonpayable",
      "type": "function"
    },
    {
      "inputs": [
        {
          "internalType": "contract DAORoles",
          "name": "roles",
          "type": "address"
        },
        {
          "internalType": "string",
          "name": "name",
          "type": "string"
        },
        {
          "internalType": "string",
          "name": "symbol",
          "type": "string"
        }
      ],
      "name": "initialize",
      "outputs": [],
      "stateMutability": "nonpayable",
      "type": "function"
    },
    {
      "inputs": [
        {
          "internalType": "address",
          "name": "to",
          "type": "address"
        },
        {
          "internalType": "uint256",
          "name": "amount",
          "type": "uint256"
        }
      ],
      "name": "mint",
      "outputs": [],
      "stateMutability": "nonpayable",
      "type": "function"
    },
    {
      "inputs": [
        {
          "internalType": "address",
          "name": "to",
          "type": "address"
        },
        {
          "internalType": "uint256",
          "name": "amount",
          "type": "uint256"
        }
      ],
      "name": "mintVesting",
      "outputs": [],
      "stateMutability": "nonpayable",
      "type": "function"
    },
    {
      "inputs": [],
      "name": "name",
      "outputs": [
        {
          "internalType": "string",
          "name": "",
          "type": "string"
        }
      ],
      "stateMutability": "view",
      "type": "function"
    },
    {
      "inputs": [
        {
          "internalType": "contract IRedemptionController",
          "name": "redemption",
          "type": "address"
        }
      ],
      "name": "setRedemptionController",
      "outputs": [],
      "stateMutability": "nonpayable",
      "type": "function"
    },
    {
      "inputs": [
        {
          "internalType": "contract DAORoles",
          "name": "roles",
          "type": "address"
        }
      ],
      "name": "setRoles",
      "outputs": [],
      "stateMutability": "nonpayable",
      "type": "function"
    },
    {
      "inputs": [
        {
          "internalType": "uint256",
          "name": "settlementPeriod_",
          "type": "uint256"
        }
      ],
      "name": "setSettlementPeriod",
      "outputs": [],
      "stateMutability": "nonpayable",
      "type": "function"
    },
    {
      "inputs": [
        {
          "internalType": "contract IShareholderRegistry",
          "name": "shareholderRegistry",
          "type": "address"
        }
      ],
      "name": "setShareholderRegistry",
      "outputs": [],
      "stateMutability": "nonpayable",
      "type": "function"
    },
    {
      "inputs": [
        {
          "internalType": "address",
          "name": "tokenExternalAddress",
          "type": "address"
        }
      ],
      "name": "setTokenExternal",
      "outputs": [],
      "stateMutability": "nonpayable",
      "type": "function"
    },
    {
      "inputs": [
        {
          "internalType": "address",
          "name": "to",
          "type": "address"
        },
        {
          "internalType": "uint256",
          "name": "amount",
          "type": "uint256"
        }
      ],
      "name": "setVesting",
      "outputs": [],
      "stateMutability": "nonpayable",
      "type": "function"
    },
    {
      "inputs": [
        {
          "internalType": "contract IVoting",
          "name": "voting",
          "type": "address"
        }
      ],
      "name": "setVoting",
      "outputs": [],
      "stateMutability": "nonpayable",
      "type": "function"
    },
    {
      "inputs": [
        {
          "internalType": "address",
          "name": "from",
          "type": "address"
        }
      ],
      "name": "settleTokens",
      "outputs": [],
      "stateMutability": "nonpayable",
      "type": "function"
    },
    {
      "inputs": [
        {
          "internalType": "address",
          "name": "account",
          "type": "address"
        }
      ],
      "name": "settlingBalanceOf",
      "outputs": [
        {
          "internalType": "uint256",
          "name": "amount",
          "type": "uint256"
        }
      ],
      "stateMutability": "view",
      "type": "function"
    },
    {
      "inputs": [],
      "name": "snapshot",
      "outputs": [
        {
          "internalType": "uint256",
          "name": "",
          "type": "uint256"
        }
      ],
      "stateMutability": "nonpayable",
      "type": "function"
    },
    {
      "inputs": [],
      "name": "symbol",
      "outputs": [
        {
          "internalType": "string",
          "name": "",
          "type": "string"
        }
      ],
      "stateMutability": "view",
      "type": "function"
    },
    {
      "inputs": [],
      "name": "tokenExternal",
      "outputs": [
        {
          "internalType": "contract INeokingdomToken",
          "name": "",
          "type": "address"
        }
      ],
      "stateMutability": "view",
      "type": "function"
    },
    {
      "inputs": [],
      "name": "totalSupply",
      "outputs": [
        {
          "internalType": "uint256",
          "name": "",
          "type": "uint256"
        }
      ],
      "stateMutability": "view",
      "type": "function"
    },
    {
      "inputs": [
        {
          "internalType": "uint256",
          "name": "snapshotId",
          "type": "uint256"
        }
      ],
      "name": "totalSupplyAt",
      "outputs": [
        {
          "internalType": "uint256",
          "name": "",
          "type": "uint256"
        }
      ],
      "stateMutability": "view",
      "type": "function"
    },
    {
      "inputs": [
        {
          "internalType": "address",
          "name": "to",
          "type": "address"
        },
        {
          "internalType": "uint256",
          "name": "amount",
          "type": "uint256"
        }
      ],
      "name": "transfer",
      "outputs": [
        {
          "internalType": "bool",
          "name": "",
          "type": "bool"
        }
      ],
      "stateMutability": "nonpayable",
      "type": "function"
    },
    {
      "inputs": [
        {
          "internalType": "address",
          "name": "from",
          "type": "address"
        },
        {
          "internalType": "address",
          "name": "to",
          "type": "address"
        },
        {
          "internalType": "uint256",
          "name": "amount",
          "type": "uint256"
        }
      ],
      "name": "transferFrom",
      "outputs": [
        {
          "internalType": "bool",
          "name": "",
          "type": "bool"
        }
      ],
      "stateMutability": "nonpayable",
      "type": "function"
    },
    {
      "inputs": [
        {
          "internalType": "address",
          "name": "from",
          "type": "address"
        },
        {
          "internalType": "address",
          "name": "to",
          "type": "address"
        },
        {
          "internalType": "uint256",
          "name": "amount",
          "type": "uint256"
        }
      ],
      "name": "unwrap",
      "outputs": [],
      "stateMutability": "nonpayable",
      "type": "function"
    },
    {
      "inputs": [
        {
          "internalType": "address",
          "name": "account",
          "type": "address"
        }
      ],
      "name": "vestingBalanceOf",
      "outputs": [
        {
          "internalType": "uint256",
          "name": "",
          "type": "uint256"
        }
      ],
      "stateMutability": "view",
      "type": "function"
    },
    {
      "inputs": [
        {
          "internalType": "address",
          "name": "from",
          "type": "address"
        },
        {
          "internalType": "uint256",
          "name": "amount",
          "type": "uint256"
        }
      ],
      "name": "wrap",
      "outputs": [],
      "stateMutability": "nonpayable",
      "type": "function"
    }
  ],
  "bytecode": "0x60806040523480156200001157600080fd5b50600054610100900460ff1615808015620000335750600054600160ff909116105b8062000063575062000050306200013d60201b620014f11760201c565b15801562000063575060005460ff166001145b620000cb5760405162461bcd60e51b815260206004820152602e60248201527f496e697469616c697a61626c653a20636f6e747261637420697320616c72656160448201526d191e481a5b9a5d1a585b1a5e995960921b606482015260840160405180910390fd5b6000805460ff191660011790558015620000ef576000805461ff0019166101001790555b801562000136576000805461ff0019169055604051600181527f7f26b83ff96e1f2b6a682f133852f6798a09c465da95921460cefb38474024989060200160405180910390a15b506200014c565b6001600160a01b03163b151590565b612cdc806200015c6000396000f3fe608060405234801561001057600080fd5b50600436106101fb5760003560e01c80638072a0221161011a5780639dc29fac116100ad578063bf376c7a1161007c578063bf376c7a1461044d578063bf414ee314610460578063c4d0795114610473578063dd62ed3e14610486578063fd1e41271461049957600080fd5b80639dc29fac14610401578063a260b10214610414578063a457c2d714610427578063a9059cbb1461043a57600080fd5b806396c9ee62116100e957806396c9ee62146103c05780639711715a146103d3578063981b24d0146103db5780639b04e88d146103ee57600080fd5b80638072a0221461037f5780638cc7104f1461039257806390657147146103a557806395d89b41146103b857600080fd5b806339509351116101925780635439ad86116101615780635439ad861461031657806370a082311461031e57806371061398146103475780637388e6c01461036c57600080fd5b806339509351146102ca57806340c10f19146102dd57806344292600146102f05780634ee2cd7e1461030357600080fd5b806318160ddd116101ce57806318160ddd1461027757806323b872dd1461027f578063313ce5671461029257806336ca0365146102a157600080fd5b806306fdde031461020057806309031db61461021e578063095ea7b31461023357806312a5cf2014610256575b600080fd5b6102086104ac565b604051610215919061270d565b60405180910390f35b61023161022c366004612755565b61053e565b005b610246610241366004612772565b61062d565b6040519015158152602001610215565b610269610264366004612755565b610647565b604051908152602001610215565b603654610269565b61024661028d36600461279e565b610705565b60405160128152602001610215565b6102696102af366004612755565b6001600160a01b031660009081526069602052604090205490565b6102466102d8366004612772565b6107b1565b6102316102eb366004612772565b6107d3565b6102316102fe366004612772565b6109dc565b610269610311366004612772565b610a8e565b606a54610269565b61026961032c366004612755565b6001600160a01b031660009081526034602052604090205490565b6033546001600160a01b03165b6040516001600160a01b039091168152602001610215565b61023161037a366004612755565b610ae7565b61023161038d3660046127df565b610af3565b6102316103a036600461279e565b610b90565b6102316103b336600461289b565b610c38565b610208610d7c565b6102316103ce366004612772565b610d8b565b610269610e2b565b6102696103e93660046127df565b610ee3565b6102316103fc366004612755565b610f0e565b61023161040f366004612772565b610feb565b610231610422366004612755565b61108b565b610246610435366004612772565b611145565b610246610448366004612772565b6111cb565b61023161045b366004612772565b61126c565b606854610354906001600160a01b031681565b610231610481366004612755565b61130c565b610269610494366004612911565b6113e9565b6102316104a7366004612755565b611414565b6060603780546104bb9061294a565b80601f01602080910402602001604051908101604052809291908181526020018280546104e79061294a565b80156105345780601f1061050957610100808354040283529160200191610534565b820191906000526020600020905b81548152906001019060200180831161051757829003601f168201915b5050505050905090565b600080516020612c87833981519152600033603354604051632474521560e21b8152600481018590526001600160a01b0380841660248301529293509116906391d1485490604401602060405180830381865afa1580156105a3573d6000803e3d6000fd5b505050506040513d601f19601f820116820180604052508101906105c7919061297e565b61061f576105d481611500565b6105df836020611512565b6040516020016105f09291906129a0565b60408051601f198184030181529082905262461bcd60e51b82526106169160040161270d565b60405180910390fd5b610628836116b5565b505050565b60003361063b8185856116d7565b60019150505b92915050565b6001600160a01b0381166000908152606f60205260408120545b80156106ff576001600160a01b0383166000908152606f6020526040812061068a600184612a2b565b8154811061069a5761069a612a3e565b600091825260209182902060408051808201909152600290920201805482526001015491810182905291504210156106ec578051156106e65780516106df9084612a54565b92506106ec565b506106ff565b50806106f781612a67565b915050610661565b50919050565b6000600080516020612c678339815191528133603354604051632474521560e21b8152600481018590526001600160a01b0380841660248301529293509116906391d1485490604401602060405180830381865afa15801561076b573d6000803e3d6000fd5b505050506040513d601f19601f8201168201806040525081019061078f919061297e565b61079c576105d481611500565b6107a78686866117fb565b9695505050505050565b60003361063b8185856107c483836113e9565b6107ce9190612a54565b6116d7565b7f7b97752341782019d21e7c1027eedcd270e56f5b672dcc28d53bf58a346002fc600033603354604051632474521560e21b8152600481018590526001600160a01b0380841660248301529293509116906391d1485490604401602060405180830381865afa15801561084a573d6000803e3d6000fd5b505050506040513d601f19601f8201168201806040525081019061086e919061297e565b61087b576105d481611500565b6108858484611814565b606e5460408051633bef226f60e21b815290516001600160a01b0390921691630ea018f791839163efbc89bc916004808201926020929091908290030181865afa1580156108d7573d6000803e3d6000fd5b505050506040513d601f19601f820116820180604052508101906108fb9190612a7e565b6040516001600160e01b031960e084901b16815260048101919091526001600160a01b0387166024820152604401602060405180830381865afa158015610946573d6000803e3d6000fd5b505050506040513d601f19601f8201168201806040525081019061096a919061297e565b156109d65760675460405163228bea5360e21b81526001600160a01b0386811660048301526024820186905290911690638a2fa94c90604401600060405180830381600087803b1580156109bd57600080fd5b505af11580156109d1573d6000803e3d6000fd5b505050505b50505050565b7f7b97752341782019d21e7c1027eedcd270e56f5b672dcc28d53bf58a346002fc600033603354604051632474521560e21b8152600481018590526001600160a01b0380841660248301529293509116906391d1485490604401602060405180830381865afa158015610a53573d6000803e3d6000fd5b505050506040513d601f19601f82011682018060405250810190610a77919061297e565b610a84576105d481611500565b6109d68484611886565b6001600160a01b0382166000908152606b6020526040812081908190610ab590859061190e565b9150915081610adc576001600160a01b038516600090815260346020526040902054610ade565b805b95945050505050565b610af081611952565b50565b600080516020612c87833981519152600033603354604051632474521560e21b8152600481018590526001600160a01b0380841660248301529293509116906391d1485490604401602060405180830381865afa158015610b58573d6000803e3d6000fd5b505050506040513d601f19601f82011682018060405250810190610b7c919061297e565b610b89576105d481611500565b5050607055565b600080516020612c67833981519152600033603354604051632474521560e21b8152600481018590526001600160a01b0380841660248301529293509116906391d1485490604401602060405180830381865afa158015610bf5573d6000803e3d6000fd5b505050506040513d601f19601f82011682018060405250810190610c19919061297e565b610c26576105d481611500565b610c31858585611a2b565b5050505050565b600054610100900460ff1615808015610c585750600054600160ff909116105b80610c725750303b158015610c72575060005460ff166001145b610cd55760405162461bcd60e51b815260206004820152602e60248201527f496e697469616c697a61626c653a20636f6e747261637420697320616c72656160448201526d191e481a5b9a5d1a585b1a5e995960921b6064820152608401610616565b6000805460ff191660011790558015610cf8576000805461ff0019166101001790555b6001600160a01b038416610d1e5760405162461bcd60e51b815260040161061690612a97565b610d288383611af8565b610d31846116b5565b80156109d6576000805461ff0019169055604051600181527f7f26b83ff96e1f2b6a682f133852f6798a09c465da95921460cefb38474024989060200160405180910390a150505050565b6060603880546104bb9061294a565b600080516020612c87833981519152600033603354604051632474521560e21b8152600481018590526001600160a01b0380841660248301529293509116906391d1485490604401602060405180830381865afa158015610df0573d6000803e3d6000fd5b505050506040513d601f19601f82011682018060405250810190610e14919061297e565b610e21576105d481611500565b6109d68484611b02565b60007f7b97752341782019d21e7c1027eedcd270e56f5b672dcc28d53bf58a346002fc8133603354604051632474521560e21b8152600481018590526001600160a01b0380841660248301529293509116906391d1485490604401602060405180830381865afa158015610ea3573d6000803e3d6000fd5b505050506040513d601f19601f82011682018060405250810190610ec7919061297e565b610ed4576105d481611500565b610edc611bde565b9250505090565b6000806000610ef384606c61190e565b9150915081610f0457603654610f06565b805b949350505050565b600080516020612c87833981519152600033603354604051632474521560e21b8152600481018590526001600160a01b0380841660248301529293509116906391d1485490604401602060405180830381865afa158015610f73573d6000803e3d6000fd5b505050506040513d601f19601f82011682018060405250810190610f97919061297e565b610fa4576105d481611500565b826001600160a01b038116610fcb5760405162461bcd60e51b815260040161061690612a97565b606780546001600160a01b0319166001600160a01b0386161790556109d6565b600080516020612c67833981519152600033603354604051632474521560e21b8152600481018590526001600160a01b0380841660248301529293509116906391d1485490604401602060405180830381865afa158015611050573d6000803e3d6000fd5b505050506040513d601f19601f82011682018060405250810190611074919061297e565b611081576105d481611500565b6109d68484611c21565b600080516020612c87833981519152600033603354604051632474521560e21b8152600481018590526001600160a01b0380841660248301529293509116906391d1485490604401602060405180830381865afa1580156110f0573d6000803e3d6000fd5b505050506040513d601f19601f82011682018060405250810190611114919061297e565b611121576105d481611500565b5050606e80546001600160a01b0319166001600160a01b0392909216919091179055565b6000338161115382866113e9565b9050838110156111b35760405162461bcd60e51b815260206004820152602560248201527f45524332303a2064656372656173656420616c6c6f77616e63652062656c6f77604482015264207a65726f60d81b6064820152608401610616565b6111c082868684036116d7565b506001949350505050565b6000600080516020612c678339815191528133603354604051632474521560e21b8152600481018590526001600160a01b0380841660248301529293509116906391d1485490604401602060405180830381865afa158015611231573d6000803e3d6000fd5b505050506040513d601f19601f82011682018060405250810190611255919061297e565b611262576105d481611500565b610ade8585611c89565b600080516020612c67833981519152600033603354604051632474521560e21b8152600481018590526001600160a01b0380841660248301529293509116906391d1485490604401602060405180830381865afa1580156112d1573d6000803e3d6000fd5b505050506040513d601f19601f820116820180604052508101906112f5919061297e565b611302576105d481611500565b6109d68484611c97565b600080516020612c87833981519152600033603354604051632474521560e21b8152600481018590526001600160a01b0380841660248301529293509116906391d1485490604401602060405180830381865afa158015611371573d6000803e3d6000fd5b505050506040513d601f19601f82011682018060405250810190611395919061297e565b6113a2576105d481611500565b826001600160a01b0381166113c95760405162461bcd60e51b815260040161061690612a97565b606680546001600160a01b0319166001600160a01b0386161790556109d6565b6001600160a01b03918216600090815260356020908152604080832093909416825291909152205490565b600080516020612c87833981519152600033603354604051632474521560e21b8152600481018590526001600160a01b0380841660248301529293509116906391d1485490604401602060405180830381865afa158015611479573d6000803e3d6000fd5b505050506040513d601f19601f8201168201806040525081019061149d919061297e565b6114aa576105d481611500565b826001600160a01b0381166114d15760405162461bcd60e51b815260040161061690612a97565b606880546001600160a01b0319166001600160a01b0386161790556109d6565b6001600160a01b03163b151590565b60606106416001600160a01b03831660145b60606000611521836002612acc565b61152c906002612a54565b67ffffffffffffffff811115611544576115446127f8565b6040519080825280601f01601f19166020018201604052801561156e576020820181803683370190505b509050600360fc1b8160008151811061158957611589612a3e565b60200101906001600160f81b031916908160001a905350600f60fb1b816001815181106115b8576115b8612a3e565b60200101906001600160f81b031916908160001a90535060006115dc846002612acc565b6115e7906001612a54565b90505b600181111561165f576f181899199a1a9b1b9c1cb0b131b232b360811b85600f166010811061161b5761161b612a3e565b1a60f81b82828151811061163157611631612a3e565b60200101906001600160f81b031916908160001a90535060049490941c9361165881612a67565b90506115ea565b5083156116ae5760405162461bcd60e51b815260206004820181905260248201527f537472696e67733a20686578206c656e67746820696e73756666696369656e746044820152606401610616565b9392505050565b603380546001600160a01b0319166001600160a01b0392909216919091179055565b6001600160a01b0383166117395760405162461bcd60e51b8152602060048201526024808201527f45524332303a20617070726f76652066726f6d20746865207a65726f206164646044820152637265737360e01b6064820152608401610616565b6001600160a01b03821661179a5760405162461bcd60e51b815260206004820152602260248201527f45524332303a20617070726f766520746f20746865207a65726f206164647265604482015261737360f01b6064820152608401610616565b6001600160a01b0383811660008181526035602090815260408083209487168084529482529182902085905590518481527f8c5be1e5ebec7d5bd14f71427d1e84f3dd0314c0f7b2291e5b200ac8c7c3b925910160405180910390a3505050565b600033611809858285611e81565b6111c0858585611ef5565b6068546040516340c10f1960e01b8152306004820152602481018390526001600160a01b03909116906340c10f1990604401600060405180830381600087803b15801561186057600080fd5b505af1158015611874573d6000803e3d6000fd5b5050505061188282826120b1565b5050565b6001600160a01b038216600090815260696020526040812080548392906118ae908490612a54565b90915550506001600160a01b038216600081815260696020908152604091829020548251938452908301527f90782417eb6da69d0b671119cc8e9c2063c7b0987ef1378141a54770a8c91fb3910160405180910390a16118828282611814565b6000808061191c8585612186565b9093509050821561194a5783600101818154811061193c5761193c612a3e565b906000526020600020015491505b509250929050565b6001600160a01b0381166000908152606f60205260409020545b8015611882576001600160a01b0382166000908152606f60205260408120611995600184612a2b565b815481106119a5576119a5612a3e565b9060005260206000209060020201905080600101544210611a1857805415610628576119d58382600001546120b1565b600081556040516001600160a01b038416815282907f1ddc75d9b5fc6d37e23b3284e94f0db77b95dfe06b38540ac86c16e6ee3f72389060200160405180910390a25b5080611a2381612a67565b91505061196c565b60685460405163a9059cbb60e01b81526001600160a01b038481166004830152602482018490529091169063a9059cbb906044016020604051808303816000875af1158015611a7e573d6000803e3d6000fd5b505050506040513d601f19601f82011682018060405250810190611aa2919061297e565b611aee5760405162461bcd60e51b815260206004820181905260248201527f476f7665726e616e6365546f6b656e3a207472616e73666572206661696c65646044820152606401610616565b6106288382612254565b611882828261239b565b6001600160a01b0382166000908152606960205260409020548110611b805760405162461bcd60e51b815260206004820152602e60248201527f476f7665726e616e6365546f6b656e3a2076657374696e672063616e206f6e6c60448201526d1e48189948191958dc99585cd95960921b6064820152608401610616565b604080516001600160a01b0384168152602081018390527f90782417eb6da69d0b671119cc8e9c2063c7b0987ef1378141a54770a8c91fb3910160405180910390a16001600160a01b03909116600090815260696020526040902055565b42606a8190556040519081526000907f8030e83b04d87bef53480e26263266d6ca66863aa8506aca6f2559d18aa1cb679060200160405180910390a150606a5490565b606854604051630852cd8d60e31b8152600481018390526001600160a01b03909116906342966c6890602401600060405180830381600087803b158015611c6757600080fd5b505af1158015611c7b573d6000803e3d6000fd5b505050506118828282612254565b60003361063b818585611ef5565b6068546040516323b872dd60e01b81526001600160a01b03848116600483015230602483015260448201849052909116906323b872dd906064016020604051808303816000875af1158015611cf0573d6000803e3d6000fd5b505050506040513d601f19601f82011682018060405250810190611d14919061297e565b611d605760405162461bcd60e51b815260206004820181905260248201527f476f7665726e616e6365546f6b656e3a207472616e73666572206661696c65646044820152606401610616565b60008111611dc25760405162461bcd60e51b815260206004820152602960248201527f476f7665726e616e6365546f6b656e3a20617474656d707420746f2077726170604482015268203020746f6b656e7360b81b6064820152608401610616565b600060705442611dd29190612a54565b6001600160a01b0384166000818152606f60209081526040918290205482519384529083018690529082018390529192507f8516fa13f2543eb8fd2ca1bd949946a1cebdde1347c9f3365daa34181dec88d29060600160405180910390a26001600160a01b039092166000908152606f60209081526040808320815180830190925293815280820194855283546001818101865594845291909220915160029091029091019081559151910155565b6000611e8d84846113e9565b905060001981146109d65781811015611ee85760405162461bcd60e51b815260206004820152601d60248201527f45524332303a20696e73756666696369656e7420616c6c6f77616e63650000006044820152606401610616565b6109d684848484036116d7565b6001600160a01b038316611f595760405162461bcd60e51b815260206004820152602560248201527f45524332303a207472616e736665722066726f6d20746865207a65726f206164604482015264647265737360d81b6064820152608401610616565b6001600160a01b038216611fbb5760405162461bcd60e51b815260206004820152602360248201527f45524332303a207472616e7366657220746f20746865207a65726f206164647260448201526265737360e81b6064820152608401610616565b611fc68383836123cc565b6001600160a01b0383166000908152603460205260409020548181101561203e5760405162461bcd60e51b815260206004820152602660248201527f45524332303a207472616e7366657220616d6f756e7420657863656564732062604482015265616c616e636560d01b6064820152608401610616565b6001600160a01b0380851660008181526034602052604080822086860390559286168082529083902080548601905591517fddf252ad1be2c89b69c2b068fc378daa952ba7f163c4a11628f55a4df523b3ef9061209e9086815260200190565b60405180910390a36109d6848484612414565b6001600160a01b0382166121075760405162461bcd60e51b815260206004820152601f60248201527f45524332303a206d696e7420746f20746865207a65726f2061646472657373006044820152606401610616565b612113600083836123cc565b80603660008282546121259190612a54565b90915550506001600160a01b0382166000818152603460209081526040808320805486019055518481527fddf252ad1be2c89b69c2b068fc378daa952ba7f163c4a11628f55a4df523b3ef910160405180910390a361188260008383612414565b600080600084116121d25760405162461bcd60e51b81526020600482015260166024820152750536e617073686f747461626c653a20696420697320360541b6044820152606401610616565b606a548411156122245760405162461bcd60e51b815260206004820152601d60248201527f536e617073686f747461626c653a206e6f6e6578697374656e742069640000006044820152606401610616565b6000612230848661250e565b845490915081036122465760009250905061224d565b6001925090505b9250929050565b6001600160a01b0382166122b45760405162461bcd60e51b815260206004820152602160248201527f45524332303a206275726e2066726f6d20746865207a65726f206164647265736044820152607360f81b6064820152608401610616565b6122c0826000836123cc565b6001600160a01b038216600090815260346020526040902054818110156123345760405162461bcd60e51b815260206004820152602260248201527f45524332303a206275726e20616d6f756e7420657863656564732062616c616e604482015261636560f01b6064820152608401610616565b6001600160a01b03831660008181526034602090815260408083208686039055603680548790039055518581529192917fddf252ad1be2c89b69c2b068fc378daa952ba7f163c4a11628f55a4df523b3ef910160405180910390a361062883600084612414565b600054610100900460ff166123c25760405162461bcd60e51b815260040161061690612aeb565b61188282826125bb565b6001600160a01b0383166123eb576123e3826125fb565b61062861262e565b6001600160a01b038216612402576123e3836125fb565b61240b836125fb565b610628826125fb565b606654604051636fb12c5f60e11b81526001600160a01b0385811660048301528481166024830152604482018490529091169063df6258be90606401600060405180830381600087803b15801561246a57600080fd5b505af115801561247e573d6000803e3d6000fd5b505050506001600160a01b03831660009081526069602090815260408083205460349092529091205410156106285760405162461bcd60e51b815260206004820152603060248201527f476f7665726e616e6365546f6b656e3a207472616e7366657220616d6f756e7460448201526f20657863656564732076657374696e6760801b6064820152608401610616565b8154600090810361252157506000610641565b82546000905b8082101561256e57600061253b838361263e565b6000878152602090209091508590820154111561255a57809150612568565b612565816001612a54565b92505b50612527565b60008211801561259a57508361259786612589600186612a2b565b600091825260209091200190565b54145b156125b3576125aa600183612a2b565b92505050610641565b509050610641565b600054610100900460ff166125e25760405162461bcd60e51b815260040161061690612aeb565b60376125ee8382612b84565b5060386106288282612b84565b6001600160a01b0381166000908152606b60209081526040808320603490925290912054610af09190612659565b612659565b61263c606c61262960365490565b565b600061264d6002848418612c44565b6116ae90848416612a54565b6000612664606a5490565b905080612670846126a4565b1015610628578254600180820185556000858152602080822090930193909355938401805494850181558252902090910155565b805460009081036126b757506000919050565b815482906126c790600190612a2b565b815481106126d7576126d7612a3e565b90600052602060002001549050919050565b60005b838110156127045781810151838201526020016126ec565b50506000910152565b602081526000825180602084015261272c8160408501602087016126e9565b601f01601f19169190910160400192915050565b6001600160a01b0381168114610af057600080fd5b60006020828403121561276757600080fd5b81356116ae81612740565b6000806040838503121561278557600080fd5b823561279081612740565b946020939093013593505050565b6000806000606084860312156127b357600080fd5b83356127be81612740565b925060208401356127ce81612740565b929592945050506040919091013590565b6000602082840312156127f157600080fd5b5035919050565b634e487b7160e01b600052604160045260246000fd5b600082601f83011261281f57600080fd5b813567ffffffffffffffff8082111561283a5761283a6127f8565b604051601f8301601f19908116603f01168101908282118183101715612862576128626127f8565b8160405283815286602085880101111561287b57600080fd5b836020870160208301376000602085830101528094505050505092915050565b6000806000606084860312156128b057600080fd5b83356128bb81612740565b9250602084013567ffffffffffffffff808211156128d857600080fd5b6128e48783880161280e565b935060408601359150808211156128fa57600080fd5b506129078682870161280e565b9150509250925092565b6000806040838503121561292457600080fd5b823561292f81612740565b9150602083013561293f81612740565b809150509250929050565b600181811c9082168061295e57607f821691505b6020821081036106ff57634e487b7160e01b600052602260045260246000fd5b60006020828403121561299057600080fd5b815180151581146116ae57600080fd5b7f416363657373436f6e74726f6c3a206163636f756e74200000000000000000008152600083516129d88160178501602088016126e9565b7001034b99036b4b9b9b4b733903937b6329607d1b6017918401918201528351612a098160288401602088016126e9565b01602801949350505050565b634e487b7160e01b600052601160045260246000fd5b8181038181111561064157610641612a15565b634e487b7160e01b600052603260045260246000fd5b8082018082111561064157610641612a15565b600081612a7657612a76612a15565b506000190190565b600060208284031215612a9057600080fd5b5051919050565b6020808252818101527f476f7665726e616e6365546f6b656e3a20307830206e6f7420616c6c6f776564604082015260600190565b6000816000190483118215151615612ae657612ae6612a15565b500290565b6020808252602b908201527f496e697469616c697a61626c653a20636f6e7472616374206973206e6f74206960408201526a6e697469616c697a696e6760a81b606082015260800190565b601f82111561062857600081815260208120601f850160051c81016020861015612b5d5750805b601f850160051c820191505b81811015612b7c57828155600101612b69565b505050505050565b815167ffffffffffffffff811115612b9e57612b9e6127f8565b612bb281612bac845461294a565b84612b36565b602080601f831160018114612be75760008415612bcf5750858301515b600019600386901b1c1916600185901b178555612b7c565b600085815260208120601f198616915b82811015612c1657888601518255948401946001909101908401612bf7565b5085821015612c345787850151600019600388901b60f8161c191681555b5050505050600190811b01905550565b600082612c6157634e487b7160e01b600052601260045260246000fd5b50049056fe395f08be531c0d7403cba7c5ffd2b57329184452bcebcd6a48299ebbbf39db6f97667070c54ef182b0f5858b034beac1b6f3089aa2d3188bb1e8929f4fa9b929a2646970667358221220f15d6b71550a751f1bde12ea44fec3f9ab2ede96c0c6bc16292c35983e76fc2564736f6c63430008100033",
  "linkReferences": {},
  "deployedLinkReferences": {}
}