{
  "_format": "hh-sol-artifact-1",
  "contractName": "InternalMarket",
  "sourceName": "contracts/InternalMarket/InternalMarket.sol",
  "abi": [
    {
      "inputs": [],
      "stateMutability": "nonpayable",
      "type": "constructor"
    },
    {
      "anonymous": false,
      "inputs": [
        {
          "indexed": false,
          "internalType": "uint8",
          "name": "version",
          "type": "uint8"
        }
      ],
      "name": "Initialized",
      "type": "event"
    },
    {
      "anonymous": false,
      "inputs": [
        {
          "indexed": false,
          "internalType": "uint128",
          "name": "id",
          "type": "uint128"
        },
        {
          "indexed": false,
          "internalType": "address",
          "name": "from",
          "type": "address"
        },
        {
          "indexed": false,
          "internalType": "uint256",
          "name": "amount",
          "type": "uint256"
        },
        {
          "indexed": false,
          "internalType": "uint256",
          "name": "expiredAt",
          "type": "uint256"
        }
      ],
      "name": "OfferCreated",
      "type": "event"
    },
    {
      "anonymous": false,
      "inputs": [
        {
          "indexed": false,
          "internalType": "uint128",
          "name": "id",
          "type": "uint128"
        },
        {
          "indexed": false,
          "internalType": "address",
          "name": "from",
          "type": "address"
        },
        {
          "indexed": false,
          "internalType": "address",
          "name": "to",
          "type": "address"
        },
        {
          "indexed": false,
          "internalType": "uint256",
          "name": "amount",
          "type": "uint256"
        }
      ],
      "name": "OfferMatched",
      "type": "event"
    },
    {
      "anonymous": false,
      "inputs": [
        {
          "indexed": false,
          "internalType": "address",
          "name": "from",
          "type": "address"
        },
        {
          "indexed": false,
          "internalType": "address",
          "name": "to",
          "type": "address"
        },
        {
          "indexed": false,
          "internalType": "uint256",
          "name": "amount",
          "type": "uint256"
        }
      ],
      "name": "Withdrawn",
      "type": "event"
    },
    {
      "inputs": [
        {
          "internalType": "uint256",
          "name": "amount",
          "type": "uint256"
        }
      ],
      "name": "deposit",
      "outputs": [],
      "stateMutability": "nonpayable",
      "type": "function"
    },
    {
      "inputs": [],
      "name": "exchangeToken",
      "outputs": [
        {
          "internalType": "contract ERC20",
          "name": "",
          "type": "address"
        }
      ],
      "stateMutability": "view",
      "type": "function"
    },
    {
      "inputs": [],
      "name": "finalizeDeposit",
      "outputs": [],
      "stateMutability": "nonpayable",
      "type": "function"
    },
    {
      "inputs": [],
      "name": "getRoles",
      "outputs": [
        {
          "internalType": "contract DAORoles",
          "name": "",
          "type": "address"
        }
      ],
      "stateMutability": "view",
      "type": "function"
    },
    {
      "inputs": [
        {
          "internalType": "contract DAORoles",
          "name": "roles",
          "type": "address"
        },
        {
          "internalType": "contract IGovernanceToken",
          "name": "governanceToken",
          "type": "address"
        }
      ],
      "name": "initialize",
      "outputs": [],
      "stateMutability": "nonpayable",
      "type": "function"
    },
    {
      "inputs": [
        {
          "internalType": "uint256",
          "name": "amount",
          "type": "uint256"
        }
      ],
      "name": "makeOffer",
      "outputs": [],
      "stateMutability": "nonpayable",
      "type": "function"
    },
    {
      "inputs": [
        {
          "internalType": "address",
          "name": "account",
          "type": "address"
        },
        {
          "internalType": "uint256",
          "name": "amount",
          "type": "uint256"
        }
      ],
      "name": "matchOffer",
      "outputs": [],
      "stateMutability": "nonpayable",
      "type": "function"
    },
    {
      "inputs": [],
      "name": "offerDuration",
      "outputs": [
        {
          "internalType": "uint256",
          "name": "",
          "type": "uint256"
        }
      ],
      "stateMutability": "view",
      "type": "function"
    },
    {
      "inputs": [
        {
          "internalType": "address",
          "name": "account",
          "type": "address"
        }
      ],
      "name": "offeredBalanceOf",
      "outputs": [
        {
          "internalType": "uint256",
          "name": "",
          "type": "uint256"
        }
      ],
      "stateMutability": "view",
      "type": "function"
    },
    {
      "inputs": [],
      "name": "priceOracle",
      "outputs": [
        {
          "internalType": "contract IDIAOracleV2",
          "name": "",
          "type": "address"
        }
      ],
      "stateMutability": "view",
      "type": "function"
    },
    {
      "inputs": [
        {
          "internalType": "uint256",
          "name": "amount",
          "type": "uint256"
        }
      ],
      "name": "redeem",
      "outputs": [],
      "stateMutability": "nonpayable",
      "type": "function"
    },
    {
      "inputs": [],
      "name": "redemptionController",
      "outputs": [
        {
          "internalType": "contract IRedemptionController",
          "name": "",
          "type": "address"
        }
      ],
      "stateMutability": "view",
      "type": "function"
    },
    {
      "inputs": [],
      "name": "reserve",
      "outputs": [
        {
          "internalType": "address",
          "name": "",
          "type": "address"
        }
      ],
      "stateMutability": "view",
      "type": "function"
    },
    {
      "inputs": [
        {
          "internalType": "contract ERC20",
          "name": "token",
          "type": "address"
        },
        {
          "internalType": "contract IDIAOracleV2",
          "name": "oracle",
          "type": "address"
        }
      ],
      "name": "setExchangePair",
      "outputs": [],
      "stateMutability": "nonpayable",
      "type": "function"
    },
    {
      "inputs": [
        {
          "internalType": "uint256",
          "name": "duration",
          "type": "uint256"
        }
      ],
      "name": "setOfferDuration",
      "outputs": [],
      "stateMutability": "nonpayable",
      "type": "function"
    },
    {
      "inputs": [
        {
          "internalType": "contract IRedemptionController",
          "name": "redemptionController_",
          "type": "address"
        }
      ],
      "name": "setRedemptionController",
      "outputs": [],
      "stateMutability": "nonpayable",
      "type": "function"
    },
    {
      "inputs": [
        {
          "internalType": "address",
          "name": "reserve_",
          "type": "address"
        }
      ],
      "name": "setReserve",
      "outputs": [],
      "stateMutability": "nonpayable",
      "type": "function"
    },
    {
      "inputs": [
        {
          "internalType": "contract DAORoles",
          "name": "roles",
          "type": "address"
        }
      ],
      "name": "setRoles",
      "outputs": [],
      "stateMutability": "nonpayable",
      "type": "function"
    },
    {
      "inputs": [
        {
          "internalType": "contract IShareholderRegistry",
          "name": "shareholderRegistry",
          "type": "address"
        }
      ],
      "name": "setShareholderRegistry",
      "outputs": [],
      "stateMutability": "nonpayable",
      "type": "function"
    },
    {
      "inputs": [
        {
          "internalType": "contract IGovernanceToken",
          "name": "token",
          "type": "address"
        }
      ],
      "name": "setTokenInternal",
      "outputs": [],
      "stateMutability": "nonpayable",
      "type": "function"
    },
    {
      "inputs": [],
      "name": "tokenInternal",
      "outputs": [
        {
          "internalType": "contract IGovernanceToken",
          "name": "",
          "type": "address"
        }
      ],
      "stateMutability": "view",
      "type": "function"
    },
    {
      "inputs": [
        {
          "internalType": "address",
          "name": "to",
          "type": "address"
        },
        {
          "internalType": "uint256",
          "name": "amount",
          "type": "uint256"
        }
      ],
      "name": "withdraw",
      "outputs": [],
      "stateMutability": "nonpayable",
      "type": "function"
    },
    {
      "inputs": [
        {
          "internalType": "address",
          "name": "account",
          "type": "address"
        }
      ],
      "name": "withdrawableBalanceOf",
      "outputs": [
        {
          "internalType": "uint256",
          "name": "",
          "type": "uint256"
        }
      ],
      "stateMutability": "view",
      "type": "function"
    }
  ],
  "bytecode": "0x60806040523480156200001157600080fd5b50600054610100900460ff1615808015620000335750600054600160ff909116105b8062000063575062000050306200013d60201b62000b321760201c565b15801562000063575060005460ff166001145b620000cb5760405162461bcd60e51b815260206004820152602e60248201527f496e697469616c697a61626c653a20636f6e747261637420697320616c72656160448201526d191e481a5b9a5d1a585b1a5e995960921b606482015260840160405180910390fd5b6000805460ff191660011790558015620000ef576000805461ff0019166101001790555b801562000136576000805461ff0019169055604051600181527f7f26b83ff96e1f2b6a682f133852f6798a09c465da95921460cefb38474024989060200160405180910390a15b506200014c565b6001600160a01b03163b151590565b612231806200015c6000396000f3fe608060405234801561001057600080fd5b506004361061014d5760003560e01c80639b04e88d116100c3578063bd62869a1161007c578063bd62869a146102b5578063cd3293de146102be578063cfe63ddf146102d1578063d5728c20146102e4578063db006a75146102f7578063f3fef3a31461030a57600080fd5b80639b04e88d146102435780639cecc80a146102565780639d5320f414610269578063a25eb5d91461027c578063a260b1021461028f578063b6b55f25146102a257600080fd5b80633aa6c4f9116101155780633aa6c4f9146101d0578063485cc955146101f157806358445473146102045780635b24e80614610217578063710613981461021f5780639a2f64741461023057600080fd5b806309031db6146101525780631378b62e1461016757806322b413e51461017a57806325e0635b1461018d5780632630c12f146101bd575b600080fd5b610165610160366004611cf1565b61031d565b005b610165610175366004611d0e565b61041e565b610165610188366004611d27565b6104bd565b6034546101a0906001600160a01b031681565b6040516001600160a01b0390911681526020015b60405180910390f35b6037546101a0906001600160a01b031681565b6101e36101de366004611cf1565b6104cc565b6040519081526020016101b4565b6101656101ff366004611d53565b6104e0565b610165610212366004611cf1565b610652565b610165610731565b6033546001600160a01b03166101a0565b61016561023e366004611d0e565b61073c565b610165610251366004611cf1565b610749565b610165610264366004611cf1565b610826565b6036546101a0906001600160a01b031681565b6035546101a0906001600160a01b031681565b61016561029d366004611cf1565b610903565b6101656102b0366004611d0e565b6109e0565b6101e3603a5481565b6039546101a0906001600160a01b031681565b6101e36102df366004611cf1565b6109ea565b6101656102f2366004611d53565b6109fe565b610165610305366004611d0e565b610b1d565b610165610318366004611d27565b610b27565b7f97667070c54ef182b0f5858b034beac1b6f3089aa2d3188bb1e8929f4fa9b929600033603354604051632474521560e21b8152600481018590526001600160a01b0380841660248301529293509116906391d1485490604401602060405180830381865afa158015610394573d6000803e3d6000fd5b505050506040513d601f19601f820116820180604052508101906103b89190611d8c565b610410576103c581610b41565b6103d0836020610b5d565b6040516020016103e1929190611dd2565b60408051601f198184030181529082905262461bcd60e51b825261040791600401611e47565b60405180910390fd5b61041983610d00565b505050565b6000805160206121dc833981519152600033603354604051632474521560e21b8152600481018590526001600160a01b0380841660248301529293509116906391d1485490604401602060405180830381865afa158015610483573d6000803e3d6000fd5b505050506040513d601f19601f820116820180604052508101906104a79190611d8c565b6104b4576103c581610b41565b61041983603a55565b6104c8823383610d22565b5050565b6000806104d883610e59565b949350505050565b600054610100900460ff16158080156105005750600054600160ff909116105b8061051a5750303b15801561051a575060005460ff166001145b61057d5760405162461bcd60e51b815260206004820152602e60248201527f496e697469616c697a61626c653a20636f6e747261637420697320616c72656160448201526d191e481a5b9a5d1a585b1a5e995960921b6064820152608401610407565b6000805460ff1916600117905580156105a0576000805461ff0019166101001790555b6001600160a01b038316158015906105c057506001600160a01b03821615155b6105dc5760405162461bcd60e51b815260040161040790611e7a565b603480546001600160a01b0319166001600160a01b03841617905562093a80603a5561060783610d00565b8015610419576000805461ff0019169055604051600181527f7f26b83ff96e1f2b6a682f133852f6798a09c465da95921460cefb3847402498906020015b60405180910390a1505050565b6000805160206121dc833981519152600033603354604051632474521560e21b8152600481018590526001600160a01b0380841660248301529293509116906391d1485490604401602060405180830381865afa1580156106b7573d6000803e3d6000fd5b505050506040513d601f19601f820116820180604052508101906106db9190611d8c565b6106e8576103c581610b41565b826001600160a01b03811661070f5760405162461bcd60e51b815260040161040790611e7a565b603480546001600160a01b0319166001600160a01b0386161790555b50505050565b61073a33610f0b565b565b6107463382610f6d565b50565b6000805160206121dc833981519152600033603354604051632474521560e21b8152600481018590526001600160a01b0380841660248301529293509116906391d1485490604401602060405180830381865afa1580156107ae573d6000803e3d6000fd5b505050506040513d601f19601f820116820180604052508101906107d29190611d8c565b6107df576103c581610b41565b826001600160a01b0381166108065760405162461bcd60e51b815260040161040790611e7a565b603680546001600160a01b0319166001600160a01b03861617905561072b565b6000805160206121dc833981519152600033603354604051632474521560e21b8152600481018590526001600160a01b0380841660248301529293509116906391d1485490604401602060405180830381865afa15801561088b573d6000803e3d6000fd5b505050506040513d601f19601f820116820180604052508101906108af9190611d8c565b6108bc576103c581610b41565b826001600160a01b0381166108e35760405162461bcd60e51b815260040161040790611e7a565b603980546001600160a01b0319166001600160a01b03861617905561072b565b6000805160206121dc833981519152600033603354604051632474521560e21b8152600481018590526001600160a01b0380841660248301529293509116906391d1485490604401602060405180830381865afa158015610968573d6000803e3d6000fd5b505050506040513d601f19601f8201168201806040525081019061098c9190611d8c565b610999576103c581610b41565b826001600160a01b0381166109c05760405162461bcd60e51b815260040161040790611e7a565b603880546001600160a01b0319166001600160a01b03861617905561072b565b610746338261114b565b6000806109f683610e59565b509392505050565b6000805160206121dc833981519152600033603354604051632474521560e21b8152600481018590526001600160a01b0380841660248301529293509116906391d1485490604401602060405180830381865afa158015610a63573d6000803e3d6000fd5b505050506040513d601f19601f82011682018060405250810190610a879190611d8c565b610a94576103c581610b41565b836001600160a01b038116610abb5760405162461bcd60e51b815260040161040790611e7a565b836001600160a01b038116610ae25760405162461bcd60e51b815260040161040790611e7a565b610b158686603580546001600160a01b039384166001600160a01b03199182161790915560378054929093169116179055565b505050505050565b61074633826111ae565b6104c833838361135c565b6001600160a01b03163b151590565b6060610b576001600160a01b0383166014610b5d565b92915050565b60606000610b6c836002611ec7565b610b77906002611ee6565b67ffffffffffffffff811115610b8f57610b8f611ef9565b6040519080825280601f01601f191660200182016040528015610bb9576020820181803683370190505b509050600360fc1b81600081518110610bd457610bd4611f0f565b60200101906001600160f81b031916908160001a905350600f60fb1b81600181518110610c0357610c03611f0f565b60200101906001600160f81b031916908160001a9053506000610c27846002611ec7565b610c32906001611ee6565b90505b6001811115610caa576f181899199a1a9b1b9c1cb0b131b232b360811b85600f1660108110610c6657610c66611f0f565b1a60f81b828281518110610c7c57610c7c611f0f565b60200101906001600160f81b031916908160001a90535060049490941c93610ca381611f25565b9050610c35565b508315610cf95760405162461bcd60e51b815260206004820181905260248201527f537472696e67733a20686578206c656e67746820696e73756666696369656e746044820152606401610407565b9392505050565b603380546001600160a01b0319166001600160a01b0392909216919091179055565b610d2d838383611555565b60345460405163a9059cbb60e01b81526001600160a01b038481166004830152602482018490529091169063a9059cbb906044016020604051808303816000875af1158015610d80573d6000803e3d6000fd5b505050506040513d601f19601f82011682018060405250810190610da49190611d8c565b610dc05760405162461bcd60e51b815260040161040790611f3c565b6035546001600160a01b03166323b872dd8385610ddc856117c6565b6040518463ffffffff1660e01b8152600401610dfa93929190611f7f565b6020604051808303816000875af1158015610e19573d6000803e3d6000fd5b505050506040513d601f19601f82011682018060405250810190610e3d9190611d8c565b6104195760405162461bcd60e51b815260040161040790611f3c565b6001600160a01b0381166000908152603b60209081526040808320603c90925282205481548392919083906001600160801b03165b83546001600160801b03600160801b90910481169082161015610ef3576001600160801b038116600090815260018501602052604090208054421015610ee0576001810154610edd9084611ee6565b92505b5080610eeb81611fa3565b915050610e8e565b5080610eff8184611fc9565b94509450505050915091565b6034546040516301ce239b60e61b81526001600160a01b03838116600483015290911690637388e6c090602401600060405180830381600087803b158015610f5257600080fd5b505af1158015610f66573d6000803e3d6000fd5b5050505050565b6001600160a01b0382166000908152603c602052604081208054839290610f95908490611ee6565b9091555050603a54600090610faa9042611ee6565b90506000610ff0603b6000866001600160a01b03166001600160a01b0316815260200190815260200160002060405180604001604052808581526020018681525061199c565b604080516001600160801b03831681526001600160a01b0387166020820152908101859052606081018490529091507fbc9e56cae6351f41cd4be50fc6e8ff4e5c6994d27010448a584ee9f845e89e109060800160405180910390a16034546040516323b872dd60e01b81526001600160a01b03909116906323b872dd9061108090879030908890600401611f7f565b6020604051808303816000875af115801561109f573d6000803e3d6000fd5b505050506040513d601f19601f820116820180604052508101906110c39190611d8c565b6110df5760405162461bcd60e51b815260040161040790611f3c565b603654604051636d1fc97160e01b81526001600160a01b0386811660048301526024820186905290911690636d1fc97190604401600060405180830381600087803b15801561112d57600080fd5b505af1158015611141573d6000803e3d6000fd5b5050505050505050565b603454604051635f9bb63d60e11b81526001600160a01b038481166004830152602482018490529091169063bf376c7a906044015b600060405180830381600087803b15801561119a57600080fd5b505af1158015610b15573d6000803e3d6000fd5b60006111b9836104cc565b9050818110156112475760006111cf8284611fc9565b603454604051632770a7eb60e21b81526001600160a01b03878116600483015260248201849052929350911690639dc29fac90604401600060405180830381600087803b15801561121f57600080fd5b505af1158015611233573d6000803e3d6000fd5b505050506112418483611a0e565b50611251565b6112518383611a0e565b6035546039546001600160a01b03918216916323b872dd911685611274866117c6565b6040518463ffffffff1660e01b815260040161129293929190611f7f565b6020604051808303816000875af11580156112b1573d6000803e3d6000fd5b505050506040513d601f19601f820116820180604052508101906112d59190611d8c565b6112f15760405162461bcd60e51b815260040161040790611f3c565b60365460405163cabe6a3160e01b81526001600160a01b038581166004830152602482018590529091169063cabe6a3190604401600060405180830381600087803b15801561133f57600080fd5b505af1158015611353573d6000803e3d6000fd5b50505050505050565b60385460408051633bef226f60e21b815290516001600160a01b0390921691630ea018f791839163efbc89bc916004808201926020929091908290030181865afa1580156113ae573d6000803e3d6000fd5b505050506040513d601f19601f820116820180604052508101906113d29190611fdc565b6040516001600160e01b031960e084901b16815260048101919091526001600160a01b0386166024820152604401602060405180830381865afa15801561141d573d6000803e3d6000fd5b505050506040513d601f19601f820116820180604052508101906114419190611d8c565b156114bb576114508382611b40565b603454604051638cc7104f60e01b81526001600160a01b0390911690638cc7104f9061148490309086908690600401611f7f565b600060405180830381600087803b15801561149e57600080fd5b505af11580156114b2573d6000803e3d6000fd5b50505050611522565b603454604051638cc7104f60e01b81526001600160a01b0390911690638cc7104f906114ef90869086908690600401611f7f565b600060405180830381600087803b15801561150957600080fd5b505af115801561151d573d6000803e3d6000fd5b505050505b7fd1c19fbcd4551a5edfb66d43d2e337c04837afda3482b42bdf569a8fccdae5fb83838360405161064593929190611f7f565b6001600160a01b0383166000908152603b6020526040902080546001600160801b03165b81546001600160801b03600160801b909104811690821610801561159d5750600083115b1561176b576001600160801b038116600090815260018301602052604090208054421061162157825460018401906000906001600160801b031685826115e283611fa3565b82546101009290920a6001600160801b038181021990931691831602179091551681526020810191909152604001600090812081815560010155611758565b806001015484106116cf57600181015461163b9085611fc9565b60018201546001600160a01b0388166000908152603c602052604081208054939750919261166a908490611fc9565b909155505060018101546040517fd0d70de2baa99922b89d5f189e78194a3d56c616aaf58fa941a374228aec3d08916116a99185918a918a9190611ff5565b60405180910390a1825460018401906000906001600160801b031685826115e283611fa3565b838160010160008282546116e39190611fc9565b90915550506001600160a01b0386166000908152603c602052604081208054869290611710908490611fc9565b90915550506040517fd0d70de2baa99922b89d5f189e78194a3d56c616aaf58fa941a374228aec3d089061174b908490899089908990611ff5565b60405180910390a1600093505b508061176381611fa3565b915050611579565b50811561072b5760405162461bcd60e51b8152602060048201526024808201527f496e7465726e616c4d61726b65743a20616d6f756e742065786365656473206f604482015263333332b960e11b6064820152608401610407565b6037546040516304b01c2560e51b81526020600482015260076024820152661155548bd554d160ca1b604482015260009182916001600160a01b039091169063960384a0906064016040805180830381865afa15801561182a573d6000803e3d6000fd5b505050506040513d601f19601f8201168201806040525081019061184e9190612041565b506037546040516304b01c2560e51b81526020600482015260086024820152671554d110cbd554d160c21b60448201526001600160801b039290921692506000916001600160a01b039091169063960384a0906064016040805180830381865afa1580156118c0573d6000803e3d6000fd5b505050506040513d601f19601f820116820180604052508101906118e49190612041565b506001600160801b03169050603560009054906101000a90046001600160a01b03166001600160a01b031663313ce5676040518163ffffffff1660e01b8152600401602060405180830381865afa158015611943573d6000803e3d6000fd5b505050506040513d601f19601f820116820180604052508101906119679190612074565b611972906012612097565b61197d90600a612194565b816119888487611ec7565b61199291906121a3565b6104d891906121a3565b81546001600160801b03600160801b918290048116600090815260018086016020908152604083208651815590860151910155845490929004168360106119e283611fa3565b91906101000a8154816001600160801b0302191690836001600160801b03160217905550905092915050565b60385460408051633bef226f60e21b815290516001600160a01b0390921691630ea018f791839163efbc89bc916004808201926020929091908290030181865afa158015611a60573d6000803e3d6000fd5b505050506040513d601f19601f82011682018060405250810190611a849190611fdc565b6040516001600160e01b031960e084901b16815260048101919091526001600160a01b0385166024820152604401602060405180830381865afa158015611acf573d6000803e3d6000fd5b505050506040513d601f19601f82011682018060405250810190611af39190611d8c565b611aff57611aff6121c5565b611b098282611b40565b603454604051632770a7eb60e21b8152306004820152602481018390526001600160a01b0390911690639dc29fac90604401611180565b6001600160a01b0382166000908152603b6020526040812080549091906001600160801b03165b82546001600160801b03600160801b90910481169082161015611c28576001600160801b0381166000908152600184016020526040902080544210611c0357835460018501906000906001600160801b03168682611bc483611fa3565b82546101009290920a6001600160801b038181021990931691831602179091551681526020810191909152604001600090812081815560010155611c15565b6001810154611c129084611ee6565b92505b5080611c2081611fa3565b915050611b67565b50611c338382611ee6565b6001600160a01b0385166000908152603c60205260409020541015611ca95760405162461bcd60e51b815260206004820152602660248201527f496e7465726e616c4d61726b65743a20616d6f756e7420657863656564732062604482015265616c616e636560d01b6064820152608401610407565b6001600160a01b0384166000908152603c602052604081208054859290611cd1908490611fc9565b909155505050505050565b6001600160a01b038116811461074657600080fd5b600060208284031215611d0357600080fd5b8135610cf981611cdc565b600060208284031215611d2057600080fd5b5035919050565b60008060408385031215611d3a57600080fd5b8235611d4581611cdc565b946020939093013593505050565b60008060408385031215611d6657600080fd5b8235611d7181611cdc565b91506020830135611d8181611cdc565b809150509250929050565b600060208284031215611d9e57600080fd5b81518015158114610cf957600080fd5b60005b83811015611dc9578181015183820152602001611db1565b50506000910152565b7f416363657373436f6e74726f6c3a206163636f756e7420000000000000000000815260008351611e0a816017850160208801611dae565b7001034b99036b4b9b9b4b733903937b6329607d1b6017918401918201528351611e3b816028840160208801611dae565b01602801949350505050565b6020815260008251806020840152611e66816040850160208701611dae565b601f01601f19169190910160400192915050565b6020808252601f908201527f496e7465726e616c4d61726b65743a20307830206e6f7420616c6c6f77656400604082015260600190565b634e487b7160e01b600052601160045260246000fd5b6000816000190483118215151615611ee157611ee1611eb1565b500290565b80820180821115610b5757610b57611eb1565b634e487b7160e01b600052604160045260246000fd5b634e487b7160e01b600052603260045260246000fd5b600081611f3457611f34611eb1565b506000190190565b60208082526023908201527f496e7465726e616c4d61726b6574426173653a207472616e73666572206661696040820152621b195960ea1b606082015260800190565b6001600160a01b039384168152919092166020820152604081019190915260600190565b60006001600160801b03808316818103611fbf57611fbf611eb1565b6001019392505050565b81810381811115610b5757610b57611eb1565b600060208284031215611fee57600080fd5b5051919050565b6001600160801b039490941684526001600160a01b03928316602085015291166040830152606082015260800190565b80516001600160801b038116811461203c57600080fd5b919050565b6000806040838503121561205457600080fd5b61205d83612025565b915061206b60208401612025565b90509250929050565b60006020828403121561208657600080fd5b815160ff81168114610cf957600080fd5b60ff8281168282160390811115610b5757610b57611eb1565b600181815b808511156120eb5781600019048211156120d1576120d1611eb1565b808516156120de57918102915b93841c93908002906120b5565b509250929050565b60008261210257506001610b57565b8161210f57506000610b57565b8160018114612125576002811461212f5761214b565b6001915050610b57565b60ff84111561214057612140611eb1565b50506001821b610b57565b5060208310610133831016604e8410600b841016171561216e575081810a610b57565b61217883836120b0565b806000190482111561218c5761218c611eb1565b029392505050565b6000610cf960ff8416836120f3565b6000826121c057634e487b7160e01b600052601260045260246000fd5b500490565b634e487b7160e01b600052600160045260246000fdfe7b97752341782019d21e7c1027eedcd270e56f5b672dcc28d53bf58a346002fca2646970667358221220cac4c9e20a75c37586dec61bdc78bcedbed82bb80ef4654741f175438823c36b64736f6c63430008100033",
  "linkReferences": {},
  "deployedLinkReferences": {}
}