{
  "_format": "hh-sol-artifact-1",
  "contractName": "InternalMarket",
  "sourceName": "contracts/InternalMarket/InternalMarket.sol",
  "abi": [
    {
      "inputs": [],
      "stateMutability": "nonpayable",
      "type": "constructor"
    },
    {
      "anonymous": false,
      "inputs": [
        {
          "indexed": false,
          "internalType": "uint8",
          "name": "version",
          "type": "uint8"
        }
      ],
      "name": "Initialized",
      "type": "event"
    },
    {
      "anonymous": false,
      "inputs": [
        {
          "indexed": false,
          "internalType": "uint128",
          "name": "id",
          "type": "uint128"
        },
        {
          "indexed": false,
          "internalType": "address",
          "name": "from",
          "type": "address"
        },
        {
          "indexed": false,
          "internalType": "uint256",
          "name": "amount",
          "type": "uint256"
        },
        {
          "indexed": false,
          "internalType": "uint256",
          "name": "expiredAt",
          "type": "uint256"
        }
      ],
      "name": "OfferCreated",
      "type": "event"
    },
    {
      "anonymous": false,
      "inputs": [
        {
          "indexed": false,
          "internalType": "uint128",
          "name": "id",
          "type": "uint128"
        },
        {
          "indexed": false,
          "internalType": "address",
          "name": "from",
          "type": "address"
        },
        {
          "indexed": false,
          "internalType": "address",
          "name": "to",
          "type": "address"
        },
        {
          "indexed": false,
          "internalType": "uint256",
          "name": "amount",
          "type": "uint256"
        }
      ],
      "name": "OfferMatched",
      "type": "event"
    },
    {
      "inputs": [
        {
          "internalType": "uint256",
          "name": "amount",
          "type": "uint256"
        }
      ],
      "name": "deposit",
      "outputs": [],
      "stateMutability": "nonpayable",
      "type": "function"
    },
    {
      "inputs": [],
      "name": "exchangeToken",
      "outputs": [
        {
          "internalType": "contract ERC20",
          "name": "",
          "type": "address"
        }
      ],
      "stateMutability": "view",
      "type": "function"
    },
    {
      "inputs": [],
      "name": "getRoles",
      "outputs": [
        {
          "internalType": "contract DAORoles",
          "name": "",
          "type": "address"
        }
      ],
      "stateMutability": "view",
      "type": "function"
    },
    {
      "inputs": [
        {
          "internalType": "contract DAORoles",
          "name": "roles",
          "type": "address"
        },
        {
          "internalType": "contract IGovernanceToken",
          "name": "tokenInternal",
          "type": "address"
        }
      ],
      "name": "initialize",
      "outputs": [],
      "stateMutability": "nonpayable",
      "type": "function"
    },
    {
      "inputs": [
        {
          "internalType": "uint256",
          "name": "amount",
          "type": "uint256"
        }
      ],
      "name": "makeOffer",
      "outputs": [],
      "stateMutability": "nonpayable",
      "type": "function"
    },
    {
      "inputs": [
        {
          "internalType": "address",
          "name": "account",
          "type": "address"
        },
        {
          "internalType": "uint256",
          "name": "amount",
          "type": "uint256"
        }
      ],
      "name": "matchOffer",
      "outputs": [],
      "stateMutability": "nonpayable",
      "type": "function"
    },
    {
      "inputs": [],
      "name": "offerDuration",
      "outputs": [
        {
          "internalType": "uint256",
          "name": "",
          "type": "uint256"
        }
      ],
      "stateMutability": "view",
      "type": "function"
    },
    {
      "inputs": [
        {
          "internalType": "address",
          "name": "account",
          "type": "address"
        }
      ],
      "name": "offeredBalanceOf",
      "outputs": [
        {
          "internalType": "uint256",
          "name": "",
          "type": "uint256"
        }
      ],
      "stateMutability": "view",
      "type": "function"
    },
    {
      "inputs": [],
      "name": "priceOracle",
      "outputs": [
        {
          "internalType": "contract IStdReference",
          "name": "",
          "type": "address"
        }
      ],
      "stateMutability": "view",
      "type": "function"
    },
    {
      "inputs": [
        {
          "internalType": "uint256",
          "name": "amount",
          "type": "uint256"
        }
      ],
      "name": "redeem",
      "outputs": [],
      "stateMutability": "nonpayable",
      "type": "function"
    },
    {
      "inputs": [],
      "name": "redemptionController",
      "outputs": [
        {
          "internalType": "contract IRedemptionController",
          "name": "",
          "type": "address"
        }
      ],
      "stateMutability": "view",
      "type": "function"
    },
    {
      "inputs": [],
      "name": "reserve",
      "outputs": [
        {
          "internalType": "address",
          "name": "",
          "type": "address"
        }
      ],
      "stateMutability": "view",
      "type": "function"
    },
    {
      "inputs": [
        {
          "internalType": "contract ERC20",
          "name": "token",
          "type": "address"
        },
        {
          "internalType": "contract IStdReference",
          "name": "oracle",
          "type": "address"
        }
      ],
      "name": "setExchangePair",
      "outputs": [],
      "stateMutability": "nonpayable",
      "type": "function"
    },
    {
      "inputs": [
        {
          "internalType": "contract IGovernanceToken",
          "name": "token",
          "type": "address"
        }
      ],
      "name": "setInternalToken",
      "outputs": [],
      "stateMutability": "nonpayable",
      "type": "function"
    },
    {
      "inputs": [
        {
          "internalType": "uint256",
          "name": "duration",
          "type": "uint256"
        }
      ],
      "name": "setOfferDuration",
      "outputs": [],
      "stateMutability": "nonpayable",
      "type": "function"
    },
    {
      "inputs": [
        {
          "internalType": "contract IRedemptionController",
          "name": "redemptionController_",
          "type": "address"
        }
      ],
      "name": "setRedemptionController",
      "outputs": [],
      "stateMutability": "nonpayable",
      "type": "function"
    },
    {
      "inputs": [
        {
          "internalType": "address",
          "name": "reserve_",
          "type": "address"
        }
      ],
      "name": "setReserve",
      "outputs": [],
      "stateMutability": "nonpayable",
      "type": "function"
    },
    {
      "inputs": [
        {
          "internalType": "contract DAORoles",
          "name": "roles",
          "type": "address"
        }
      ],
      "name": "setRoles",
      "outputs": [],
      "stateMutability": "nonpayable",
      "type": "function"
    },
    {
      "inputs": [
        {
          "internalType": "contract IShareholderRegistry",
          "name": "shareholderRegistry",
          "type": "address"
        }
      ],
      "name": "setShareholderRegistry",
      "outputs": [],
      "stateMutability": "nonpayable",
      "type": "function"
    },
    {
      "inputs": [],
      "name": "tokenInternal",
      "outputs": [
        {
          "internalType": "contract IGovernanceToken",
          "name": "",
          "type": "address"
        }
      ],
      "stateMutability": "view",
      "type": "function"
    },
    {
      "inputs": [
        {
          "internalType": "address",
          "name": "to",
          "type": "address"
        },
        {
          "internalType": "uint256",
          "name": "amount",
          "type": "uint256"
        }
      ],
      "name": "withdraw",
      "outputs": [],
      "stateMutability": "nonpayable",
      "type": "function"
    },
    {
      "inputs": [
        {
          "internalType": "address",
          "name": "account",
          "type": "address"
        }
      ],
      "name": "withdrawableBalanceOf",
      "outputs": [
        {
          "internalType": "uint256",
          "name": "",
          "type": "uint256"
        }
      ],
      "stateMutability": "view",
      "type": "function"
    }
  ],
  "bytecode": "0x608060405234801561001057600080fd5b50600054610100900460ff16158080156100315750600054600160ff909116105b8061004b5750303b15801561004b575060005460ff166001145b6100b25760405162461bcd60e51b815260206004820152602e60248201527f496e697469616c697a61626c653a20636f6e747261637420697320616c72656160448201526d191e481a5b9a5d1a585b1a5e995960921b606482015260840160405180910390fd5b6000805460ff1916600117905580156100d5576000805461ff0019166101001790555b801561011b576000805461ff0019169055604051600181527f7f26b83ff96e1f2b6a682f133852f6798a09c465da95921460cefb38474024989060200160405180910390a15b50612011806200012c6000396000f3fe608060405234801561001057600080fd5b50600436106101425760003560e01c80639cecc80a116100b8578063bd62869a1161007c578063bd62869a146102a2578063cd3293de146102ab578063cfe63ddf146102be578063d5728c20146102d1578063db006a75146102e4578063f3fef3a3146102f757600080fd5b80639cecc80a146102435780639d5320f414610256578063a25eb5d914610269578063a260b1021461027c578063b6b55f251461028f57600080fd5b80633aa6c4f91161010a5780633aa6c4f9146101c5578063485cc955146101e657806371061398146101f9578063763ee4c41461020a5780639a2f64741461021d5780639b04e88d1461023057600080fd5b806309031db6146101475780631378b62e1461015c57806322b413e51461016f57806325e0635b146101825780632630c12f146101b2575b600080fd5b61015a610155366004611a7a565b61030a565b005b61015a61016a366004611a97565b61040b565b61015a61017d366004611ab0565b6104aa565b603454610195906001600160a01b031681565b6040516001600160a01b0390911681526020015b60405180910390f35b603754610195906001600160a01b031681565b6101d86101d3366004611a7a565b6104b9565b6040519081526020016101a9565b61015a6101f4366004611adc565b6104cd565b6033546001600160a01b0316610195565b61015a610218366004611a7a565b610602565b61015a61022b366004611a97565b6106b8565b61015a61023e366004611a7a565b6106c5565b61015a610251366004611a7a565b61077b565b603654610195906001600160a01b031681565b603554610195906001600160a01b031681565b61015a61028a366004611a7a565b610831565b61015a61029d366004611a97565b6108e7565b6101d8603a5481565b603954610195906001600160a01b031681565b6101d86102cc366004611a7a565b6108f1565b61015a6102df366004611adc565b610905565b61015a6102f2366004611a97565b6109d4565b61015a610305366004611ab0565b6109de565b7f97667070c54ef182b0f5858b034beac1b6f3089aa2d3188bb1e8929f4fa9b929600033603354604051632474521560e21b8152600481018590526001600160a01b0380841660248301529293509116906391d1485490604401602060405180830381865afa158015610381573d6000803e3d6000fd5b505050506040513d601f19601f820116820180604052508101906103a59190611b15565b6103fd576103b2816109e9565b6103bd836020610a05565b6040516020016103ce929190611b5b565b60408051601f198184030181529082905262461bcd60e51b82526103f491600401611bd0565b60405180910390fd5b61040683610ba8565b505050565b600080516020611fbc833981519152600033603354604051632474521560e21b8152600481018590526001600160a01b0380841660248301529293509116906391d1485490604401602060405180830381865afa158015610470573d6000803e3d6000fd5b505050506040513d601f19601f820116820180604052508101906104949190611b15565b6104a1576103b2816109e9565b61040683603a55565b6104b5823383610bca565b5050565b6000806104c583610d01565b949350505050565b600054610100900460ff16158080156104ed5750600054600160ff909116105b806105075750303b158015610507575060005460ff166001145b61056a5760405162461bcd60e51b815260206004820152602e60248201527f496e697469616c697a61626c653a20636f6e747261637420697320616c72656160448201526d191e481a5b9a5d1a585b1a5e995960921b60648201526084016103f4565b6000805460ff19166001179055801561058d576000805461ff0019166101001790555b603480546001600160a01b0319166001600160a01b03841617905562093a80603a556105b883610ba8565b8015610406576000805461ff0019169055604051600181527f7f26b83ff96e1f2b6a682f133852f6798a09c465da95921460cefb38474024989060200160405180910390a1505050565b600080516020611fbc833981519152600033603354604051632474521560e21b8152600481018590526001600160a01b0380841660248301529293509116906391d1485490604401602060405180830381865afa158015610667573d6000803e3d6000fd5b505050506040513d601f19601f8201168201806040525081019061068b9190611b15565b610698576103b2816109e9565b603480546001600160a01b0319166001600160a01b038516179055505050565b6106c23382610db1565b50565b600080516020611fbc833981519152600033603354604051632474521560e21b8152600481018590526001600160a01b0380841660248301529293509116906391d1485490604401602060405180830381865afa15801561072a573d6000803e3d6000fd5b505050506040513d601f19601f8201168201806040525081019061074e9190611b15565b61075b576103b2816109e9565b603680546001600160a01b0319166001600160a01b038516179055505050565b600080516020611fbc833981519152600033603354604051632474521560e21b8152600481018590526001600160a01b0380841660248301529293509116906391d1485490604401602060405180830381865afa1580156107e0573d6000803e3d6000fd5b505050506040513d601f19601f820116820180604052508101906108049190611b15565b610811576103b2816109e9565b603980546001600160a01b0319166001600160a01b038516179055505050565b600080516020611fbc833981519152600033603354604051632474521560e21b8152600481018590526001600160a01b0380841660248301529293509116906391d1485490604401602060405180830381865afa158015610896573d6000803e3d6000fd5b505050506040513d601f19601f820116820180604052508101906108ba9190611b15565b6108c7576103b2816109e9565b603880546001600160a01b0319166001600160a01b038516179055505050565b6106c23382610f8f565b6000806108fd83610d01565b509392505050565b600080516020611fbc833981519152600033603354604051632474521560e21b8152600481018590526001600160a01b0380841660248301529293509116906391d1485490604401602060405180830381865afa15801561096a573d6000803e3d6000fd5b505050506040513d601f19601f8201168201806040525081019061098e9190611b15565b61099b576103b2816109e9565b6109ce8484603580546001600160a01b039384166001600160a01b03199182161790915560378054929093169116179055565b50505050565b6106c23382610ffa565b6104b53383836111a9565b60606109ff6001600160a01b0383166014610a05565b92915050565b60606000610a14836002611c19565b610a1f906002611c30565b67ffffffffffffffff811115610a3757610a37611c43565b6040519080825280601f01601f191660200182016040528015610a61576020820181803683370190505b509050600360fc1b81600081518110610a7c57610a7c611c59565b60200101906001600160f81b031916908160001a905350600f60fb1b81600181518110610aab57610aab611c59565b60200101906001600160f81b031916908160001a9053506000610acf846002611c19565b610ada906001611c30565b90505b6001811115610b52576f181899199a1a9b1b9c1cb0b131b232b360811b85600f1660108110610b0e57610b0e611c59565b1a60f81b828281518110610b2457610b24611c59565b60200101906001600160f81b031916908160001a90535060049490941c93610b4b81611c6f565b9050610add565b508315610ba15760405162461bcd60e51b815260206004820181905260248201527f537472696e67733a20686578206c656e67746820696e73756666696369656e7460448201526064016103f4565b9392505050565b603380546001600160a01b0319166001600160a01b0392909216919091179055565b610bd5838383611305565b60345460405163a9059cbb60e01b81526001600160a01b038481166004830152602482018490529091169063a9059cbb906044016020604051808303816000875af1158015610c28573d6000803e3d6000fd5b505050506040513d601f19601f82011682018060405250810190610c4c9190611b15565b610c685760405162461bcd60e51b81526004016103f490611c86565b6035546001600160a01b03166323b872dd8385610c8485611559565b6040518463ffffffff1660e01b8152600401610ca293929190611cc9565b6020604051808303816000875af1158015610cc1573d6000803e3d6000fd5b505050506040513d601f19601f82011682018060405250810190610ce59190611b15565b6104065760405162461bcd60e51b81526004016103f490611c86565b6001600160a01b0381166000908152603b60209081526040808320603c90925282205481548392919083906001600160801b03165b83546001600160801b03600160801b90910481169082161015610d9b576001600160801b038116600090815260018501602052604090208054421115610d88576001810154610d859084611c30565b92505b5080610d9381611ced565b915050610d36565b50610da68183611d13565b969095509350505050565b6001600160a01b0382166000908152603c602052604081208054839290610dd9908490611c30565b9091555050603a54600090610dee9042611c30565b90506000610e34603b6000866001600160a01b03166001600160a01b031681526020019081526020016000206040518060400160405280858152602001868152506116ea565b604080516001600160801b03831681526001600160a01b0387166020820152908101859052606081018490529091507fbc9e56cae6351f41cd4be50fc6e8ff4e5c6994d27010448a584ee9f845e89e109060800160405180910390a16034546040516323b872dd60e01b81526001600160a01b03909116906323b872dd90610ec490879030908890600401611cc9565b6020604051808303816000875af1158015610ee3573d6000803e3d6000fd5b505050506040513d601f19601f82011682018060405250810190610f079190611b15565b610f235760405162461bcd60e51b81526004016103f490611c86565b603654604051636d1fc97160e01b81526001600160a01b0386811660048301526024820186905290911690636d1fc97190604401600060405180830381600087803b158015610f7157600080fd5b505af1158015610f85573d6000803e3d6000fd5b5050505050505050565b603454604051635f9bb63d60e11b81526001600160a01b038481166004830152602482018490529091169063bf376c7a906044015b600060405180830381600087803b158015610fde57600080fd5b505af1158015610ff2573d6000803e3d6000fd5b505050505050565b6000611005836104b9565b90508181101561109357600061101b8284611d13565b603454604051632770a7eb60e21b81526001600160a01b03878116600483015260248201849052929350911690639dc29fac90604401600060405180830381600087803b15801561106b57600080fd5b505af115801561107f573d6000803e3d6000fd5b5050505061108d848361175c565b5061109d565b61109d838361175c565b6035546039546001600160a01b03918216916323b872dd9116856110c086611559565b6040518463ffffffff1660e01b81526004016110de93929190611cc9565b6020604051808303816000875af11580156110fd573d6000803e3d6000fd5b505050506040513d601f19601f820116820180604052508101906111219190611b15565b61113d5760405162461bcd60e51b81526004016103f490611c86565b60365460405163cabe6a3160e01b81526001600160a01b038581166004830152602482018590529091169063cabe6a31906044015b600060405180830381600087803b15801561118c57600080fd5b505af11580156111a0573d6000803e3d6000fd5b50505050505050565b60385460408051633bef226f60e21b815290516001600160a01b0390921691630ea018f791839163efbc89bc916004808201926020929091908290030181865afa1580156111fb573d6000803e3d6000fd5b505050506040513d601f19601f8201168201806040525081019061121f9190611d26565b6040516001600160e01b031960e084901b16815260048101919091526001600160a01b0386166024820152604401602060405180830381865afa15801561126a573d6000803e3d6000fd5b505050506040513d601f19601f8201168201806040525081019061128e9190611b15565b156112d15761129d838261188e565b603454604051638cc7104f60e01b81526001600160a01b0390911690638cc7104f9061117290309086908690600401611cc9565b603454604051638cc7104f60e01b81526001600160a01b0390911690638cc7104f9061117290869086908690600401611cc9565b6001600160a01b0383166000908152603b6020526040902080546001600160801b03165b81546001600160801b03600160801b909104811690821610801561134d5750600083115b156114fe576001600160801b0381166000908152600183016020526040902080544210156114eb578060010154841061146257600181015461138f9085611d13565b60018201546001600160a01b0388166000908152603c60205260408120805493975091926113be908490611d13565b909155505060018101546040517fd0d70de2baa99922b89d5f189e78194a3d56c616aaf58fa941a374228aec3d08916113fd9185918a918a9190611d3f565b60405180910390a1825460018401906000906001600160801b0316858261142383611ced565b82546101009290920a6001600160801b0381810219909316918316021790915516815260208101919091526040016000908120818155600101556114eb565b838160010160008282546114769190611d13565b90915550506001600160a01b0386166000908152603c6020526040812080548692906114a3908490611d13565b90915550506040517fd0d70de2baa99922b89d5f189e78194a3d56c616aaf58fa941a374228aec3d08906114de908490899089908990611d3f565b60405180910390a1600093505b50806114f681611ced565b915050611329565b5081156109ce5760405162461bcd60e51b8152602060048201526024808201527f496e7465726e616c4d61726b65743a20616d6f756e742065786365656473206f604482015263333332b960e11b60648201526084016103f4565b60375460405163195556f360e21b815260009182916001600160a01b03909116906365555bcc9061158c90600401611d6f565b606060405180830381865afa1580156115a9573d6000803e3d6000fd5b505050506040513d601f19601f820116820180604052508101906115cd9190611dac565b5160375460405163195556f360e21b81529192506000916001600160a01b03909116906365555bcc9061160290600401611e16565b606060405180830381865afa15801561161f573d6000803e3d6000fd5b505050506040513d601f19601f820116820180604052508101906116439190611dac565b516035546040805163313ce56760e01b815290519293506001600160a01b039091169163313ce567916004808201926020929091908290030181865afa158015611691573d6000803e3d6000fd5b505050506040513d601f19601f820116820180604052508101906116b59190611e54565b6116c0906012611e77565b6116cb90600a611f74565b816116d68487611c19565b6116e09190611f83565b6104c59190611f83565b81546001600160801b03600160801b9182900481166000908152600180860160209081526040832086518155908601519101558454909290041683601061173083611ced565b91906101000a8154816001600160801b0302191690836001600160801b03160217905550905092915050565b60385460408051633bef226f60e21b815290516001600160a01b0390921691630ea018f791839163efbc89bc916004808201926020929091908290030181865afa1580156117ae573d6000803e3d6000fd5b505050506040513d601f19601f820116820180604052508101906117d29190611d26565b6040516001600160e01b031960e084901b16815260048101919091526001600160a01b0385166024820152604401602060405180830381865afa15801561181d573d6000803e3d6000fd5b505050506040513d601f19601f820116820180604052508101906118419190611b15565b61184d5761184d611fa5565b611857828261188e565b603454604051632770a7eb60e21b8152306004820152602481018390526001600160a01b0390911690639dc29fac90604401610fc4565b6001600160a01b0382166000908152603b6020526040902080546001600160801b03165b81546001600160801b03600160801b90910481169082161080156118d65750600083115b15611a07576001600160801b0381166000908152600183016020526040902080544211156119f457806001015484106119a95760018101546119189085611d13565b60018201546001600160a01b0387166000908152603c6020526040812080549397509192611947908490611d13565b9091555050825460018401906000906001600160801b0316858261196a83611ced565b82546101009290920a6001600160801b0381810219909316918316021790915516815260208101919091526040016000908120818155600101556119f4565b838160010160008282546119bd9190611d13565b90915550506001600160a01b0385166000908152603c6020526040812080548692906119ea908490611d13565b9091555060009450505b50806119ff81611ced565b9150506118b2565b5081156104065760405162461bcd60e51b815260206004820152602660248201527f496e7465726e616c4d61726b65743a20616d6f756e7420657863656564732062604482015265616c616e636560d01b60648201526084016103f4565b6001600160a01b03811681146106c257600080fd5b600060208284031215611a8c57600080fd5b8135610ba181611a65565b600060208284031215611aa957600080fd5b5035919050565b60008060408385031215611ac357600080fd5b8235611ace81611a65565b946020939093013593505050565b60008060408385031215611aef57600080fd5b8235611afa81611a65565b91506020830135611b0a81611a65565b809150509250929050565b600060208284031215611b2757600080fd5b81518015158114610ba157600080fd5b60005b83811015611b52578181015183820152602001611b3a565b50506000910152565b7f416363657373436f6e74726f6c3a206163636f756e7420000000000000000000815260008351611b93816017850160208801611b37565b7001034b99036b4b9b9b4b733903937b6329607d1b6017918401918201528351611bc4816028840160208801611b37565b01602801949350505050565b6020815260008251806020840152611bef816040850160208701611b37565b601f01601f19169190910160400192915050565b634e487b7160e01b600052601160045260246000fd5b80820281158282048414176109ff576109ff611c03565b808201808211156109ff576109ff611c03565b634e487b7160e01b600052604160045260246000fd5b634e487b7160e01b600052603260045260246000fd5b600081611c7e57611c7e611c03565b506000190190565b60208082526023908201527f496e7465726e616c4d61726b6574426173653a207472616e73666572206661696040820152621b195960ea1b606082015260800190565b6001600160a01b039384168152919092166020820152604081019190915260600190565b60006001600160801b03808316818103611d0957611d09611c03565b6001019392505050565b818103818111156109ff576109ff611c03565b600060208284031215611d3857600080fd5b5051919050565b6001600160801b039490941684526001600160a01b03928316602085015291166040830152606082015260800190565b60408152600360408201526222aaa960e91b60608201526080602082015260006109ff6080830160038152621554d160ea1b602082015260400190565b600060608284031215611dbe57600080fd5b6040516060810181811067ffffffffffffffff82111715611def57634e487b7160e01b600052604160045260246000fd5b80604052508251815260208301516020820152604083015160408201528091505092915050565b6040815260046040820152635553444360e01b60608201526080602082015260006109ff6080830160038152621554d160ea1b602082015260400190565b600060208284031215611e6657600080fd5b815160ff81168114610ba157600080fd5b60ff82811682821603908111156109ff576109ff611c03565b600181815b80851115611ecb578160001904821115611eb157611eb1611c03565b80851615611ebe57918102915b93841c9390800290611e95565b509250929050565b600082611ee2575060016109ff565b81611eef575060006109ff565b8160018114611f055760028114611f0f57611f2b565b60019150506109ff565b60ff841115611f2057611f20611c03565b50506001821b6109ff565b5060208310610133831016604e8410600b8410161715611f4e575081810a6109ff565b611f588383611e90565b8060001904821115611f6c57611f6c611c03565b029392505050565b6000610ba160ff841683611ed3565b600082611fa057634e487b7160e01b600052601260045260246000fd5b500490565b634e487b7160e01b600052600160045260246000fdfe7b97752341782019d21e7c1027eedcd270e56f5b672dcc28d53bf58a346002fca264697066735822122051c338df535d29172714a16db549d78e6f2c5693d2a28c24794259d1258e016964736f6c63430008130033",
  "linkReferences": {},
  "deployedLinkReferences": {}
}