{
  "_format": "hh-sol-artifact-1",
  "contractName": "InternalMarket",
  "sourceName": "contracts/InternalMarket/InternalMarket.sol",
  "abi": [
    {
      "inputs": [],
      "stateMutability": "nonpayable",
      "type": "constructor"
    },
    {
      "anonymous": false,
      "inputs": [
        {
          "indexed": false,
          "internalType": "uint8",
          "name": "version",
          "type": "uint8"
        }
      ],
      "name": "Initialized",
      "type": "event"
    },
    {
      "anonymous": false,
      "inputs": [
        {
          "indexed": false,
          "internalType": "uint128",
          "name": "id",
          "type": "uint128"
        },
        {
          "indexed": false,
          "internalType": "address",
          "name": "from",
          "type": "address"
        },
        {
          "indexed": false,
          "internalType": "uint256",
          "name": "amount",
          "type": "uint256"
        },
        {
          "indexed": false,
          "internalType": "uint256",
          "name": "expiredAt",
          "type": "uint256"
        }
      ],
      "name": "OfferCreated",
      "type": "event"
    },
    {
      "anonymous": false,
      "inputs": [
        {
          "indexed": false,
          "internalType": "uint128",
          "name": "id",
          "type": "uint128"
        },
        {
          "indexed": false,
          "internalType": "address",
          "name": "from",
          "type": "address"
        },
        {
          "indexed": false,
          "internalType": "address",
          "name": "to",
          "type": "address"
        },
        {
          "indexed": false,
          "internalType": "uint256",
          "name": "amount",
          "type": "uint256"
        }
      ],
      "name": "OfferMatched",
      "type": "event"
    },
    {
      "anonymous": false,
      "inputs": [
        {
          "indexed": false,
          "internalType": "address",
          "name": "from",
          "type": "address"
        },
        {
          "indexed": false,
          "internalType": "address",
          "name": "to",
          "type": "address"
        },
        {
          "indexed": false,
          "internalType": "uint256",
          "name": "amount",
          "type": "uint256"
        }
      ],
      "name": "Withdrawn",
      "type": "event"
    },
    {
      "inputs": [
        {
          "internalType": "uint256",
          "name": "amount",
          "type": "uint256"
        }
      ],
      "name": "deposit",
      "outputs": [],
      "stateMutability": "nonpayable",
      "type": "function"
    },
    {
      "inputs": [],
      "name": "exchangeToken",
      "outputs": [
        {
          "internalType": "contract ERC20",
          "name": "",
          "type": "address"
        }
      ],
      "stateMutability": "view",
      "type": "function"
    },
    {
      "inputs": [],
      "name": "finalizeDeposit",
      "outputs": [],
      "stateMutability": "nonpayable",
      "type": "function"
    },
    {
      "inputs": [],
      "name": "getRoles",
      "outputs": [
        {
          "internalType": "contract DAORoles",
          "name": "",
          "type": "address"
        }
      ],
      "stateMutability": "view",
      "type": "function"
    },
    {
      "inputs": [
        {
          "internalType": "contract DAORoles",
          "name": "roles",
          "type": "address"
        },
        {
          "internalType": "contract IGovernanceToken",
          "name": "governanceToken",
          "type": "address"
        }
      ],
      "name": "initialize",
      "outputs": [],
      "stateMutability": "nonpayable",
      "type": "function"
    },
    {
      "inputs": [
        {
          "internalType": "uint256",
          "name": "amount",
          "type": "uint256"
        }
      ],
      "name": "makeOffer",
      "outputs": [],
      "stateMutability": "nonpayable",
      "type": "function"
    },
    {
      "inputs": [
        {
          "internalType": "address",
          "name": "account",
          "type": "address"
        },
        {
          "internalType": "uint256",
          "name": "amount",
          "type": "uint256"
        }
      ],
      "name": "matchOffer",
      "outputs": [],
      "stateMutability": "nonpayable",
      "type": "function"
    },
    {
      "inputs": [],
      "name": "offerDuration",
      "outputs": [
        {
          "internalType": "uint256",
          "name": "",
          "type": "uint256"
        }
      ],
      "stateMutability": "view",
      "type": "function"
    },
    {
      "inputs": [
        {
          "internalType": "address",
          "name": "account",
          "type": "address"
        }
      ],
      "name": "offeredBalanceOf",
      "outputs": [
        {
          "internalType": "uint256",
          "name": "",
          "type": "uint256"
        }
      ],
      "stateMutability": "view",
      "type": "function"
    },
    {
      "inputs": [],
      "name": "priceOracle",
      "outputs": [
        {
          "internalType": "contract IDIAOracleV2",
          "name": "",
          "type": "address"
        }
      ],
      "stateMutability": "view",
      "type": "function"
    },
    {
      "inputs": [
        {
          "internalType": "uint256",
          "name": "amount",
          "type": "uint256"
        }
      ],
      "name": "redeem",
      "outputs": [],
      "stateMutability": "nonpayable",
      "type": "function"
    },
    {
      "inputs": [],
      "name": "redemptionController",
      "outputs": [
        {
          "internalType": "contract IRedemptionController",
          "name": "",
          "type": "address"
        }
      ],
      "stateMutability": "view",
      "type": "function"
    },
    {
      "inputs": [],
      "name": "reserve",
      "outputs": [
        {
          "internalType": "address",
          "name": "",
          "type": "address"
        }
      ],
      "stateMutability": "view",
      "type": "function"
    },
    {
      "inputs": [
        {
          "internalType": "contract ERC20",
          "name": "token",
          "type": "address"
        },
        {
          "internalType": "contract IDIAOracleV2",
          "name": "oracle",
          "type": "address"
        }
      ],
      "name": "setExchangePair",
      "outputs": [],
      "stateMutability": "nonpayable",
      "type": "function"
    },
    {
      "inputs": [
        {
          "internalType": "uint256",
          "name": "duration",
          "type": "uint256"
        }
      ],
      "name": "setOfferDuration",
      "outputs": [],
      "stateMutability": "nonpayable",
      "type": "function"
    },
    {
      "inputs": [
        {
          "internalType": "contract IRedemptionController",
          "name": "redemptionController_",
          "type": "address"
        }
      ],
      "name": "setRedemptionController",
      "outputs": [],
      "stateMutability": "nonpayable",
      "type": "function"
    },
    {
      "inputs": [
        {
          "internalType": "address",
          "name": "reserve_",
          "type": "address"
        }
      ],
      "name": "setReserve",
      "outputs": [],
      "stateMutability": "nonpayable",
      "type": "function"
    },
    {
      "inputs": [
        {
          "internalType": "contract DAORoles",
          "name": "roles",
          "type": "address"
        }
      ],
      "name": "setRoles",
      "outputs": [],
      "stateMutability": "nonpayable",
      "type": "function"
    },
    {
      "inputs": [
        {
          "internalType": "contract IShareholderRegistry",
          "name": "shareholderRegistry",
          "type": "address"
        }
      ],
      "name": "setShareholderRegistry",
      "outputs": [],
      "stateMutability": "nonpayable",
      "type": "function"
    },
    {
      "inputs": [
        {
          "internalType": "contract IGovernanceToken",
          "name": "token",
          "type": "address"
        }
      ],
      "name": "setTokenInternal",
      "outputs": [],
      "stateMutability": "nonpayable",
      "type": "function"
    },
    {
      "inputs": [],
      "name": "tokenInternal",
      "outputs": [
        {
          "internalType": "contract IGovernanceToken",
          "name": "",
          "type": "address"
        }
      ],
      "stateMutability": "view",
      "type": "function"
    },
    {
      "inputs": [
        {
          "internalType": "address",
          "name": "to",
          "type": "address"
        },
        {
          "internalType": "uint256",
          "name": "amount",
          "type": "uint256"
        }
      ],
      "name": "withdraw",
      "outputs": [],
      "stateMutability": "nonpayable",
      "type": "function"
    },
    {
      "inputs": [
        {
          "internalType": "address",
          "name": "account",
          "type": "address"
        }
      ],
      "name": "withdrawableBalanceOf",
      "outputs": [
        {
          "internalType": "uint256",
          "name": "",
          "type": "uint256"
        }
      ],
      "stateMutability": "view",
      "type": "function"
    }
  ],
  "bytecode": "0x60806040523480156200001157600080fd5b50600054610100900460ff1615808015620000335750600054600160ff909116105b8062000063575062000050306200013d60201b62000c741760201c565b15801562000063575060005460ff166001145b620000cb5760405162461bcd60e51b815260206004820152602e60248201527f496e697469616c697a61626c653a20636f6e747261637420697320616c72656160448201526d191e481a5b9a5d1a585b1a5e995960921b606482015260840160405180910390fd5b6000805460ff191660011790558015620000ef576000805461ff0019166101001790555b801562000136576000805461ff0019169055604051600181527f7f26b83ff96e1f2b6a682f133852f6798a09c465da95921460cefb38474024989060200160405180910390a15b506200014c565b6001600160a01b03163b151590565b612373806200015c6000396000f3fe608060405234801561001057600080fd5b506004361061014d5760003560e01c80639b04e88d116100c3578063bd62869a1161007c578063bd62869a146102b5578063cd3293de146102be578063cfe63ddf146102d1578063d5728c20146102e4578063db006a75146102f7578063f3fef3a31461030a57600080fd5b80639b04e88d146102435780639cecc80a146102565780639d5320f414610269578063a25eb5d91461027c578063a260b1021461028f578063b6b55f25146102a257600080fd5b80633aa6c4f9116101155780633aa6c4f9146101d0578063485cc955146101f157806358445473146102045780635b24e80614610217578063710613981461021f5780639a2f64741461023057600080fd5b806309031db6146101525780631378b62e1461016757806322b413e51461017a57806325e0635b1461018d5780632630c12f146101bd575b600080fd5b610165610160366004611e33565b61031d565b005b610165610175366004611e50565b61041e565b610165610188366004611e69565b6104bd565b6034546101a0906001600160a01b031681565b6040516001600160a01b0390911681526020015b60405180910390f35b6037546101a0906001600160a01b031681565b6101e36101de366004611e33565b6104cc565b6040519081526020016101b4565b6101656101ff366004611e95565b6104e0565b610165610212366004611e33565b610652565b610165610731565b6033546001600160a01b03166101a0565b61016561023e366004611e50565b61073c565b610165610251366004611e33565b61088b565b610165610264366004611e33565b610968565b6036546101a0906001600160a01b031681565b6035546101a0906001600160a01b031681565b61016561029d366004611e33565b610a45565b6101656102b0366004611e50565b610b22565b6101e3603a5481565b6039546101a0906001600160a01b031681565b6101e36102df366004611e33565b610b2c565b6101656102f2366004611e95565b610b40565b610165610305366004611e50565b610c5f565b610165610318366004611e69565b610c69565b7f97667070c54ef182b0f5858b034beac1b6f3089aa2d3188bb1e8929f4fa9b929600033603354604051632474521560e21b8152600481018590526001600160a01b0380841660248301529293509116906391d1485490604401602060405180830381865afa158015610394573d6000803e3d6000fd5b505050506040513d601f19601f820116820180604052508101906103b89190611ece565b610410576103c581610c83565b6103d0836020610c9f565b6040516020016103e1929190611f14565b60408051601f198184030181529082905262461bcd60e51b825261040791600401611f89565b60405180910390fd5b61041983610e42565b505050565b60008051602061231e833981519152600033603354604051632474521560e21b8152600481018590526001600160a01b0380841660248301529293509116906391d1485490604401602060405180830381865afa158015610483573d6000803e3d6000fd5b505050506040513d601f19601f820116820180604052508101906104a79190611ece565b6104b4576103c581610c83565b61041983603a55565b6104c8823383610e64565b5050565b6000806104d883610f9b565b949350505050565b600054610100900460ff16158080156105005750600054600160ff909116105b8061051a5750303b15801561051a575060005460ff166001145b61057d5760405162461bcd60e51b815260206004820152602e60248201527f496e697469616c697a61626c653a20636f6e747261637420697320616c72656160448201526d191e481a5b9a5d1a585b1a5e995960921b6064820152608401610407565b6000805460ff1916600117905580156105a0576000805461ff0019166101001790555b6001600160a01b038316158015906105c057506001600160a01b03821615155b6105dc5760405162461bcd60e51b815260040161040790611fbc565b603480546001600160a01b0319166001600160a01b03841617905562093a80603a5561060783610e42565b8015610419576000805461ff0019169055604051600181527f7f26b83ff96e1f2b6a682f133852f6798a09c465da95921460cefb3847402498906020015b60405180910390a1505050565b60008051602061231e833981519152600033603354604051632474521560e21b8152600481018590526001600160a01b0380841660248301529293509116906391d1485490604401602060405180830381865afa1580156106b7573d6000803e3d6000fd5b505050506040513d601f19601f820116820180604052508101906106db9190611ece565b6106e8576103c581610c83565b826001600160a01b03811661070f5760405162461bcd60e51b815260040161040790611fbc565b603480546001600160a01b0319166001600160a01b0386161790555b50505050565b61073a3361104d565b565b60385460408051633bef226f60e21b815290516001600160a01b0390921691630ea018f791839163efbc89bc916004808201926020929091908290030181865afa15801561078e573d6000803e3d6000fd5b505050506040513d601f19601f820116820180604052508101906107b29190611ff3565b6040516001600160e01b031960e084901b1681526004810191909152336024820152604401602060405180830381865afa1580156107f4573d6000803e3d6000fd5b505050506040513d601f19601f820116820180604052508101906108189190611ece565b61087e5760405162461bcd60e51b815260206004820152603160248201527f496e7465726e616c4d61726b65743a206f6e6c7920636f6e7472696275746f72604482015270732063616e206d616b65206f666665727360781b6064820152608401610407565b61088833826110af565b50565b60008051602061231e833981519152600033603354604051632474521560e21b8152600481018590526001600160a01b0380841660248301529293509116906391d1485490604401602060405180830381865afa1580156108f0573d6000803e3d6000fd5b505050506040513d601f19601f820116820180604052508101906109149190611ece565b610921576103c581610c83565b826001600160a01b0381166109485760405162461bcd60e51b815260040161040790611fbc565b603680546001600160a01b0319166001600160a01b03861617905561072b565b60008051602061231e833981519152600033603354604051632474521560e21b8152600481018590526001600160a01b0380841660248301529293509116906391d1485490604401602060405180830381865afa1580156109cd573d6000803e3d6000fd5b505050506040513d601f19601f820116820180604052508101906109f19190611ece565b6109fe576103c581610c83565b826001600160a01b038116610a255760405162461bcd60e51b815260040161040790611fbc565b603980546001600160a01b0319166001600160a01b03861617905561072b565b60008051602061231e833981519152600033603354604051632474521560e21b8152600481018590526001600160a01b0380841660248301529293509116906391d1485490604401602060405180830381865afa158015610aaa573d6000803e3d6000fd5b505050506040513d601f19601f82011682018060405250810190610ace9190611ece565b610adb576103c581610c83565b826001600160a01b038116610b025760405162461bcd60e51b815260040161040790611fbc565b603880546001600160a01b0319166001600160a01b03861617905561072b565b610888338261128d565b600080610b3883610f9b565b509392505050565b60008051602061231e833981519152600033603354604051632474521560e21b8152600481018590526001600160a01b0380841660248301529293509116906391d1485490604401602060405180830381865afa158015610ba5573d6000803e3d6000fd5b505050506040513d601f19601f82011682018060405250810190610bc99190611ece565b610bd6576103c581610c83565b836001600160a01b038116610bfd5760405162461bcd60e51b815260040161040790611fbc565b836001600160a01b038116610c245760405162461bcd60e51b815260040161040790611fbc565b610c578686603580546001600160a01b039384166001600160a01b03199182161790915560378054929093169116179055565b505050505050565b61088833826112f0565b6104c833838361149e565b6001600160a01b03163b151590565b6060610c996001600160a01b0383166014610c9f565b92915050565b60606000610cae836002612022565b610cb9906002612041565b67ffffffffffffffff811115610cd157610cd1612054565b6040519080825280601f01601f191660200182016040528015610cfb576020820181803683370190505b509050600360fc1b81600081518110610d1657610d1661206a565b60200101906001600160f81b031916908160001a905350600f60fb1b81600181518110610d4557610d4561206a565b60200101906001600160f81b031916908160001a9053506000610d69846002612022565b610d74906001612041565b90505b6001811115610dec576f181899199a1a9b1b9c1cb0b131b232b360811b85600f1660108110610da857610da861206a565b1a60f81b828281518110610dbe57610dbe61206a565b60200101906001600160f81b031916908160001a90535060049490941c93610de581612080565b9050610d77565b508315610e3b5760405162461bcd60e51b815260206004820181905260248201527f537472696e67733a20686578206c656e67746820696e73756666696369656e746044820152606401610407565b9392505050565b603380546001600160a01b0319166001600160a01b0392909216919091179055565b610e6f838383611697565b60345460405163a9059cbb60e01b81526001600160a01b038481166004830152602482018490529091169063a9059cbb906044016020604051808303816000875af1158015610ec2573d6000803e3d6000fd5b505050506040513d601f19601f82011682018060405250810190610ee69190611ece565b610f025760405162461bcd60e51b815260040161040790612097565b6035546001600160a01b03166323b872dd8385610f1e85611908565b6040518463ffffffff1660e01b8152600401610f3c939291906120da565b6020604051808303816000875af1158015610f5b573d6000803e3d6000fd5b505050506040513d601f19601f82011682018060405250810190610f7f9190611ece565b6104195760405162461bcd60e51b815260040161040790612097565b6001600160a01b0381166000908152603b60209081526040808320603c90925282205481548392919083906001600160801b03165b83546001600160801b03600160801b90910481169082161015611035576001600160801b03811660009081526001850160205260409020805442101561102257600181015461101f9084612041565b92505b508061102d816120fe565b915050610fd0565b50806110418184612124565b94509450505050915091565b6034546040516301ce239b60e61b81526001600160a01b03838116600483015290911690637388e6c090602401600060405180830381600087803b15801561109457600080fd5b505af11580156110a8573d6000803e3d6000fd5b5050505050565b6001600160a01b0382166000908152603c6020526040812080548392906110d7908490612041565b9091555050603a546000906110ec9042612041565b90506000611132603b6000866001600160a01b03166001600160a01b03168152602001908152602001600020604051806040016040528085815260200186815250611ade565b604080516001600160801b03831681526001600160a01b0387166020820152908101859052606081018490529091507fbc9e56cae6351f41cd4be50fc6e8ff4e5c6994d27010448a584ee9f845e89e109060800160405180910390a16034546040516323b872dd60e01b81526001600160a01b03909116906323b872dd906111c2908790309088906004016120da565b6020604051808303816000875af11580156111e1573d6000803e3d6000fd5b505050506040513d601f19601f820116820180604052508101906112059190611ece565b6112215760405162461bcd60e51b815260040161040790612097565b603654604051636d1fc97160e01b81526001600160a01b0386811660048301526024820186905290911690636d1fc97190604401600060405180830381600087803b15801561126f57600080fd5b505af1158015611283573d6000803e3d6000fd5b5050505050505050565b603454604051635f9bb63d60e11b81526001600160a01b038481166004830152602482018490529091169063bf376c7a906044015b600060405180830381600087803b1580156112dc57600080fd5b505af1158015610c57573d6000803e3d6000fd5b60006112fb836104cc565b9050818110156113895760006113118284612124565b603454604051632770a7eb60e21b81526001600160a01b03878116600483015260248201849052929350911690639dc29fac90604401600060405180830381600087803b15801561136157600080fd5b505af1158015611375573d6000803e3d6000fd5b505050506113838483611b50565b50611393565b6113938383611b50565b6035546039546001600160a01b03918216916323b872dd9116856113b686611908565b6040518463ffffffff1660e01b81526004016113d4939291906120da565b6020604051808303816000875af11580156113f3573d6000803e3d6000fd5b505050506040513d601f19601f820116820180604052508101906114179190611ece565b6114335760405162461bcd60e51b815260040161040790612097565b60365460405163cabe6a3160e01b81526001600160a01b038581166004830152602482018590529091169063cabe6a3190604401600060405180830381600087803b15801561148157600080fd5b505af1158015611495573d6000803e3d6000fd5b50505050505050565b60385460408051633bef226f60e21b815290516001600160a01b0390921691630ea018f791839163efbc89bc916004808201926020929091908290030181865afa1580156114f0573d6000803e3d6000fd5b505050506040513d601f19601f820116820180604052508101906115149190611ff3565b6040516001600160e01b031960e084901b16815260048101919091526001600160a01b0386166024820152604401602060405180830381865afa15801561155f573d6000803e3d6000fd5b505050506040513d601f19601f820116820180604052508101906115839190611ece565b156115fd576115928382611c82565b603454604051638cc7104f60e01b81526001600160a01b0390911690638cc7104f906115c6903090869086906004016120da565b600060405180830381600087803b1580156115e057600080fd5b505af11580156115f4573d6000803e3d6000fd5b50505050611664565b603454604051638cc7104f60e01b81526001600160a01b0390911690638cc7104f90611631908690869086906004016120da565b600060405180830381600087803b15801561164b57600080fd5b505af115801561165f573d6000803e3d6000fd5b505050505b7fd1c19fbcd4551a5edfb66d43d2e337c04837afda3482b42bdf569a8fccdae5fb838383604051610645939291906120da565b6001600160a01b0383166000908152603b6020526040902080546001600160801b03165b81546001600160801b03600160801b90910481169082161080156116df5750600083115b156118ad576001600160801b038116600090815260018301602052604090208054421061176357825460018401906000906001600160801b03168582611724836120fe565b82546101009290920a6001600160801b03818102199093169183160217909155168152602081019190915260400160009081208181556001015561189a565b8060010154841061181157600181015461177d9085612124565b60018201546001600160a01b0388166000908152603c60205260408120805493975091926117ac908490612124565b909155505060018101546040517fd0d70de2baa99922b89d5f189e78194a3d56c616aaf58fa941a374228aec3d08916117eb9185918a918a9190612137565b60405180910390a1825460018401906000906001600160801b03168582611724836120fe565b838160010160008282546118259190612124565b90915550506001600160a01b0386166000908152603c602052604081208054869290611852908490612124565b90915550506040517fd0d70de2baa99922b89d5f189e78194a3d56c616aaf58fa941a374228aec3d089061188d908490899089908990612137565b60405180910390a1600093505b50806118a5816120fe565b9150506116bb565b50811561072b5760405162461bcd60e51b8152602060048201526024808201527f496e7465726e616c4d61726b65743a20616d6f756e742065786365656473206f604482015263333332b960e11b6064820152608401610407565b6037546040516304b01c2560e51b81526020600482015260076024820152661155548bd554d160ca1b604482015260009182916001600160a01b039091169063960384a0906064016040805180830381865afa15801561196c573d6000803e3d6000fd5b505050506040513d601f19601f820116820180604052508101906119909190612183565b506037546040516304b01c2560e51b81526020600482015260086024820152671554d110cbd554d160c21b60448201526001600160801b039290921692506000916001600160a01b039091169063960384a0906064016040805180830381865afa158015611a02573d6000803e3d6000fd5b505050506040513d601f19601f82011682018060405250810190611a269190612183565b506001600160801b03169050603560009054906101000a90046001600160a01b03166001600160a01b031663313ce5676040518163ffffffff1660e01b8152600401602060405180830381865afa158015611a85573d6000803e3d6000fd5b505050506040513d601f19601f82011682018060405250810190611aa991906121b6565b611ab49060126121d9565b611abf90600a6122d6565b81611aca8487612022565b611ad491906122e5565b6104d891906122e5565b81546001600160801b03600160801b91829004811660009081526001808601602090815260408320865181559086015191015584549092900416836010611b24836120fe565b91906101000a8154816001600160801b0302191690836001600160801b03160217905550905092915050565b60385460408051633bef226f60e21b815290516001600160a01b0390921691630ea018f791839163efbc89bc916004808201926020929091908290030181865afa158015611ba2573d6000803e3d6000fd5b505050506040513d601f19601f82011682018060405250810190611bc69190611ff3565b6040516001600160e01b031960e084901b16815260048101919091526001600160a01b0385166024820152604401602060405180830381865afa158015611c11573d6000803e3d6000fd5b505050506040513d601f19601f82011682018060405250810190611c359190611ece565b611c4157611c41612307565b611c4b8282611c82565b603454604051632770a7eb60e21b8152306004820152602481018390526001600160a01b0390911690639dc29fac906044016112c2565b6001600160a01b0382166000908152603b6020526040812080549091906001600160801b03165b82546001600160801b03600160801b90910481169082161015611d6a576001600160801b0381166000908152600184016020526040902080544210611d4557835460018501906000906001600160801b03168682611d06836120fe565b82546101009290920a6001600160801b038181021990931691831602179091551681526020810191909152604001600090812081815560010155611d57565b6001810154611d549084612041565b92505b5080611d62816120fe565b915050611ca9565b50611d758382612041565b6001600160a01b0385166000908152603c60205260409020541015611deb5760405162461bcd60e51b815260206004820152602660248201527f496e7465726e616c4d61726b65743a20616d6f756e7420657863656564732062604482015265616c616e636560d01b6064820152608401610407565b6001600160a01b0384166000908152603c602052604081208054859290611e13908490612124565b909155505050505050565b6001600160a01b038116811461088857600080fd5b600060208284031215611e4557600080fd5b8135610e3b81611e1e565b600060208284031215611e6257600080fd5b5035919050565b60008060408385031215611e7c57600080fd5b8235611e8781611e1e565b946020939093013593505050565b60008060408385031215611ea857600080fd5b8235611eb381611e1e565b91506020830135611ec381611e1e565b809150509250929050565b600060208284031215611ee057600080fd5b81518015158114610e3b57600080fd5b60005b83811015611f0b578181015183820152602001611ef3565b50506000910152565b7f416363657373436f6e74726f6c3a206163636f756e7420000000000000000000815260008351611f4c816017850160208801611ef0565b7001034b99036b4b9b9b4b733903937b6329607d1b6017918401918201528351611f7d816028840160208801611ef0565b01602801949350505050565b6020815260008251806020840152611fa8816040850160208701611ef0565b601f01601f19169190910160400192915050565b6020808252601f908201527f496e7465726e616c4d61726b65743a20307830206e6f7420616c6c6f77656400604082015260600190565b60006020828403121561200557600080fd5b5051919050565b634e487b7160e01b600052601160045260246000fd5b600081600019048311821515161561203c5761203c61200c565b500290565b80820180821115610c9957610c9961200c565b634e487b7160e01b600052604160045260246000fd5b634e487b7160e01b600052603260045260246000fd5b60008161208f5761208f61200c565b506000190190565b60208082526023908201527f496e7465726e616c4d61726b6574426173653a207472616e73666572206661696040820152621b195960ea1b606082015260800190565b6001600160a01b039384168152919092166020820152604081019190915260600190565b60006001600160801b0380831681810361211a5761211a61200c565b6001019392505050565b81810381811115610c9957610c9961200c565b6001600160801b039490941684526001600160a01b03928316602085015291166040830152606082015260800190565b80516001600160801b038116811461217e57600080fd5b919050565b6000806040838503121561219657600080fd5b61219f83612167565b91506121ad60208401612167565b90509250929050565b6000602082840312156121c857600080fd5b815160ff81168114610e3b57600080fd5b60ff8281168282160390811115610c9957610c9961200c565b600181815b8085111561222d5781600019048211156122135761221361200c565b8085161561222057918102915b93841c93908002906121f7565b509250929050565b60008261224457506001610c99565b8161225157506000610c99565b816001811461226757600281146122715761228d565b6001915050610c99565b60ff8411156122825761228261200c565b50506001821b610c99565b5060208310610133831016604e8410600b84101617156122b0575081810a610c99565b6122ba83836121f2565b80600019048211156122ce576122ce61200c565b029392505050565b6000610e3b60ff841683612235565b60008261230257634e487b7160e01b600052601260045260246000fd5b500490565b634e487b7160e01b600052600160045260246000fdfe7b97752341782019d21e7c1027eedcd270e56f5b672dcc28d53bf58a346002fca2646970667358221220edb024daf2d704d4c9e2b0b1e3c889d6a78a0bf3f22fc3cb701ea72c7c73207a64736f6c63430008100033",
  "linkReferences": {},
  "deployedLinkReferences": {}
}