{
  "_format": "hh-sol-artifact-1",
  "contractName": "RedemptionController",
  "sourceName": "contracts/RedemptionController/RedemptionController.sol",
  "abi": [
    {
      "inputs": [],
      "stateMutability": "nonpayable",
      "type": "constructor"
    },
    {
      "anonymous": false,
      "inputs": [
        {
          "indexed": false,
          "internalType": "uint8",
          "name": "version",
          "type": "uint8"
        }
      ],
      "name": "Initialized",
      "type": "event"
    },
    {
      "inputs": [],
      "name": "activityWindow",
      "outputs": [
        {
          "internalType": "uint256",
          "name": "",
          "type": "uint256"
        }
      ],
      "stateMutability": "view",
      "type": "function"
    },
    {
      "inputs": [
        {
          "internalType": "address",
          "name": "to",
          "type": "address"
        },
        {
          "internalType": "uint256",
          "name": "amount",
          "type": "uint256"
        }
      ],
      "name": "afterMint",
      "outputs": [],
      "stateMutability": "nonpayable",
      "type": "function"
    },
    {
      "inputs": [
        {
          "internalType": "address",
          "name": "account",
          "type": "address"
        },
        {
          "internalType": "uint256",
          "name": "amount",
          "type": "uint256"
        }
      ],
      "name": "afterOffer",
      "outputs": [],
      "stateMutability": "nonpayable",
      "type": "function"
    },
    {
      "inputs": [
        {
          "internalType": "address",
          "name": "account",
          "type": "address"
        },
        {
          "internalType": "uint256",
          "name": "amount",
          "type": "uint256"
        }
      ],
      "name": "afterRedeem",
      "outputs": [],
      "stateMutability": "nonpayable",
      "type": "function"
    },
    {
      "inputs": [],
      "name": "getRoles",
      "outputs": [
        {
          "internalType": "contract DAORoles",
          "name": "",
          "type": "address"
        }
      ],
      "stateMutability": "view",
      "type": "function"
    },
    {
      "inputs": [
        {
          "internalType": "contract DAORoles",
          "name": "roles",
          "type": "address"
        }
      ],
      "name": "initialize",
      "outputs": [],
      "stateMutability": "nonpayable",
      "type": "function"
    },
    {
      "inputs": [],
      "name": "maxDaysInThePast",
      "outputs": [
        {
          "internalType": "uint256",
          "name": "",
          "type": "uint256"
        }
      ],
      "stateMutability": "view",
      "type": "function"
    },
    {
      "inputs": [
        {
          "internalType": "address",
          "name": "account",
          "type": "address"
        }
      ],
      "name": "redeemableBalance",
      "outputs": [
        {
          "internalType": "uint256",
          "name": "redeemableAmount",
          "type": "uint256"
        }
      ],
      "stateMutability": "view",
      "type": "function"
    },
    {
      "inputs": [],
      "name": "redemptionStart",
      "outputs": [
        {
          "internalType": "uint256",
          "name": "",
          "type": "uint256"
        }
      ],
      "stateMutability": "view",
      "type": "function"
    },
    {
      "inputs": [],
      "name": "redemptionWindow",
      "outputs": [
        {
          "internalType": "uint256",
          "name": "",
          "type": "uint256"
        }
      ],
      "stateMutability": "view",
      "type": "function"
    },
    {
      "inputs": [
        {
          "internalType": "contract DAORoles",
          "name": "roles",
          "type": "address"
        }
      ],
      "name": "setRoles",
      "outputs": [],
      "stateMutability": "nonpayable",
      "type": "function"
    }
  ],
  "bytecode": "0x608060405234801561001057600080fd5b50600054610100900460ff16158080156100315750600054600160ff909116105b8061004b5750303b15801561004b575060005460ff166001145b6100b25760405162461bcd60e51b815260206004820152602e60248201527f496e697469616c697a61626c653a20636f6e747261637420697320616c72656160448201526d191e481a5b9a5d1a585b1a5e995960921b606482015260840160405180910390fd5b6000805460ff1916600117905580156100d5576000805461ff0019166101001790555b801561011b576000805461ff0019169055604051600181527f7f26b83ff96e1f2b6a682f133852f6798a09c465da95921460cefb38474024989060200160405180910390a15b50610f868061012b6000396000f3fe608060405234801561001057600080fd5b50600436106100a95760003560e01c8063710613981161007157806371061398146101045780638a2fa94c1461011f578063a064128814610132578063c4d66de814610145578063cabe6a3114610158578063ccfe2d1a1461016b57600080fd5b806309031db6146100ae5780633145b902146100c357806346f5224f146100df5780636392f921146100e85780636d1fc971146100f1575b600080fd5b6100c16100bc366004610d6a565b610174565b005b6100cc60355481565b6040519081526020015b60405180910390f35b6100cc60375481565b6100cc60365481565b6100c16100ff366004610d87565b610275565b6033546040516001600160a01b0390911681526020016100d6565b6100c161012d366004610d87565b61032d565b6100cc610140366004610d6a565b610428565b6100c1610153366004610d6a565b6104b4565b6100c1610166366004610d87565b6105e9565b6100cc60345481565b7f97667070c54ef182b0f5858b034beac1b6f3089aa2d3188bb1e8929f4fa9b929600033603354604051632474521560e21b8152600481018590526001600160a01b0380841660248301529293509116906391d1485490604401602060405180830381865afa1580156101eb573d6000803e3d6000fd5b505050506040513d601f19601f8201168201806040525081019061020f9190610db3565b6102675761021c8161069b565b6102278360206106b7565b604051602001610238929190610df9565b60408051601f198184030181529082905262461bcd60e51b825261025e91600401610e6e565b60405180910390fd5b6102708361085a565b505050565b7f74f7a545c65c11839a48d7453738b30c295408df2d944516167556759ddc6d06600033603354604051632474521560e21b8152600481018590526001600160a01b0380841660248301529293509116906391d1485490604401602060405180830381865afa1580156102ec573d6000803e3d6000fd5b505050506040513d601f19601f820116820180604052508101906103109190610db3565b61031d5761021c8161069b565b610327848461087c565b50505050565b7f74f7a545c65c11839a48d7453738b30c295408df2d944516167556759ddc6d06600033603354604051632474521560e21b8152600481018590526001600160a01b0380841660248301529293509116906391d1485490604401602060405180830381865afa1580156103a4573d6000803e3d6000fd5b505050506040513d601f19601f820116820180604052508101906103c89190610db3565b6103d55761021c8161069b565b6001600160a01b0384166000908152603a60209081526040808320815180830190925242825281830187815281546001808201845592865293909420915160029093029091019182559151910155610327565b6001600160a01b0381166000908152603860205260408120815b81548110156104ad57600082828154811061045f5761045f610ea1565b90600052602060002090600402019050806002015442101580156104865750806003015442105b1561049a5780546104979085610ecd565b93505b50806104a581610ee0565b915050610442565b5050919050565b600054610100900460ff16158080156104d45750600054600160ff909116105b806104ee5750303b1580156104ee575060005460ff166001145b6105515760405162461bcd60e51b815260206004820152602e60248201527f496e697469616c697a61626c653a20636f6e747261637420697320616c72656160448201526d191e481a5b9a5d1a585b1a5e995960921b606482015260840161025e565b6000805460ff191660011790558015610574576000805461ff0019166101001790555b61057d8261085a565b61059f624f1a00603455620d2f0060355563025143006036556276a700603755565b80156105e5576000805461ff0019169055604051600181527f7f26b83ff96e1f2b6a682f133852f6798a09c465da95921460cefb38474024989060200160405180910390a15b5050565b7f74f7a545c65c11839a48d7453738b30c295408df2d944516167556759ddc6d06600033603354604051632474521560e21b8152600481018590526001600160a01b0380841660248301529293509116906391d1485490604401602060405180830381865afa158015610660573d6000803e3d6000fd5b505050506040513d601f19601f820116820180604052508101906106849190610db3565b6106915761021c8161069b565b6103278484610b8e565b60606106b16001600160a01b03831660146106b7565b92915050565b606060006106c6836002610ef9565b6106d1906002610ecd565b67ffffffffffffffff8111156106e9576106e9610f10565b6040519080825280601f01601f191660200182016040528015610713576020820181803683370190505b509050600360fc1b8160008151811061072e5761072e610ea1565b60200101906001600160f81b031916908160001a905350600f60fb1b8160018151811061075d5761075d610ea1565b60200101906001600160f81b031916908160001a9053506000610781846002610ef9565b61078c906001610ecd565b90505b6001811115610804576f181899199a1a9b1b9c1cb0b131b232b360811b85600f16601081106107c0576107c0610ea1565b1a60f81b8282815181106107d6576107d6610ea1565b60200101906001600160f81b031916908160001a90535060049490941c936107fd81610f26565b905061078f565b5083156108535760405162461bcd60e51b815260206004820181905260248201527f537472696e67733a20686578206c656e67746820696e73756666696369656e74604482015260640161025e565b9392505050565b603380546001600160a01b0319166001600160a01b0392909216919091179055565b6001600160a01b0382166000908152603a6020526040812054900361089f575050565b6001600160a01b0382166000908152603a6020526040812080546108c590600190610f3d565b815481106108d5576108d5610ea1565b600091825260208220600290910201546037549092506108f59083610f3d565b90506000603654426109079190610f3d565b905080821015610915578091505b6000603454426109259190610ecd565b6001600160a01b0387166000908152603a60209081526040808320603b90925290912054919250905b81548110801561095e5750600087115b15610a2157600082828154811061097757610977610ea1565b906000526020600020906002020190508581600001541015801561099f575060008160010154115b15610a0e57806001015488106109e05760018101546109be9089610f3d565b97506109d4898260010154836000015487610cc4565b60006001820155610a0e565b878160010160008282546109f49190610f3d565b90915550508054610a09908a908a9087610cc4565b600097505b5080610a1981610ee0565b91505061094e565b610a2c600182610f3d565b6001600160a01b0389166000908152603b60209081526040808320939093556038815282822060399091529190205491505b805482108015610a6e5750600088115b15610b83576000818381548110610a8757610a87610ea1565b9060005260206000209060040201905080600301544210158015610aab5750805415155b8015610abb575086816001015410155b15610b235780548910610af3578054610ad4908a610f3d565b9850610aea8a8260000154836001015488610cc4565b60008155610b23565b88816000016000828254610b079190610f3d565b92505081905550610b1e8a8a836001015488610cc4565b600098505b600083118015610b365750868160010154105b8015610b46575080600301544210155b15610b7057610b56600184610f3d565b6001600160a01b038b166000908152603960205260409020555b5081610b7b81610ee0565b925050610a5e565b505050505050505050565b6001600160a01b0382166000908152603860205260408120905b815481108015610bb85750600083115b15610c4f576000828281548110610bd157610bd1610ea1565b9060005260206000209060040201905080600201544210158015610bf85750806003015442105b15610c3c578054841015610c295783816000016000828254610c1a9190610f3d565b9091555060009450610c3c9050565b8054610c359085610f3d565b6000825593505b5080610c4781610ee0565b915050610ba8565b5081156102705760405162461bcd60e51b815260206004820152603860248201527f526564656d7074696f6e20636f6e74726f6c6c65723a20616d6f756e7420657860448201527f63656564732072656465656d61626c652062616c616e63650000000000000000606482015260840161025e565b6000604051806080016040528085815260200184815260200183815260200160355484610cf19190610ecd565b90526001600160a01b0390951660009081526038602090815260408083208054600181810183559185529383902089516004909502019384559188015191830191909155860151600282015560609095015160039095019490945550505050565b6001600160a01b0381168114610d6757600080fd5b50565b600060208284031215610d7c57600080fd5b813561085381610d52565b60008060408385031215610d9a57600080fd5b8235610da581610d52565b946020939093013593505050565b600060208284031215610dc557600080fd5b8151801515811461085357600080fd5b60005b83811015610df0578181015183820152602001610dd8565b50506000910152565b7f416363657373436f6e74726f6c3a206163636f756e7420000000000000000000815260008351610e31816017850160208801610dd5565b7001034b99036b4b9b9b4b733903937b6329607d1b6017918401918201528351610e62816028840160208801610dd5565b01602801949350505050565b6020815260008251806020840152610e8d816040850160208701610dd5565b601f01601f19169190910160400192915050565b634e487b7160e01b600052603260045260246000fd5b634e487b7160e01b600052601160045260246000fd5b808201808211156106b1576106b1610eb7565b600060018201610ef257610ef2610eb7565b5060010190565b80820281158282048414176106b1576106b1610eb7565b634e487b7160e01b600052604160045260246000fd5b600081610f3557610f35610eb7565b506000190190565b818103818111156106b1576106b1610eb756fea264697066735822122079f019e556093cab5c98b2649db612ea0d8ef7258605af0dbec23127d28eec5764736f6c63430008130033",
  "linkReferences": {},
  "deployedLinkReferences": {}
}