{
  "_format": "hh-sol-artifact-1",
  "contractName": "RedemptionController",
  "sourceName": "contracts/RedemptionController/RedemptionController.sol",
  "abi": [
    {
      "inputs": [],
      "stateMutability": "nonpayable",
      "type": "constructor"
    },
    {
      "anonymous": false,
      "inputs": [
        {
          "indexed": false,
          "internalType": "uint8",
          "name": "version",
          "type": "uint8"
        }
      ],
      "name": "Initialized",
      "type": "event"
    },
    {
      "anonymous": false,
      "inputs": [
        {
          "indexed": false,
          "internalType": "address",
          "name": "account",
          "type": "address"
        },
        {
          "indexed": false,
          "internalType": "uint256",
          "name": "index",
          "type": "uint256"
        },
        {
          "indexed": false,
          "internalType": "uint256",
          "name": "amount",
          "type": "uint256"
        },
        {
          "indexed": false,
          "internalType": "uint256",
          "name": "starts",
          "type": "uint256"
        },
        {
          "indexed": false,
          "internalType": "uint256",
          "name": "ends",
          "type": "uint256"
        }
      ],
      "name": "RedemptionCreated",
      "type": "event"
    },
    {
      "anonymous": false,
      "inputs": [
        {
          "indexed": false,
          "internalType": "address",
          "name": "from",
          "type": "address"
        },
        {
          "indexed": false,
          "internalType": "uint256",
          "name": "index",
          "type": "uint256"
        },
        {
          "indexed": false,
          "internalType": "uint256",
          "name": "amountRequested",
          "type": "uint256"
        },
        {
          "indexed": false,
          "internalType": "uint256",
          "name": "amountRedeemed",
          "type": "uint256"
        }
      ],
      "name": "RedemptionUpdated",
      "type": "event"
    },
    {
      "inputs": [],
      "name": "activityWindow",
      "outputs": [
        {
          "internalType": "uint256",
          "name": "",
          "type": "uint256"
        }
      ],
      "stateMutability": "view",
      "type": "function"
    },
    {
      "inputs": [
        {
          "internalType": "address",
          "name": "to",
          "type": "address"
        },
        {
          "internalType": "uint256",
          "name": "amount",
          "type": "uint256"
        }
      ],
      "name": "afterMint",
      "outputs": [],
      "stateMutability": "nonpayable",
      "type": "function"
    },
    {
      "inputs": [
        {
          "internalType": "address",
          "name": "account",
          "type": "address"
        },
        {
          "internalType": "uint256",
          "name": "amount",
          "type": "uint256"
        }
      ],
      "name": "afterOffer",
      "outputs": [],
      "stateMutability": "nonpayable",
      "type": "function"
    },
    {
      "inputs": [
        {
          "internalType": "address",
          "name": "account",
          "type": "address"
        },
        {
          "internalType": "uint256",
          "name": "amount",
          "type": "uint256"
        }
      ],
      "name": "afterRedeem",
      "outputs": [],
      "stateMutability": "nonpayable",
      "type": "function"
    },
    {
      "inputs": [],
      "name": "getRoles",
      "outputs": [
        {
          "internalType": "contract DAORoles",
          "name": "",
          "type": "address"
        }
      ],
      "stateMutability": "view",
      "type": "function"
    },
    {
      "inputs": [
        {
          "internalType": "contract DAORoles",
          "name": "roles",
          "type": "address"
        }
      ],
      "name": "initialize",
      "outputs": [],
      "stateMutability": "nonpayable",
      "type": "function"
    },
    {
      "inputs": [],
      "name": "maxDaysInThePast",
      "outputs": [
        {
          "internalType": "uint256",
          "name": "",
          "type": "uint256"
        }
      ],
      "stateMutability": "view",
      "type": "function"
    },
    {
      "inputs": [
        {
          "internalType": "address",
          "name": "account",
          "type": "address"
        }
      ],
      "name": "redeemableBalance",
      "outputs": [
        {
          "internalType": "uint256",
          "name": "redeemableAmount",
          "type": "uint256"
        }
      ],
      "stateMutability": "view",
      "type": "function"
    },
    {
      "inputs": [],
      "name": "redemptionStart",
      "outputs": [
        {
          "internalType": "uint256",
          "name": "",
          "type": "uint256"
        }
      ],
      "stateMutability": "view",
      "type": "function"
    },
    {
      "inputs": [],
      "name": "redemptionWindow",
      "outputs": [
        {
          "internalType": "uint256",
          "name": "",
          "type": "uint256"
        }
      ],
      "stateMutability": "view",
      "type": "function"
    },
    {
      "inputs": [
        {
          "internalType": "contract DAORoles",
          "name": "roles",
          "type": "address"
        }
      ],
      "name": "setRoles",
      "outputs": [],
      "stateMutability": "nonpayable",
      "type": "function"
    }
  ],
  "bytecode": "0x608060405234801561001057600080fd5b50600054610100900460ff16158080156100315750600054600160ff909116105b8061005c575061004a3061013260201b6106ff1760201c565b15801561005c575060005460ff166001145b6100c35760405162461bcd60e51b815260206004820152602e60248201527f496e697469616c697a61626c653a20636f6e747261637420697320616c72656160448201526d191e481a5b9a5d1a585b1a5e995960921b606482015260840160405180910390fd5b6000805460ff1916600117905580156100e6576000805461ff0019166101001790555b801561012c576000805461ff0019169055604051600181527f7f26b83ff96e1f2b6a682f133852f6798a09c465da95921460cefb38474024989060200160405180910390a15b50610141565b6001600160a01b03163b151590565b611118806101506000396000f3fe608060405234801561001057600080fd5b50600436106100a95760003560e01c8063710613981161007157806371061398146101045780638a2fa94c1461011f578063a064128814610132578063c4d66de814610145578063cabe6a3114610158578063ccfe2d1a1461016b57600080fd5b806309031db6146100ae5780633145b902146100c357806346f5224f146100df5780636392f921146100e85780636d1fc971146100f1575b600080fd5b6100c16100bc366004610ef4565b610174565b005b6100cc60355481565b6040519081526020015b60405180910390f35b6100cc60375481565b6100cc60365481565b6100c16100ff366004610f11565b610275565b6033546040516001600160a01b0390911681526020016100d6565b6100c161012d366004610f11565b61032d565b6100cc610140366004610ef4565b610428565b6100c1610153366004610ef4565b6104b4565b6100c1610166366004610f11565b61064d565b6100cc60345481565b7f97667070c54ef182b0f5858b034beac1b6f3089aa2d3188bb1e8929f4fa9b929600033603354604051632474521560e21b8152600481018590526001600160a01b0380841660248301529293509116906391d1485490604401602060405180830381865afa1580156101eb573d6000803e3d6000fd5b505050506040513d601f19601f8201168201806040525081019061020f9190610f3d565b6102675761021c8161070e565b61022783602061072a565b604051602001610238929190610f83565b60408051601f198184030181529082905262461bcd60e51b825261025e91600401610ff8565b60405180910390fd5b610270836108cd565b505050565b7f74f7a545c65c11839a48d7453738b30c295408df2d944516167556759ddc6d06600033603354604051632474521560e21b8152600481018590526001600160a01b0380841660248301529293509116906391d1485490604401602060405180830381865afa1580156102ec573d6000803e3d6000fd5b505050506040513d601f19601f820116820180604052508101906103109190610f3d565b61031d5761021c8161070e565b61032784846108ef565b50505050565b7f74f7a545c65c11839a48d7453738b30c295408df2d944516167556759ddc6d06600033603354604051632474521560e21b8152600481018590526001600160a01b0380841660248301529293509116906391d1485490604401602060405180830381865afa1580156103a4573d6000803e3d6000fd5b505050506040513d601f19601f820116820180604052508101906103c89190610f3d565b6103d55761021c8161070e565b6001600160a01b0384166000908152603a60209081526040808320815180830190925242825281830187815281546001808201845592865293909420915160029093029091019182559151910155610327565b6001600160a01b0381166000908152603860205260408120815b81548110156104ad57600082828154811061045f5761045f61102b565b90600052602060002090600402019050806002015442101580156104865750806003015442105b1561049a5780546104979085611057565b93505b50806104a58161106a565b915050610442565b5050919050565b600054610100900460ff16158080156104d45750600054600160ff909116105b806104ee5750303b1580156104ee575060005460ff166001145b6105515760405162461bcd60e51b815260206004820152602e60248201527f496e697469616c697a61626c653a20636f6e747261637420697320616c72656160448201526d191e481a5b9a5d1a585b1a5e995960921b606482015260840161025e565b6000805460ff191660011790558015610574576000805461ff0019166101001790555b6001600160a01b0382166105d85760405162461bcd60e51b815260206004820152602560248201527f526564656d7074696f6e436f6e74726f6c6c65723a20307830206e6f7420616c6044820152641b1bddd95960da1b606482015260840161025e565b6105e1826108cd565b610603624f1a00603455620d2f0060355563025143006036556276a700603755565b8015610649576000805461ff0019169055604051600181527f7f26b83ff96e1f2b6a682f133852f6798a09c465da95921460cefb38474024989060200160405180910390a15b5050565b7f74f7a545c65c11839a48d7453738b30c295408df2d944516167556759ddc6d06600033603354604051632474521560e21b8152600481018590526001600160a01b0380841660248301529293509116906391d1485490604401602060405180830381865afa1580156106c4573d6000803e3d6000fd5b505050506040513d601f19601f820116820180604052508101906106e89190610f3d565b6106f55761021c8161070e565b6103278484610c01565b6001600160a01b03163b151590565b60606107246001600160a01b038316601461072a565b92915050565b60606000610739836002611083565b610744906002611057565b67ffffffffffffffff81111561075c5761075c6110a2565b6040519080825280601f01601f191660200182016040528015610786576020820181803683370190505b509050600360fc1b816000815181106107a1576107a161102b565b60200101906001600160f81b031916908160001a905350600f60fb1b816001815181106107d0576107d061102b565b60200101906001600160f81b031916908160001a90535060006107f4846002611083565b6107ff906001611057565b90505b6001811115610877576f181899199a1a9b1b9c1cb0b131b232b360811b85600f16601081106108335761083361102b565b1a60f81b8282815181106108495761084961102b565b60200101906001600160f81b031916908160001a90535060049490941c93610870816110b8565b9050610802565b5083156108c65760405162461bcd60e51b815260206004820181905260248201527f537472696e67733a20686578206c656e67746820696e73756666696369656e74604482015260640161025e565b9392505050565b603380546001600160a01b0319166001600160a01b0392909216919091179055565b6001600160a01b0382166000908152603a60205260408120549003610912575050565b6001600160a01b0382166000908152603a602052604081208054610938906001906110cf565b815481106109485761094861102b565b6000918252602082206002909102015460375490925061096890836110cf565b905060006036544261097a91906110cf565b905080821015610988578091505b6000603454426109989190611057565b6001600160a01b0387166000908152603a60209081526040808320603b90925290912054919250905b8154811080156109d15750600087115b15610a945760008282815481106109ea576109ea61102b565b9060005260206000209060020201905085816000015410158015610a12575060008160010154115b15610a815780600101548810610a53576001810154610a3190896110cf565b9750610a47898260010154836000015487610dde565b60006001820155610a81565b87816001016000828254610a6791906110cf565b90915550508054610a7c908a908a9087610dde565b600097505b5080610a8c8161106a565b9150506109c1565b610a9f6001826110cf565b6001600160a01b0389166000908152603b60209081526040808320939093556038815282822060399091529190205491505b805482108015610ae15750600088115b15610bf6576000818381548110610afa57610afa61102b565b9060005260206000209060040201905080600301544210158015610b1e5750805415155b8015610b2e575086816001015410155b15610b965780548910610b66578054610b47908a6110cf565b9850610b5d8a8260000154836001015488610dde565b60008155610b96565b88816000016000828254610b7a91906110cf565b92505081905550610b918a8a836001015488610dde565b600098505b600083118015610ba95750868160010154105b8015610bb9575080600301544210155b15610be357610bc96001846110cf565b6001600160a01b038b166000908152603960205260409020555b5081610bee8161106a565b925050610ad1565b505050505050505050565b6001600160a01b03821660009081526038602052604081209082905b825481108015610c2d5750600082115b15610d69576000838281548110610c4657610c4661102b565b9060005260206000209060040201905080600201544210158015610c6d5750806003015442105b15610d56578054831015610cee5782816000016000828254610c8f91906110cf565b9091555050604080516001600160a01b038816815260208101849052908101869052606081018490527f88df51604bd81ecd1d454f02f16d31c27afffaef868dea4da640ff895531eef99060800160405180910390a160009250610d56565b8054610cfa90846110cf565b8154604080516001600160a01b038a1681526020810186905290810188905260608101919091529093507f88df51604bd81ecd1d454f02f16d31c27afffaef868dea4da640ff895531eef99060800160405180910390a1600081555b5080610d618161106a565b915050610c1d565b5080156103275760405162461bcd60e51b815260206004820152603860248201527f526564656d7074696f6e20636f6e74726f6c6c65723a20616d6f756e7420657860448201527f63656564732072656465656d61626c652062616c616e63650000000000000000606482015260840161025e565b6000604051806080016040528085815260200184815260200183815260200160355484610e0b9190611057565b90526001600160a01b03861660008181526038602090815260409182902054848301516060808701518551968752938601929092528484018a9052908401526080830152519192507fa1cceaf5d06d6a23333e8f52d7dd40fe7e8b9b01b3d5e9728f48c76378c27378919081900360a00190a16001600160a01b03909416600090815260386020908152604080832080546001818101835591855293839020885160049095020193845591870151918301919091558501516002820155606090940151600390940193909355505050565b6001600160a01b0381168114610ef157600080fd5b50565b600060208284031215610f0657600080fd5b81356108c681610edc565b60008060408385031215610f2457600080fd5b8235610f2f81610edc565b946020939093013593505050565b600060208284031215610f4f57600080fd5b815180151581146108c657600080fd5b60005b83811015610f7a578181015183820152602001610f62565b50506000910152565b7f416363657373436f6e74726f6c3a206163636f756e7420000000000000000000815260008351610fbb816017850160208801610f5f565b7001034b99036b4b9b9b4b733903937b6329607d1b6017918401918201528351610fec816028840160208801610f5f565b01602801949350505050565b6020815260008251806020840152611017816040850160208701610f5f565b601f01601f19169190910160400192915050565b634e487b7160e01b600052603260045260246000fd5b634e487b7160e01b600052601160045260246000fd5b8082018082111561072457610724611041565b60006001820161107c5761107c611041565b5060010190565b600081600019048311821515161561109d5761109d611041565b500290565b634e487b7160e01b600052604160045260246000fd5b6000816110c7576110c7611041565b506000190190565b818103818111156107245761072461104156fea26469706673582212205632ff9e62655f8dc864a871a866a768c4b3ed6ac68dff5453a17e3d213b7eaf64736f6c63430008100033",
  "linkReferences": {},
  "deployedLinkReferences": {}
}