{
  "_format": "hh-sol-artifact-1",
  "contractName": "ResolutionManager",
  "sourceName": "contracts/ResolutionManager/ResolutionManager.sol",
  "abi": [
    {
      "inputs": [],
      "stateMutability": "nonpayable",
      "type": "constructor"
    },
    {
      "anonymous": false,
      "inputs": [
        {
          "indexed": true,
          "internalType": "address",
          "name": "from",
          "type": "address"
        },
        {
          "indexed": true,
          "internalType": "uint256",
          "name": "resolutionId",
          "type": "uint256"
        },
        {
          "indexed": false,
          "internalType": "uint256",
          "name": "amount",
          "type": "uint256"
        }
      ],
      "name": "DelegateLostVotingPower",
      "type": "event"
    },
    {
      "anonymous": false,
      "inputs": [
        {
          "indexed": false,
          "internalType": "uint8",
          "name": "version",
          "type": "uint8"
        }
      ],
      "name": "Initialized",
      "type": "event"
    },
    {
      "anonymous": false,
      "inputs": [
        {
          "indexed": true,
          "internalType": "address",
          "name": "from",
          "type": "address"
        },
        {
          "indexed": true,
          "internalType": "uint256",
          "name": "resolutionId",
          "type": "uint256"
        }
      ],
      "name": "ResolutionApproved",
      "type": "event"
    },
    {
      "anonymous": false,
      "inputs": [
        {
          "indexed": true,
          "internalType": "address",
          "name": "from",
          "type": "address"
        },
        {
          "indexed": true,
          "internalType": "uint256",
          "name": "resolutionId",
          "type": "uint256"
        }
      ],
      "name": "ResolutionCreated",
      "type": "event"
    },
    {
      "anonymous": false,
      "inputs": [
        {
          "indexed": true,
          "internalType": "address",
          "name": "from",
          "type": "address"
        },
        {
          "indexed": true,
          "internalType": "uint256",
          "name": "resolutionId",
          "type": "uint256"
        }
      ],
      "name": "ResolutionExecuted",
      "type": "event"
    },
    {
      "anonymous": false,
      "inputs": [
        {
          "indexed": true,
          "internalType": "address",
          "name": "from",
          "type": "address"
        },
        {
          "indexed": true,
          "internalType": "uint256",
          "name": "resolutionId",
          "type": "uint256"
        }
      ],
      "name": "ResolutionRejected",
      "type": "event"
    },
    {
      "anonymous": false,
      "inputs": [
        {
          "indexed": true,
          "internalType": "address",
          "name": "from",
          "type": "address"
        },
        {
          "indexed": true,
          "internalType": "uint256",
          "name": "typeIndex",
          "type": "uint256"
        }
      ],
      "name": "ResolutionTypeCreated",
      "type": "event"
    },
    {
      "anonymous": false,
      "inputs": [
        {
          "indexed": true,
          "internalType": "address",
          "name": "from",
          "type": "address"
        },
        {
          "indexed": true,
          "internalType": "uint256",
          "name": "resolutionId",
          "type": "uint256"
        }
      ],
      "name": "ResolutionUpdated",
      "type": "event"
    },
    {
      "anonymous": false,
      "inputs": [
        {
          "indexed": true,
          "internalType": "address",
          "name": "from",
          "type": "address"
        },
        {
          "indexed": true,
          "internalType": "uint256",
          "name": "resolutionId",
          "type": "uint256"
        },
        {
          "indexed": false,
          "internalType": "uint256",
          "name": "votingPower",
          "type": "uint256"
        },
        {
          "indexed": false,
          "internalType": "bool",
          "name": "isYes",
          "type": "bool"
        }
      ],
      "name": "ResolutionVoted",
      "type": "event"
    },
    {
      "inputs": [
        {
          "internalType": "string",
          "name": "name",
          "type": "string"
        },
        {
          "internalType": "uint256",
          "name": "quorum",
          "type": "uint256"
        },
        {
          "internalType": "uint256",
          "name": "noticePeriod",
          "type": "uint256"
        },
        {
          "internalType": "uint256",
          "name": "votingPeriod",
          "type": "uint256"
        },
        {
          "internalType": "bool",
          "name": "canBeNegative",
          "type": "bool"
        }
      ],
      "name": "addResolutionType",
      "outputs": [],
      "stateMutability": "nonpayable",
      "type": "function"
    },
    {
      "inputs": [
        {
          "internalType": "uint256",
          "name": "resolutionId",
          "type": "uint256"
        }
      ],
      "name": "approveResolution",
      "outputs": [],
      "stateMutability": "nonpayable",
      "type": "function"
    },
    {
      "inputs": [
        {
          "internalType": "string",
          "name": "dataURI",
          "type": "string"
        },
        {
          "internalType": "uint256",
          "name": "resolutionTypeId",
          "type": "uint256"
        },
        {
          "internalType": "bool",
          "name": "isNegative",
          "type": "bool"
        },
        {
          "internalType": "address[]",
          "name": "executionTo",
          "type": "address[]"
        },
        {
          "internalType": "bytes[]",
          "name": "executionData",
          "type": "bytes[]"
        }
      ],
      "name": "createResolution",
      "outputs": [
        {
          "internalType": "uint256",
          "name": "",
          "type": "uint256"
        }
      ],
      "stateMutability": "nonpayable",
      "type": "function"
    },
    {
      "inputs": [
        {
          "internalType": "string",
          "name": "dataURI",
          "type": "string"
        },
        {
          "internalType": "uint256",
          "name": "resolutionTypeId",
          "type": "uint256"
        },
        {
          "internalType": "address[]",
          "name": "executionTo",
          "type": "address[]"
        },
        {
          "internalType": "bytes[]",
          "name": "executionData",
          "type": "bytes[]"
        },
        {
          "internalType": "address",
          "name": "excludedContributor",
          "type": "address"
        }
      ],
      "name": "createResolutionWithExclusion",
      "outputs": [
        {
          "internalType": "uint256",
          "name": "",
          "type": "uint256"
        }
      ],
      "stateMutability": "nonpayable",
      "type": "function"
    },
    {
      "inputs": [
        {
          "internalType": "uint256",
          "name": "resolutionId",
          "type": "uint256"
        }
      ],
      "name": "executeResolution",
      "outputs": [],
      "stateMutability": "nonpayable",
      "type": "function"
    },
    {
      "inputs": [
        {
          "internalType": "uint256",
          "name": "resolutionId",
          "type": "uint256"
        }
      ],
      "name": "getExecutionDetails",
      "outputs": [
        {
          "internalType": "address[]",
          "name": "",
          "type": "address[]"
        },
        {
          "internalType": "bytes[]",
          "name": "",
          "type": "bytes[]"
        }
      ],
      "stateMutability": "view",
      "type": "function"
    },
    {
      "inputs": [
        {
          "internalType": "uint256",
          "name": "resolutionId",
          "type": "uint256"
        }
      ],
      "name": "getResolutionResult",
      "outputs": [
        {
          "internalType": "bool",
          "name": "",
          "type": "bool"
        }
      ],
      "stateMutability": "view",
      "type": "function"
    },
    {
      "inputs": [],
      "name": "getRoles",
      "outputs": [
        {
          "internalType": "contract DAORoles",
          "name": "",
          "type": "address"
        }
      ],
      "stateMutability": "view",
      "type": "function"
    },
    {
      "inputs": [
        {
          "internalType": "uint256",
          "name": "resolutionId",
          "type": "uint256"
        },
        {
          "internalType": "address",
          "name": "voter",
          "type": "address"
        }
      ],
      "name": "getVoterVote",
      "outputs": [
        {
          "internalType": "bool",
          "name": "isYes",
          "type": "bool"
        },
        {
          "internalType": "bool",
          "name": "hasVoted",
          "type": "bool"
        },
        {
          "internalType": "uint256",
          "name": "votingPower",
          "type": "uint256"
        }
      ],
      "stateMutability": "view",
      "type": "function"
    },
    {
      "inputs": [
        {
          "internalType": "contract DAORoles",
          "name": "roles",
          "type": "address"
        },
        {
          "internalType": "contract IShareholderRegistry",
          "name": "shareholderRegistry",
          "type": "address"
        },
        {
          "internalType": "contract IGovernanceToken",
          "name": "governanceToken",
          "type": "address"
        },
        {
          "internalType": "contract IVoting",
          "name": "voting",
          "type": "address"
        }
      ],
      "name": "initialize",
      "outputs": [],
      "stateMutability": "nonpayable",
      "type": "function"
    },
    {
      "inputs": [
        {
          "internalType": "uint256",
          "name": "resolutionId",
          "type": "uint256"
        }
      ],
      "name": "rejectResolution",
      "outputs": [],
      "stateMutability": "nonpayable",
      "type": "function"
    },
    {
      "inputs": [
        {
          "internalType": "uint256",
          "name": "",
          "type": "uint256"
        }
      ],
      "name": "resolutionTypes",
      "outputs": [
        {
          "internalType": "string",
          "name": "name",
          "type": "string"
        },
        {
          "internalType": "uint256",
          "name": "quorum",
          "type": "uint256"
        },
        {
          "internalType": "uint256",
          "name": "noticePeriod",
          "type": "uint256"
        },
        {
          "internalType": "uint256",
          "name": "votingPeriod",
          "type": "uint256"
        },
        {
          "internalType": "bool",
          "name": "canBeNegative",
          "type": "bool"
        }
      ],
      "stateMutability": "view",
      "type": "function"
    },
    {
      "inputs": [
        {
          "internalType": "uint256",
          "name": "",
          "type": "uint256"
        }
      ],
      "name": "resolutions",
      "outputs": [
        {
          "internalType": "string",
          "name": "dataURI",
          "type": "string"
        },
        {
          "internalType": "uint256",
          "name": "resolutionTypeId",
          "type": "uint256"
        },
        {
          "internalType": "uint256",
          "name": "approveTimestamp",
          "type": "uint256"
        },
        {
          "internalType": "uint256",
          "name": "snapshotId",
          "type": "uint256"
        },
        {
          "internalType": "uint256",
          "name": "yesVotesTotal",
          "type": "uint256"
        },
        {
          "internalType": "bool",
          "name": "isNegative",
          "type": "bool"
        },
        {
          "internalType": "uint256",
          "name": "rejectionTimestamp",
          "type": "uint256"
        },
        {
          "internalType": "uint256",
          "name": "executionTimestamp",
          "type": "uint256"
        },
        {
          "internalType": "address",
          "name": "addressedContributor",
          "type": "address"
        }
      ],
      "stateMutability": "view",
      "type": "function"
    },
    {
      "inputs": [
        {
          "internalType": "contract IGovernanceToken",
          "name": "governanceToken",
          "type": "address"
        }
      ],
      "name": "setGovernanceToken",
      "outputs": [],
      "stateMutability": "nonpayable",
      "type": "function"
    },
    {
      "inputs": [
        {
          "internalType": "contract DAORoles",
          "name": "roles",
          "type": "address"
        }
      ],
      "name": "setRoles",
      "outputs": [],
      "stateMutability": "nonpayable",
      "type": "function"
    },
    {
      "inputs": [
        {
          "internalType": "contract IShareholderRegistry",
          "name": "shareholderRegistry",
          "type": "address"
        }
      ],
      "name": "setShareholderRegistry",
      "outputs": [],
      "stateMutability": "nonpayable",
      "type": "function"
    },
    {
      "inputs": [
        {
          "internalType": "contract IVoting",
          "name": "voting",
          "type": "address"
        }
      ],
      "name": "setVoting",
      "outputs": [],
      "stateMutability": "nonpayable",
      "type": "function"
    },
    {
      "inputs": [
        {
          "internalType": "uint256",
          "name": "resolutionId",
          "type": "uint256"
        },
        {
          "internalType": "string",
          "name": "dataURI",
          "type": "string"
        },
        {
          "internalType": "uint256",
          "name": "resolutionTypeId",
          "type": "uint256"
        },
        {
          "internalType": "bool",
          "name": "isNegative",
          "type": "bool"
        },
        {
          "internalType": "address[]",
          "name": "executionTo",
          "type": "address[]"
        },
        {
          "internalType": "bytes[]",
          "name": "executionData",
          "type": "bytes[]"
        }
      ],
      "name": "updateResolution",
      "outputs": [],
      "stateMutability": "nonpayable",
      "type": "function"
    },
    {
      "inputs": [
        {
          "internalType": "uint256",
          "name": "resolutionId",
          "type": "uint256"
        },
        {
          "internalType": "bool",
          "name": "isYes",
          "type": "bool"
        }
      ],
      "name": "vote",
      "outputs": [],
      "stateMutability": "nonpayable",
      "type": "function"
    }
  ],
  "bytecode": "0x60806040523480156200001157600080fd5b50600054610100900460ff1615808015620000335750600054600160ff909116105b806200004f5750303b1580156200004f575060005460ff166001145b620000b75760405162461bcd60e51b815260206004820152602e60248201527f496e697469616c697a61626c653a20636f6e747261637420697320616c72656160448201526d191e481a5b9a5d1a585b1a5e995960921b606482015260840160405180910390fd5b6000805460ff191660011790558015620000db576000805461ff0019166101001790555b801562000122576000805461ff0019169055604051600181527f7f26b83ff96e1f2b6a682f133852f6798a09c465da95921460cefb38474024989060200160405180910390a15b50613da480620001336000396000f3fe608060405234801561001057600080fd5b50600436106101215760003560e01c80637cbf3b6b116100ad578063c9d27afe11610071578063c9d27afe146102b2578063d7a2599a146102c5578063f8570170146102d8578063f8c8765e146102eb578063fd2c9719146102fe57600080fd5b80637cbf3b6b1461022d5780639664820614610240578063a260b10214610264578063a4b7f5ce14610277578063c4d079511461029f57600080fd5b80633ff973d9116100f45780633ff973d914610199578063444be179146101c9578063607bbbf4146101dc57806361053090146101ff578063710613981461021257600080fd5b806309031db614610126578063245b9a321461013b57806325bd38ea14610165578063325ae67a14610178575b600080fd5b610139610134366004613101565b610311565b005b61014e61014936600461311e565b610400565b60405161015c929190613187565b60405180910390f35b6101396101733660046132d5565b610550565b61018b6101863660046134ce565b61060e565b60405190815260200161015c565b6101ac6101a7366004613579565b61062b565b60408051931515845291151560208401529082015260600161015c565b6101396101d73660046135a9565b610944565b6101ef6101ea36600461311e565b610a54565b604051901515815260200161015c565b61013961020d36600461311e565b610c6b565b6039546040516001600160a01b03909116815260200161015c565b61013961023b36600461311e565b610d78565b61025361024e36600461311e565b610d81565b60405161015c95949392919061365f565b610139610272366004613101565b610e53565b61028a61028536600461311e565b610f09565b60405161015c99989796959493929190613698565b6101396102ad366004613101565b610fe7565b6101396102c03660046136f5565b61109d565b61018b6102d336600461371a565b6110ab565b6101396102e6366004613101565b6110bd565b6101396102f93660046137c5565b611173565b61013961030c36600461311e565b611294565b600080516020613d4f833981519152600033603954604051632474521560e21b8152600481018590526001600160a01b0380841660248301529293509116906391d1485490604401602060405180830381865afa158015610376573d6000803e3d6000fd5b505050506040513d601f19601f8201168201806040525081019061039a9190613821565b6103f2576103a78161139e565b6103b28360206113ba565b6040516020016103c392919061383e565b60408051601f198184030181529082905262461bcd60e51b82526103e9916004016138b3565b60405180910390fd5b6103fb8361155d565b505050565b60008181526006602090815260409182902060078101805484518185028101850190955280855260609485946008850192849183018282801561046c57602002820191906000526020600020905b81546001600160a01b0316815260019091019060200180831161044e575b5050505050915080805480602002602001604051908101604052809291908181526020016000905b828210156105405783829060005260206000200180546104b3906138c6565b80601f01602080910402602001604051908101604052809291908181526020018280546104df906138c6565b801561052c5780601f106105015761010080835404028352916020019161052c565b820191906000526020600020905b81548152906001019060200180831161050f57829003601f168201915b505050505081526020019060010190610494565b5050505090509250925050915091565b7f7b97752341782019d21e7c1027eedcd270e56f5b672dcc28d53bf58a346002fc600033603954604051632474521560e21b8152600481018590526001600160a01b0380841660248301529293509116906391d1485490604401602060405180830381865afa1580156105c7573d6000803e3d6000fd5b505050506040513d601f19601f820116820180604052508101906105eb9190613821565b6105f8576103a78161139e565b610605878787878761157f565b50505050505050565b60006106208787878787876000611666565b979650505050505050565b6000828152600660205260408120600a810154829182916001600160a01b031633148015906106cc575060048054600383015460405163b652d57b60e01b81526001600160a01b039092169263b652d57b9261068b928a92909101613900565b602060405180830381865afa1580156106a8573d6000803e3d6000fd5b505050506040513d601f19601f820116820180604052508101906106cc9190613821565b6106e85760405162461bcd60e51b81526004016103e990613919565b6001600160a01b038581166000818152600c84016020908152604080832054600b870190925291829020546004805460038801549451630fcc97f960e11b815260ff9485169b5093909216985093941692631f992ff29261074b928b9201613900565b602060405180830381865afa158015610768573d6000803e3d6000fd5b505050506040513d601f19601f8201168201806040525081019061078c9190613950565b6001600160a01b0316141580156107a05750825b156108a457600254600382015460405163277166bf60e11b81526001600160a01b0390921691634ee2cd7e916107db91899190600401613900565b602060405180830381865afa1580156107f8573d6000803e3d6000fd5b505050506040513d601f19601f8201168201806040525081019061081c919061396d565b600380549083015460405163277166bf60e11b81526001600160a01b0390921691634ee2cd7e91610852918a9190600401613900565b602060405180830381865afa15801561086f573d6000803e3d6000fd5b505050506040513d601f19601f82011682018060405250810190610893919061396d565b61089d919061399c565b915061093c565b6001600160a01b038086166000908152600d830160205260409081902054600480546003860154935163eaeded5f60e01b81529294169263eaeded5f926108ee928b929101613900565b602060405180830381865afa15801561090b573d6000803e3d6000fd5b505050506040513d601f19601f8201168201806040525081019061092f919061396d565b61093991906139af565b91505b509250925092565b600254604080516306c1c03b60e01b815290516001600160a01b0390921691630ea018f79183916306c1c03b916004808201926020929091908290030181865afa158015610996573d6000803e3d6000fd5b505050506040513d601f19601f820116820180604052508101906109ba919061396d565b336040516001600160e01b031960e085901b16815260048101929092526001600160a01b03166024820152604401602060405180830381865afa158015610a05573d6000803e3d6000fd5b505050506040513d601f19601f82011682018060405250810190610a299190613821565b610a455760405162461bcd60e51b81526004016103e9906139c2565b61060587878787878787611940565b60008181526006602052604081206001810154600580548492908110610a7c57610a7c613a0c565b600091825260208220600480546003870154604051633fadf73b60e01b81529283015260059390930290910193506001600160a01b0390911690633fadf73b90602401602060405180830381865afa158015610adc573d6000803e3d6000fd5b505050506040513d601f19601f82011682018060405250810190610b00919061396d565b600a8401549091506001600160a01b031615610c2557600254600a840154600385015460405163277166bf60e11b81526001600160a01b0393841693634ee2cd7e93610b5193911691600401613900565b602060405180830381865afa158015610b6e573d6000803e3d6000fd5b505050506040513d601f19601f82011682018060405250810190610b92919061396d565b60038054600a8601549186015460405163277166bf60e11b81526001600160a01b0392831693634ee2cd7e93610bcd93911691600401613900565b602060405180830381865afa158015610bea573d6000803e3d6000fd5b505050506040513d601f19601f82011682018060405250810190610c0e919061396d565b610c18919061399c565b610c2290826139af565b90505b6000818360010154610c379190613a22565b6004850154610c47906064613a22565b6005860154911115915060ff16610c5e5780610c61565b80155b9695505050505050565b600254604080516306c1c03b60e01b815290516001600160a01b0390921691630ea018f79183916306c1c03b916004808201926020929091908290030181865afa158015610cbd573d6000803e3d6000fd5b505050506040513d601f19601f82011682018060405250810190610ce1919061396d565b336040516001600160e01b031960e085901b16815260048101929092526001600160a01b03166024820152604401602060405180830381865afa158015610d2c573d6000803e3d6000fd5b505050506040513d601f19601f82011682018060405250810190610d509190613821565b610d6c5760405162461bcd60e51b81526004016103e990613a39565b610d7581611bf8565b50565b610d7581611f96565b60058181548110610d9157600080fd5b9060005260206000209060050201600091509050806000018054610db4906138c6565b80601f0160208091040260200160405190810160405280929190818152602001828054610de0906138c6565b8015610e2d5780601f10610e0257610100808354040283529160200191610e2d565b820191906000526020600020905b815481529060010190602001808311610e1057829003601f168201915b505050506001830154600284015460038501546004909501549394919390925060ff1685565b600080516020613d4f833981519152600033603954604051632474521560e21b8152600481018590526001600160a01b0380841660248301529293509116906391d1485490604401602060405180830381865afa158015610eb8573d6000803e3d6000fd5b505050506040513d601f19601f82011682018060405250810190610edc9190613821565b610ee9576103a78161139e565b600280546001600160a01b0319166001600160a01b038516179055505050565b600660205260009081526040902080548190610f24906138c6565b80601f0160208091040260200160405190810160405280929190818152602001828054610f50906138c6565b8015610f9d5780601f10610f7257610100808354040283529160200191610f9d565b820191906000526020600020905b815481529060010190602001808311610f8057829003601f168201915b50505060018401546002850154600386015460048701546005880154600689015460098a0154600a909a015498999598949750929550909360ff909116926001600160a01b031689565b600080516020613d4f833981519152600033603954604051632474521560e21b8152600481018590526001600160a01b0380841660248301529293509116906391d1485490604401602060405180830381865afa15801561104c573d6000803e3d6000fd5b505050506040513d601f19601f820116820180604052508101906110709190613821565b61107d576103a78161139e565b600480546001600160a01b0319166001600160a01b038516179055505050565b6110a782826123a6565b5050565b60006106208787876000888888611666565b600080516020613d4f833981519152600033603954604051632474521560e21b8152600481018590526001600160a01b0380841660248301529293509116906391d1485490604401602060405180830381865afa158015611122573d6000803e3d6000fd5b505050506040513d601f19601f820116820180604052508101906111469190613821565b611153576103a78161139e565b600380546001600160a01b0319166001600160a01b038516179055505050565b600054610100900460ff16158080156111935750600054600160ff909116105b806111ad5750303b1580156111ad575060005460ff166001145b6112105760405162461bcd60e51b815260206004820152602e60248201527f496e697469616c697a61626c653a20636f6e747261637420697320616c72656160448201526d191e481a5b9a5d1a585b1a5e995960921b60648201526084016103e9565b6000805460ff191660011790558015611233576000805461ff0019166101001790555b61123c8561155d565b6112478484846129a4565b801561128d576000805461ff0019169055604051600181527f7f26b83ff96e1f2b6a682f133852f6798a09c465da95921460cefb38474024989060200160405180910390a15b5050505050565b600254604080516306c1c03b60e01b815290516001600160a01b0390921691630ea018f79183916306c1c03b916004808201926020929091908290030181865afa1580156112e6573d6000803e3d6000fd5b505050506040513d601f19601f8201168201806040525081019061130a919061396d565b336040516001600160e01b031960e085901b16815260048101929092526001600160a01b03166024820152604401602060405180830381865afa158015611355573d6000803e3d6000fd5b505050506040513d601f19601f820116820180604052508101906113799190613821565b6113955760405162461bcd60e51b81526004016103e990613a84565b610d7581612ba3565b60606113b46001600160a01b03831660146113ba565b92915050565b606060006113c9836002613a22565b6113d490600261399c565b67ffffffffffffffff8111156113ec576113ec613228565b6040519080825280601f01601f191660200182016040528015611416576020820181803683370190505b509050600360fc1b8160008151811061143157611431613a0c565b60200101906001600160f81b031916908160001a905350600f60fb1b8160018151811061146057611460613a0c565b60200101906001600160f81b031916908160001a9053506000611484846002613a22565b61148f90600161399c565b90505b6001811115611507576f181899199a1a9b1b9c1cb0b131b232b360811b85600f16601081106114c3576114c3613a0c565b1a60f81b8282815181106114d9576114d9613a0c565b60200101906001600160f81b031916908160001a90535060049490941c9361150081613ace565b9050611492565b5083156115565760405162461bcd60e51b815260206004820181905260248201527f537472696e67733a20686578206c656e67746820696e73756666696369656e7460448201526064016103e9565b9392505050565b603980546001600160a01b0319166001600160a01b0392909216919091179055565b6040805160a08101825286815260208101869052908101849052606081018390528115156080820152600580546001810182556000829052825191027f036b6384b5eca791c62761152d0c79bb0604c104a5fb6f4eb0703f3154bb3db0019081906115ea9082613b2b565b50602082015160018281019190915560408301516002830155606083015160038301556080909201516004909101805460ff191691151591909117905560055461163491906139af565b60405133907fc9b91babd5124906e4cca98d9386ddac639dfee98b2bd33a27dbb5c048bd855a90600090a35050505050565b6000806005878154811061167c5761167c613a0c565b600091825260209182902060025460408051633bef226f60e21b81529051600590940290920194506001600160a01b031692630ea018f792849263efbc89bc9260048083019391928290030181865afa1580156116dd573d6000803e3d6000fd5b505050506040513d601f19601f82011682018060405250810190611701919061396d565b6040516001600160e01b031960e084901b1681526004810191909152336024820152604401602060405180830381865afa158015611743573d6000803e3d6000fd5b505050506040513d601f19601f820116820180604052508101906117679190613821565b6117c35760405162461bcd60e51b815260206004820152602760248201527f5265736f6c7574696f6e3a206f6e6c7920636f6e7472696275746f722063616e6044820152662063726561746560c81b60648201526084016103e9565b8515806117d45750600481015460ff165b6118205760405162461bcd60e51b815260206004820152601e60248201527f5265736f6c7574696f6e3a2063616e6e6f74206265206e65676174697665000060448201526064016103e9565b83518551146118715760405162461bcd60e51b815260206004820152601b60248201527f5265736f6c7574696f6e3a206c656e677468206d69736d61746368000000000060448201526064016103e9565b600180546000918261188283613beb565b90915550604051909150819033907f5cb605df30db4389dcc26eb7b6ac40cee45e3da41204619ed102f777bf814f8b90600090a36000818152600660205260409020806118d08b8d83613c04565b506001810189905560058101805460ff191689151517905586516118fd90600783019060208a0190612fc9565b508551611913906008830190602089019061302e565b50600a0180546001600160a01b0386166001600160a01b0319909116179055915050979650505050505050565b60008781526006602052604090206002810154889190156119735760405162461bcd60e51b81526004016103e990613cc4565b6006810154156119955760405162461bcd60e51b81526004016103e990613cfb565b604051899033907fe9fbf855f59ea63a795f1f64e447af0f3316384d1f74ac2685c9cf4231d15ef890600090a360008981526006602052604090208351855114611a215760405162461bcd60e51b815260206004820152601b60248201527f5265736f6c7574696f6e3a206c656e677468206d69736d61746368000000000060448201526064016103e9565b600254604080516306c1c03b60e01b815290516001600160a01b0390921691630ea018f79183916306c1c03b916004808201926020929091908290030181865afa158015611a73573d6000803e3d6000fd5b505050506040513d601f19601f82011682018060405250810190611a97919061396d565b6040516001600160e01b031960e084901b1681526004810191909152336024820152604401602060405180830381865afa158015611ad9573d6000803e3d6000fd5b505050506040513d601f19601f82011682018060405250810190611afd9190613821565b611b195760405162461bcd60e51b81526004016103e9906139c2565b600060058881548110611b2e57611b2e613a0c565b90600052602060002090600502019050861580611b4f5750600481015460ff165b611b9b5760405162461bcd60e51b815260206004820152601e60248201527f5265736f6c7574696f6e3a2063616e6e6f74206265206e65676174697665000060448201526064016103e9565b81611ba78a8c83613c04565b506001820188905560058201805460ff19168815151790558551611bd49060078401906020890190612fc9565b508451611bea906008840190602088019061302e565b505050505050505050505050565b6000818152600660205260409020600281015482919015611c2b5760405162461bcd60e51b81526004016103e990613cc4565b600681015415611c4d5760405162461bcd60e51b81526004016103e990613cfb565b826001548110611c9f5760405162461bcd60e51b815260206004820152601a60248201527f5265736f6c7574696f6e3a20646f6573206e6f7420657869737400000000000060448201526064016103e9565b604051849033907f6f6c6ecde2adc206ce4f038800c59db57260d8a236c7a599438a553d7e4b3aa690600090a3600254604080516306c1c03b60e01b815290516001600160a01b0390921691630ea018f79183916306c1c03b916004808201926020929091908290030181865afa158015611d1e573d6000803e3d6000fd5b505050506040513d601f19601f82011682018060405250810190611d42919061396d565b6040516001600160e01b031960e084901b1681526004810191909152336024820152604401602060405180830381865afa158015611d84573d6000803e3d6000fd5b505050506040513d601f19601f82011682018060405250810190611da89190613821565b611dc45760405162461bcd60e51b81526004016103e990613a39565b6000848152600660205260408120426002820155600a8101549091906001600160a01b031615611ee95760048054600a840154604051631513615960e21b81526001600160a01b0391821693810193909352169063544d856490602401602060405180830381865afa158015611e3e573d6000803e3d6000fd5b505050506040513d601f19601f82011682018060405250810190611e629190613950565b600a8301549091506001600160a01b03808316911614611ee95760048054600a840154604051632949582d60e01b81526001600160a01b0391821693810184905260248101939093521690632949582d90604401600060405180830381600087803b158015611ed057600080fd5b505af1158015611ee4573d6000803e3d6000fd5b505050505b611ef1612d89565b6003830155600a8201546001600160a01b031615611f8e57600a8201546001600160a01b03828116911614611f8e5760048054600a840154604051632949582d60e01b81526001600160a01b039182169381019390935283811660248401521690632949582d90604401600060405180830381600087803b158015611f7557600080fd5b505af1158015611f89573d6000803e3d6000fd5b505050505b505050505050565b604051819033907f14a68c83cab032d52f3c5eb75dcda4cfdc0efbe72a39c36bda85edd44918df0990600090a3600081815260066020526040902060078101546120225760405162461bcd60e51b815260206004820152601e60248201527f5265736f6c7574696f6e3a206e6f7468696e6720746f2065786563757465000060448201526064016103e9565b60008160020154116120715760405162461bcd60e51b815260206004820152601860248201527714995cdbdb1d5d1a5bdb8e881b9bdd08185c1c1c9bdd995960421b60448201526064016103e9565b6009810154156120c35760405162461bcd60e51b815260206004820152601c60248201527f5265736f6c7574696f6e3a20616c72656164792065786563757465640000000060448201526064016103e9565b60006120ce82612f6f565b915050804210156121195760405162461bcd60e51b815260206004820152601560248201527414995cdbdb1d5d1a5bdb8e881b9bdd08195b991959605a1b60448201526064016103e9565b61212283610a54565b6121675760405162461bcd60e51b815260206004820152601660248201527514995cdbdb1d5d1a5bdb8e881b9bdd081c185cdcd95960521b60448201526064016103e9565b6000826007018054806020026020016040519081016040528092919081815260200182805480156121c157602002820191906000526020600020905b81546001600160a01b031681526001909101906020018083116121a3575b50505050509050600083600801805480602002602001604051908101604052809291908181526020016000905b8282101561229a57838290600052602060002001805461220d906138c6565b80601f0160208091040260200160405190810160405280929190818152602001828054612239906138c6565b80156122865780601f1061225b57610100808354040283529160200191612286565b820191906000526020600020905b81548152906001019060200180831161226957829003601f168201915b5050505050815260200190600101906121ee565b505042600988015550909150600090505b8251811015611f8e5760008382815181106122c8576122c8613a0c565b60200260200101516001600160a01b03168383815181106122eb576122eb613a0c565b60200260200101516040516123009190613d32565b6000604051808303816000865af19150503d806000811461233d576040519150601f19603f3d011682016040523d82523d6000602084013e612342565b606091505b50509050806123935760405162461bcd60e51b815260206004820152601c60248201527f5265736f6c7574696f6e3a20657865637574696f6e206661696c65640000000060448201526064016103e9565b508061239e81613beb565b9150506122ab565b600082815260066020526040902060028101546124005760405162461bcd60e51b815260206004820152601860248201527714995cdbdb1d5d1a5bdb8e881b9bdd08185c1c1c9bdd995960421b60448201526064016103e9565b600a8101546001600160a01b0316330361242c5760405162461bcd60e51b81526004016103e990613919565b60048054600383015460405163b652d57b60e01b81526001600160a01b039092169263b652d57b92612462923392909101613900565b602060405180830381865afa15801561247f573d6000803e3d6000fd5b505050506040513d601f19601f820116820180604052508101906124a39190613821565b6124bf5760405162461bcd60e51b81526004016103e990613919565b336000908152600c8201602052604090205460ff1615158215151415806124f85750336000908152600b8201602052604090205460ff16155b61254f5760405162461bcd60e51b815260206004820152602260248201527f5265736f6c7574696f6e3a2063616e2774207265706561742073616d6520766f604482015261746560f01b60648201526084016103e9565b60008061255b83612f6f565b9150915081421015801561256e57508042105b6125ba5760405162461bcd60e51b815260206004820152601760248201527f5265736f6c7574696f6e3a206e6f7420766f7461626c6500000000000000000060448201526064016103e9565b60048054600385015460405163eaeded5f60e01b81526000936001600160a01b039093169263eaeded5f926125f192339201613900565b602060405180830381865afa15801561260e573d6000803e3d6000fd5b505050506040513d601f19601f82011682018060405250810190612632919061396d565b600480546003870154604051630fcc97f960e11b81529394506000936001600160a01b0390921692631f992ff29261266e923392909101613900565b602060405180830381865afa15801561268b573d6000803e3d6000fd5b505050506040513d601f19601f820116820180604052508101906126af9190613950565b90506001600160a01b038116331461288f57600254600386015460405163277166bf60e11b81526001600160a01b0390921691634ee2cd7e916126f791339190600401613900565b602060405180830381865afa158015612714573d6000803e3d6000fd5b505050506040513d601f19601f82011682018060405250810190612738919061396d565b600380549087015460405163277166bf60e11b81526001600160a01b0390921691634ee2cd7e9161276e91339190600401613900565b602060405180830381865afa15801561278b573d6000803e3d6000fd5b505050506040513d601f19601f820116820180604052508101906127af919061396d565b6127b9919061399c565b6001600160a01b0382166000908152600b8701602052604090205490925060ff16801561280057506001600160a01b0381166000908152600c8601602052604090205460ff165b1561281f578185600401600082825461281991906139af565b90915550505b6001600160a01b0381166000908152600d860160205260408120805484929061284990849061399c565b909155505060405182815287906001600160a01b038316907f2a753d47dc7411744b037903d0f3d1273bd5046e19f509d13d0a896bb6dca8969060200160405180910390a35b336000908152600d860160205260409020546128ab90836139af565b91508580156128cc5750336000908152600c8601602052604090205460ff16155b156128f057818560040160008282546128e5919061399c565b909155506129249050565b336000908152600c8601602052604090205460ff1615612924578185600401600082825461291e91906139af565b90915550505b604080518381528715156020820152889133917fe38278e9a4991080fd5c68b1594173a60b3db30bd509a1fe3d0b68f9fcb2e0ab910160405180910390a35050336000908152600b8401602090815260408083208054600160ff1991821617909155600c9096019091529020805490931693151593909317909155505050565b600280546001600160a01b038086166001600160a01b031992831617909255600380548584169083161790556004805492841692909116919091179055604080518082019091526009815268185b595b991b595b9d60ba1b6020820152612a16906042621275006207e900600061157f565b612a506040518060400160405280600d81526020016c6361706974616c4368616e676560981b8152506042621275006207e900600061157f565b612a876040518060400160405280600a815260200169383932b1b63ab9b4b7b760b11b815250604b621275006207e900600061157f565b612ac46040518060400160405280601081526020016f333ab73230b6b2b73a30b627ba3432b960811b8152506033621275006207e900600061157f565b612afc6040518060400160405280600b81526020016a1cda59db9a599a58d85b9d60aa1b81525060336207e90062054600600061157f565b612b346040518060400160405280600b81526020016a3234b9b9b7b63aba34b7b760a91b8152506042621275006207e900600061157f565b612b6860405180604001604052806007815260200166726f7574696e6560c81b81525060336203f4806202a300600161157f565b612b9a6040518060400160405280600781526020016667656e6573697360c81b8152506064600062054600600061157f565b50506001805550565b6000818152600660205260409020600281015482919015612bd65760405162461bcd60e51b81526004016103e990613cc4565b600681015415612bf85760405162461bcd60e51b81526004016103e990613cfb565b826001548110612c4a5760405162461bcd60e51b815260206004820152601a60248201527f5265736f6c7574696f6e3a20646f6573206e6f7420657869737400000000000060448201526064016103e9565b604051849033907f206580a2d87d2bd5906ada5f3ca523aefb5f6b61f702ea347d5399778b647dae90600090a3600254604080516306c1c03b60e01b815290516001600160a01b0390921691630ea018f79183916306c1c03b916004808201926020929091908290030181865afa158015612cc9573d6000803e3d6000fd5b505050506040513d601f19601f82011682018060405250810190612ced919061396d565b6040516001600160e01b031960e084901b1681526004810191909152336024820152604401602060405180830381865afa158015612d2f573d6000803e3d6000fd5b505050506040513d601f19601f82011682018060405250810190612d539190613821565b612d6f5760405162461bcd60e51b81526004016103e990613a84565b505050600090815260066020819052604090912042910155565b600080600260009054906101000a90046001600160a01b03166001600160a01b0316639711715a6040518163ffffffff1660e01b81526004016020604051808303816000875af1158015612de1573d6000803e3d6000fd5b505050506040513d601f19601f82011682018060405250810190612e05919061396d565b905080600360009054906101000a90046001600160a01b03166001600160a01b0316639711715a6040518163ffffffff1660e01b81526004016020604051808303816000875af1158015612e5d573d6000803e3d6000fd5b505050506040513d601f19601f82011682018060405250810190612e81919061396d565b148015612f05575080600460009054906101000a90046001600160a01b03166001600160a01b0316639711715a6040518163ffffffff1660e01b81526004016020604051808303816000875af1158015612edf573d6000803e3d6000fd5b505050506040513d601f19601f82011682018060405250810190612f03919061396d565b145b612f6a5760405162461bcd60e51b815260206004820152603060248201527f5265736f6c7574696f6e4d616e616765723a20736e617073686f74206964732060448201526f185c99481a5b98dbdb9cda5cdd195b9d60821b60648201526084016103e9565b919050565b60008060006005846001015481548110612f8b57612f8b613a0c565b9060005260206000209060050201905080600201548460020154612faf919061399c565b9250806003015483612fc1919061399c565b915050915091565b82805482825590600052602060002090810192821561301e579160200282015b8281111561301e57825182546001600160a01b0319166001600160a01b03909116178255602090920191600190910190612fe9565b5061302a929150613080565b5090565b828054828255906000526020600020908101928215613074579160200282015b8281111561307457825182906130649082613b2b565b509160200191906001019061304e565b5061302a929150613095565b5b8082111561302a5760008155600101613081565b8082111561302a5760006130a982826130b2565b50600101613095565b5080546130be906138c6565b6000825580601f106130ce575050565b601f016020900490600052602060002090810190610d759190613080565b6001600160a01b0381168114610d7557600080fd5b60006020828403121561311357600080fd5b8135611556816130ec565b60006020828403121561313057600080fd5b5035919050565b60005b8381101561315257818101518382015260200161313a565b50506000910152565b60008151808452613173816020860160208601613137565b601f01601f19169290920160200192915050565b604080825283519082018190526000906020906060840190828701845b828110156131c95781516001600160a01b0316845292840192908401906001016131a4565b50505083810382850152845180825282820190600581901b8301840187850160005b8381101561321957601f1986840301855261320783835161315b565b948701949250908601906001016131eb565b50909998505050505050505050565b634e487b7160e01b600052604160045260246000fd5b604051601f8201601f1916810167ffffffffffffffff8111828210171561326757613267613228565b604052919050565b600067ffffffffffffffff83111561328957613289613228565b61329c601f8401601f191660200161323e565b90508281528383830111156132b057600080fd5b828260208301376000602084830101529392505050565b8015158114610d7557600080fd5b600080600080600060a086880312156132ed57600080fd5b853567ffffffffffffffff81111561330457600080fd5b8601601f8101881361331557600080fd5b6133248882356020840161326f565b955050602086013593506040860135925060608601359150608086013561334a816132c7565b809150509295509295909350565b60008083601f84011261336a57600080fd5b50813567ffffffffffffffff81111561338257600080fd5b60208301915083602082850101111561339a57600080fd5b9250929050565b600067ffffffffffffffff8211156133bb576133bb613228565b5060051b60200190565b600082601f8301126133d657600080fd5b813560206133eb6133e6836133a1565b61323e565b82815260059290921b8401810191818101908684111561340a57600080fd5b8286015b8481101561342e578035613421816130ec565b835291830191830161340e565b509695505050505050565b600082601f83011261344a57600080fd5b8135602061345a6133e6836133a1565b82815260059290921b8401810191818101908684111561347957600080fd5b8286015b8481101561342e57803567ffffffffffffffff81111561349d5760008081fd5b8701603f810189136134af5760008081fd5b6134c089868301356040840161326f565b84525091830191830161347d565b60008060008060008060a087890312156134e757600080fd5b863567ffffffffffffffff808211156134ff57600080fd5b61350b8a838b01613358565b90985096506020890135955060408901359150613527826132c7565b9093506060880135908082111561353d57600080fd5b6135498a838b016133c5565b9350608089013591508082111561355f57600080fd5b5061356c89828a01613439565b9150509295509295509295565b6000806040838503121561358c57600080fd5b82359150602083013561359e816130ec565b809150509250929050565b600080600080600080600060c0888a0312156135c457600080fd5b87359650602088013567ffffffffffffffff808211156135e357600080fd5b6135ef8b838c01613358565b909850965060408a0135955060608a0135915061360b826132c7565b9093506080890135908082111561362157600080fd5b61362d8b838c016133c5565b935060a08a013591508082111561364357600080fd5b506136508a828b01613439565b91505092959891949750929550565b60a08152600061367260a083018861315b565b905085602083015284604083015283606083015282151560808301529695505050505050565b60006101208083526136ac8184018d61315b565b602084019b909b52505060408101979097526060870195909552608086019390935290151560a085015260c084015260e08301526001600160a01b031661010090910152919050565b6000806040838503121561370857600080fd5b82359150602083013561359e816132c7565b60008060008060008060a0878903121561373357600080fd5b863567ffffffffffffffff8082111561374b57600080fd5b6137578a838b01613358565b909850965060208901359550604089013591508082111561377757600080fd5b6137838a838b016133c5565b9450606089013591508082111561379957600080fd5b506137a689828a01613439565b92505060808701356137b7816130ec565b809150509295509295509295565b600080600080608085870312156137db57600080fd5b84356137e6816130ec565b935060208501356137f6816130ec565b92506040850135613806816130ec565b91506060850135613816816130ec565b939692955090935050565b60006020828403121561383357600080fd5b8151611556816132c7565b7f416363657373436f6e74726f6c3a206163636f756e7420000000000000000000815260008351613876816017850160208801613137565b7001034b99036b4b9b9b4b733903937b6329607d1b60179184019182015283516138a7816028840160208801613137565b01602801949350505050565b602081526000611556602083018461315b565b600181811c908216806138da57607f821691505b6020821081036138fa57634e487b7160e01b600052602260045260246000fd5b50919050565b6001600160a01b03929092168252602082015260400190565b6020808252601f908201527f5265736f6c7574696f6e3a206163636f756e742063616e6e6f7420766f746500604082015260600190565b60006020828403121561396257600080fd5b8151611556816130ec565b60006020828403121561397f57600080fd5b5051919050565b634e487b7160e01b600052601160045260246000fd5b808201808211156113b4576113b4613986565b818103818111156113b4576113b4613986565b6020808252602a908201527f5265736f6c7574696f6e3a206f6e6c79206d616e6167696e6720626f6172642060408201526963616e2075706461746560b01b606082015260800190565b634e487b7160e01b600052603260045260246000fd5b80820281158282048414176113b4576113b4613986565b6020808252602b908201527f5265736f6c7574696f6e3a206f6e6c79206d616e6167696e6720626f6172642060408201526a63616e20617070726f766560a81b606082015260800190565b6020808252602a908201527f5265736f6c7574696f6e3a206f6e6c79206d616e6167696e6720626f6172642060408201526918d85b881c995a9958dd60b21b606082015260800190565b600081613add57613add613986565b506000190190565b601f8211156103fb57600081815260208120601f850160051c81016020861015613b0c5750805b601f850160051c820191505b81811015611f8e57828155600101613b18565b815167ffffffffffffffff811115613b4557613b45613228565b613b5981613b5384546138c6565b84613ae5565b602080601f831160018114613b8e5760008415613b765750858301515b600019600386901b1c1916600185901b178555611f8e565b600085815260208120601f198616915b82811015613bbd57888601518255948401946001909101908401613b9e565b5085821015613bdb5787850151600019600388901b60f8161c191681555b5050505050600190811b01905550565b600060018201613bfd57613bfd613986565b5060010190565b67ffffffffffffffff831115613c1c57613c1c613228565b613c3083613c2a83546138c6565b83613ae5565b6000601f841160018114613c645760008515613c4c5750838201355b600019600387901b1c1916600186901b17835561128d565b600083815260209020601f19861690835b82811015613c955786850135825560209485019460019092019101613c75565b5086821015613cb25760001960f88860031b161c19848701351681555b505060018560011b0183555050505050565b6020808252601c908201527f5265736f6c7574696f6e3a20616c726561647920617070726f76656400000000604082015260600190565b6020808252601c908201527f5265736f6c7574696f6e3a20616c72656164792072656a656374656400000000604082015260600190565b60008251613d44818460208701613137565b919091019291505056fe97667070c54ef182b0f5858b034beac1b6f3089aa2d3188bb1e8929f4fa9b929a264697066735822122029325131c460d171107503b0eae372432f9b2f2105a438cb835dbce8f026373564736f6c63430008130033",
  "linkReferences": {},
  "deployedLinkReferences": {}
}