{
  "_format": "hh-sol-artifact-1",
  "contractName": "ResolutionManager",
  "sourceName": "contracts/ResolutionManager/ResolutionManager.sol",
  "abi": [
    {
      "inputs": [],
      "stateMutability": "nonpayable",
      "type": "constructor"
    },
    {
      "anonymous": false,
      "inputs": [
        {
          "indexed": true,
          "internalType": "address",
          "name": "from",
          "type": "address"
        },
        {
          "indexed": true,
          "internalType": "uint256",
          "name": "resolutionId",
          "type": "uint256"
        },
        {
          "indexed": false,
          "internalType": "uint256",
          "name": "amount",
          "type": "uint256"
        }
      ],
      "name": "DelegateLostVotingPower",
      "type": "event"
    },
    {
      "anonymous": false,
      "inputs": [
        {
          "indexed": false,
          "internalType": "uint8",
          "name": "version",
          "type": "uint8"
        }
      ],
      "name": "Initialized",
      "type": "event"
    },
    {
      "anonymous": false,
      "inputs": [
        {
          "indexed": true,
          "internalType": "address",
          "name": "from",
          "type": "address"
        },
        {
          "indexed": true,
          "internalType": "uint256",
          "name": "resolutionId",
          "type": "uint256"
        }
      ],
      "name": "ResolutionApproved",
      "type": "event"
    },
    {
      "anonymous": false,
      "inputs": [
        {
          "indexed": true,
          "internalType": "address",
          "name": "from",
          "type": "address"
        },
        {
          "indexed": true,
          "internalType": "uint256",
          "name": "resolutionId",
          "type": "uint256"
        }
      ],
      "name": "ResolutionCreated",
      "type": "event"
    },
    {
      "anonymous": false,
      "inputs": [
        {
          "indexed": true,
          "internalType": "address",
          "name": "from",
          "type": "address"
        },
        {
          "indexed": true,
          "internalType": "uint256",
          "name": "resolutionId",
          "type": "uint256"
        }
      ],
      "name": "ResolutionExecuted",
      "type": "event"
    },
    {
      "anonymous": false,
      "inputs": [
        {
          "indexed": true,
          "internalType": "address",
          "name": "from",
          "type": "address"
        },
        {
          "indexed": true,
          "internalType": "uint256",
          "name": "resolutionId",
          "type": "uint256"
        }
      ],
      "name": "ResolutionRejected",
      "type": "event"
    },
    {
      "anonymous": false,
      "inputs": [
        {
          "indexed": true,
          "internalType": "address",
          "name": "from",
          "type": "address"
        },
        {
          "indexed": true,
          "internalType": "uint256",
          "name": "typeIndex",
          "type": "uint256"
        }
      ],
      "name": "ResolutionTypeCreated",
      "type": "event"
    },
    {
      "anonymous": false,
      "inputs": [
        {
          "indexed": true,
          "internalType": "address",
          "name": "from",
          "type": "address"
        },
        {
          "indexed": true,
          "internalType": "uint256",
          "name": "resolutionId",
          "type": "uint256"
        }
      ],
      "name": "ResolutionUpdated",
      "type": "event"
    },
    {
      "anonymous": false,
      "inputs": [
        {
          "indexed": true,
          "internalType": "address",
          "name": "from",
          "type": "address"
        },
        {
          "indexed": true,
          "internalType": "uint256",
          "name": "resolutionId",
          "type": "uint256"
        },
        {
          "indexed": false,
          "internalType": "uint256",
          "name": "votingPower",
          "type": "uint256"
        },
        {
          "indexed": false,
          "internalType": "bool",
          "name": "isYes",
          "type": "bool"
        }
      ],
      "name": "ResolutionVoted",
      "type": "event"
    },
    {
      "inputs": [
        {
          "internalType": "string",
          "name": "name",
          "type": "string"
        },
        {
          "internalType": "uint256",
          "name": "quorum",
          "type": "uint256"
        },
        {
          "internalType": "uint256",
          "name": "noticePeriod",
          "type": "uint256"
        },
        {
          "internalType": "uint256",
          "name": "votingPeriod",
          "type": "uint256"
        },
        {
          "internalType": "bool",
          "name": "canBeNegative",
          "type": "bool"
        }
      ],
      "name": "addResolutionType",
      "outputs": [],
      "stateMutability": "nonpayable",
      "type": "function"
    },
    {
      "inputs": [
        {
          "internalType": "uint256",
          "name": "resolutionId",
          "type": "uint256"
        }
      ],
      "name": "approveResolution",
      "outputs": [],
      "stateMutability": "nonpayable",
      "type": "function"
    },
    {
      "inputs": [
        {
          "internalType": "string",
          "name": "dataURI",
          "type": "string"
        },
        {
          "internalType": "uint256",
          "name": "resolutionTypeId",
          "type": "uint256"
        },
        {
          "internalType": "bool",
          "name": "isNegative",
          "type": "bool"
        },
        {
          "internalType": "address[]",
          "name": "executionTo",
          "type": "address[]"
        },
        {
          "internalType": "bytes[]",
          "name": "executionData",
          "type": "bytes[]"
        }
      ],
      "name": "createResolution",
      "outputs": [
        {
          "internalType": "uint256",
          "name": "",
          "type": "uint256"
        }
      ],
      "stateMutability": "nonpayable",
      "type": "function"
    },
    {
      "inputs": [
        {
          "internalType": "string",
          "name": "dataURI",
          "type": "string"
        },
        {
          "internalType": "uint256",
          "name": "resolutionTypeId",
          "type": "uint256"
        },
        {
          "internalType": "address[]",
          "name": "executionTo",
          "type": "address[]"
        },
        {
          "internalType": "bytes[]",
          "name": "executionData",
          "type": "bytes[]"
        },
        {
          "internalType": "address",
          "name": "excludedContributor",
          "type": "address"
        }
      ],
      "name": "createResolutionWithExclusion",
      "outputs": [
        {
          "internalType": "uint256",
          "name": "",
          "type": "uint256"
        }
      ],
      "stateMutability": "nonpayable",
      "type": "function"
    },
    {
      "inputs": [
        {
          "internalType": "uint256",
          "name": "resolutionId",
          "type": "uint256"
        }
      ],
      "name": "executeResolution",
      "outputs": [],
      "stateMutability": "nonpayable",
      "type": "function"
    },
    {
      "inputs": [
        {
          "internalType": "uint256",
          "name": "resolutionId",
          "type": "uint256"
        }
      ],
      "name": "getExecutionDetails",
      "outputs": [
        {
          "internalType": "address[]",
          "name": "",
          "type": "address[]"
        },
        {
          "internalType": "bytes[]",
          "name": "",
          "type": "bytes[]"
        }
      ],
      "stateMutability": "view",
      "type": "function"
    },
    {
      "inputs": [
        {
          "internalType": "uint256",
          "name": "resolutionId",
          "type": "uint256"
        }
      ],
      "name": "getResolutionResult",
      "outputs": [
        {
          "internalType": "bool",
          "name": "",
          "type": "bool"
        }
      ],
      "stateMutability": "view",
      "type": "function"
    },
    {
      "inputs": [],
      "name": "getRoles",
      "outputs": [
        {
          "internalType": "contract DAORoles",
          "name": "",
          "type": "address"
        }
      ],
      "stateMutability": "view",
      "type": "function"
    },
    {
      "inputs": [
        {
          "internalType": "uint256",
          "name": "resolutionId",
          "type": "uint256"
        },
        {
          "internalType": "address",
          "name": "voter",
          "type": "address"
        }
      ],
      "name": "getVoterVote",
      "outputs": [
        {
          "internalType": "bool",
          "name": "isYes",
          "type": "bool"
        },
        {
          "internalType": "bool",
          "name": "hasVoted",
          "type": "bool"
        },
        {
          "internalType": "uint256",
          "name": "votingPower",
          "type": "uint256"
        }
      ],
      "stateMutability": "view",
      "type": "function"
    },
    {
      "inputs": [
        {
          "internalType": "contract DAORoles",
          "name": "roles",
          "type": "address"
        },
        {
          "internalType": "contract IShareholderRegistry",
          "name": "shareholderRegistry",
          "type": "address"
        },
        {
          "internalType": "contract IGovernanceToken",
          "name": "governanceToken",
          "type": "address"
        },
        {
          "internalType": "contract IVoting",
          "name": "voting",
          "type": "address"
        }
      ],
      "name": "initialize",
      "outputs": [],
      "stateMutability": "nonpayable",
      "type": "function"
    },
    {
      "inputs": [
        {
          "internalType": "uint256",
          "name": "resolutionId",
          "type": "uint256"
        }
      ],
      "name": "rejectResolution",
      "outputs": [],
      "stateMutability": "nonpayable",
      "type": "function"
    },
    {
      "inputs": [
        {
          "internalType": "uint256",
          "name": "",
          "type": "uint256"
        }
      ],
      "name": "resolutionTypes",
      "outputs": [
        {
          "internalType": "string",
          "name": "name",
          "type": "string"
        },
        {
          "internalType": "uint256",
          "name": "quorum",
          "type": "uint256"
        },
        {
          "internalType": "uint256",
          "name": "noticePeriod",
          "type": "uint256"
        },
        {
          "internalType": "uint256",
          "name": "votingPeriod",
          "type": "uint256"
        },
        {
          "internalType": "bool",
          "name": "canBeNegative",
          "type": "bool"
        }
      ],
      "stateMutability": "view",
      "type": "function"
    },
    {
      "inputs": [
        {
          "internalType": "uint256",
          "name": "",
          "type": "uint256"
        }
      ],
      "name": "resolutions",
      "outputs": [
        {
          "internalType": "string",
          "name": "dataURI",
          "type": "string"
        },
        {
          "internalType": "uint256",
          "name": "resolutionTypeId",
          "type": "uint256"
        },
        {
          "internalType": "uint256",
          "name": "approveTimestamp",
          "type": "uint256"
        },
        {
          "internalType": "uint256",
          "name": "snapshotId",
          "type": "uint256"
        },
        {
          "internalType": "uint256",
          "name": "yesVotesTotal",
          "type": "uint256"
        },
        {
          "internalType": "bool",
          "name": "isNegative",
          "type": "bool"
        },
        {
          "internalType": "uint256",
          "name": "rejectionTimestamp",
          "type": "uint256"
        },
        {
          "internalType": "uint256",
          "name": "executionTimestamp",
          "type": "uint256"
        },
        {
          "internalType": "address",
          "name": "addressedContributor",
          "type": "address"
        }
      ],
      "stateMutability": "view",
      "type": "function"
    },
    {
      "inputs": [
        {
          "internalType": "contract IGovernanceToken",
          "name": "governanceToken",
          "type": "address"
        }
      ],
      "name": "setGovernanceToken",
      "outputs": [],
      "stateMutability": "nonpayable",
      "type": "function"
    },
    {
      "inputs": [
        {
          "internalType": "contract DAORoles",
          "name": "roles",
          "type": "address"
        }
      ],
      "name": "setRoles",
      "outputs": [],
      "stateMutability": "nonpayable",
      "type": "function"
    },
    {
      "inputs": [
        {
          "internalType": "contract IShareholderRegistry",
          "name": "shareholderRegistry",
          "type": "address"
        }
      ],
      "name": "setShareholderRegistry",
      "outputs": [],
      "stateMutability": "nonpayable",
      "type": "function"
    },
    {
      "inputs": [
        {
          "internalType": "contract IVoting",
          "name": "voting",
          "type": "address"
        }
      ],
      "name": "setVoting",
      "outputs": [],
      "stateMutability": "nonpayable",
      "type": "function"
    },
    {
      "inputs": [
        {
          "internalType": "uint256",
          "name": "resolutionId",
          "type": "uint256"
        },
        {
          "internalType": "string",
          "name": "dataURI",
          "type": "string"
        },
        {
          "internalType": "uint256",
          "name": "resolutionTypeId",
          "type": "uint256"
        },
        {
          "internalType": "bool",
          "name": "isNegative",
          "type": "bool"
        },
        {
          "internalType": "address[]",
          "name": "executionTo",
          "type": "address[]"
        },
        {
          "internalType": "bytes[]",
          "name": "executionData",
          "type": "bytes[]"
        }
      ],
      "name": "updateResolution",
      "outputs": [],
      "stateMutability": "nonpayable",
      "type": "function"
    },
    {
      "inputs": [
        {
          "internalType": "uint256",
          "name": "resolutionId",
          "type": "uint256"
        },
        {
          "internalType": "bool",
          "name": "isYes",
          "type": "bool"
        }
      ],
      "name": "vote",
      "outputs": [],
      "stateMutability": "nonpayable",
      "type": "function"
    }
  ],
  "bytecode": "0x60806040523480156200001157600080fd5b50600054610100900460ff1615808015620000335750600054600160ff909116105b8062000063575062000050306200013d60201b620010561760201c565b15801562000063575060005460ff166001145b620000cb5760405162461bcd60e51b815260206004820152602e60248201527f496e697469616c697a61626c653a20636f6e747261637420697320616c72656160448201526d191e481a5b9a5d1a585b1a5e995960921b606482015260840160405180910390fd5b6000805460ff191660011790558015620000ef576000805461ff0019166101001790555b801562000136576000805461ff0019169055604051600181527f7f26b83ff96e1f2b6a682f133852f6798a09c465da95921460cefb38474024989060200160405180910390a15b506200014c565b6001600160a01b03163b151590565b613bc8806200015c6000396000f3fe608060405234801561001057600080fd5b50600436106101215760003560e01c80637cbf3b6b116100ad578063c9d27afe11610071578063c9d27afe146102b2578063d7a2599a146102c5578063f8570170146102d8578063f8c8765e146102eb578063fd2c9719146102fe57600080fd5b80637cbf3b6b1461022d5780639664820614610240578063a260b10214610264578063a4b7f5ce14610277578063c4d079511461029f57600080fd5b80633ff973d9116100f45780633ff973d914610199578063444be179146101c9578063607bbbf4146101dc57806361053090146101ff578063710613981461021257600080fd5b806309031db614610126578063245b9a321461013b57806325bd38ea14610165578063325ae67a14610178575b600080fd5b610139610134366004612f83565b610311565b005b61014e610149366004612fa0565b610400565b60405161015c929190613009565b60405180910390f35b610139610173366004613157565b610550565b61018b610186366004613350565b61060e565b60405190815260200161015c565b6101ac6101a73660046133fb565b61062b565b60408051931515845291151560208401529082015260600161015c565b6101396101d736600461342b565b610947565b6101ef6101ea366004612fa0565b610956565b604051901515815260200161015c565b61013961020d366004612fa0565b610a4a565b6039546040516001600160a01b03909116815260200161015c565b61013961023b366004612fa0565b610a56565b61025361024e366004612fa0565b610a5f565b60405161015c9594939291906134e1565b610139610272366004612f83565b610b31565b61028a610285366004612fa0565b610c10565b60405161015c9998979695949392919061351a565b6101396102ad366004612f83565b610cee565b6101396102c0366004613577565b610dcb565b61018b6102d336600461359c565b610dd9565b6101396102e6366004612f83565b610deb565b6101396102f9366004613647565b610ec8565b61013961030c366004612fa0565b61104d565b600080516020613b73833981519152600033603954604051632474521560e21b8152600481018590526001600160a01b0380841660248301529293509116906391d1485490604401602060405180830381865afa158015610376573d6000803e3d6000fd5b505050506040513d601f19601f8201168201806040525081019061039a91906136a3565b6103f2576103a781611065565b6103b2836020611081565b6040516020016103c39291906136c0565b60408051601f198184030181529082905262461bcd60e51b82526103e991600401613735565b60405180910390fd5b6103fb83611224565b505050565b60008181526006602090815260409182902060078101805484518185028101850190955280855260609485946008850192849183018282801561046c57602002820191906000526020600020905b81546001600160a01b0316815260019091019060200180831161044e575b5050505050915080805480602002602001604051908101604052809291908181526020016000905b828210156105405783829060005260206000200180546104b390613748565b80601f01602080910402602001604051908101604052809291908181526020018280546104df90613748565b801561052c5780601f106105015761010080835404028352916020019161052c565b820191906000526020600020905b81548152906001019060200180831161050f57829003601f168201915b505050505081526020019060010190610494565b5050505090509250925050915091565b7f7b97752341782019d21e7c1027eedcd270e56f5b672dcc28d53bf58a346002fc600033603954604051632474521560e21b8152600481018590526001600160a01b0380841660248301529293509116906391d1485490604401602060405180830381865afa1580156105c7573d6000803e3d6000fd5b505050506040513d601f19601f820116820180604052508101906105eb91906136a3565b6105f8576103a781611065565b6106058787878787611246565b50505050505050565b6000610620878787878787600061132d565b979650505050505050565b6000828152600660205260408120600a810154829182916001600160a01b038681169116148015906106cf575060048054600383015460405163b652d57b60e01b81526001600160a01b039092169263b652d57b9261068e928a92909101613782565b602060405180830381865afa1580156106ab573d6000803e3d6000fd5b505050506040513d601f19601f820116820180604052508101906106cf91906136a3565b6106eb5760405162461bcd60e51b81526004016103e99061379b565b6001600160a01b038581166000818152600c84016020908152604080832054600b870190925291829020546004805460038801549451630fcc97f960e11b815260ff9485169b5093909216985093941692631f992ff29261074e928b9201613782565b602060405180830381865afa15801561076b573d6000803e3d6000fd5b505050506040513d601f19601f8201168201806040525081019061078f91906137d2565b6001600160a01b0316141580156107a35750825b156108a757600254600382015460405163277166bf60e11b81526001600160a01b0390921691634ee2cd7e916107de91899190600401613782565b602060405180830381865afa1580156107fb573d6000803e3d6000fd5b505050506040513d601f19601f8201168201806040525081019061081f91906137ef565b600380549083015460405163277166bf60e11b81526001600160a01b0390921691634ee2cd7e91610855918a9190600401613782565b602060405180830381865afa158015610872573d6000803e3d6000fd5b505050506040513d601f19601f8201168201806040525081019061089691906137ef565b6108a0919061381e565b915061093f565b6001600160a01b038086166000908152600d830160205260409081902054600480546003860154935163eaeded5f60e01b81529294169263eaeded5f926108f1928b929101613782565b602060405180830381865afa15801561090e573d6000803e3d6000fd5b505050506040513d601f19601f8201168201806040525081019061093291906137ef565b61093c9190613831565b91505b509250925092565b61060587878787878787611607565b6000818152600660205260408120600181015460058054849290811061097e5761097e613844565b600091825260208220600480546003870154604051633fadf73b60e01b81529283015260059390930290910193506001600160a01b0390911690633fadf73b90602401602060405180830381865afa1580156109de573d6000803e3d6000fd5b505050506040513d601f19601f82011682018060405250810190610a0291906137ef565b90506000818360010154610a16919061385a565b6004850154610a2690606461385a565b6005860154911115915060ff16610a3d5780610a40565b80155b9695505050505050565b610a5381611925565b50565b610a5381611dfc565b60058181548110610a6f57600080fd5b9060005260206000209060050201600091509050806000018054610a9290613748565b80601f0160208091040260200160405190810160405280929190818152602001828054610abe90613748565b8015610b0b5780601f10610ae057610100808354040283529160200191610b0b565b820191906000526020600020905b815481529060010190602001808311610aee57829003601f168201915b505050506001830154600284015460038501546004909501549394919390925060ff1685565b600080516020613b73833981519152600033603954604051632474521560e21b8152600481018590526001600160a01b0380841660248301529293509116906391d1485490604401602060405180830381865afa158015610b96573d6000803e3d6000fd5b505050506040513d601f19601f82011682018060405250810190610bba91906136a3565b610bc7576103a781611065565b826001600160a01b038116610bee5760405162461bcd60e51b81526004016103e990613879565b600280546001600160a01b0319166001600160a01b0386161790555b50505050565b600660205260009081526040902080548190610c2b90613748565b80601f0160208091040260200160405190810160405280929190818152602001828054610c5790613748565b8015610ca45780601f10610c7957610100808354040283529160200191610ca4565b820191906000526020600020905b815481529060010190602001808311610c8757829003601f168201915b50505060018401546002850154600386015460048701546005880154600689015460098a0154600a909a015498999598949750929550909360ff909116926001600160a01b031689565b600080516020613b73833981519152600033603954604051632474521560e21b8152600481018590526001600160a01b0380841660248301529293509116906391d1485490604401602060405180830381865afa158015610d53573d6000803e3d6000fd5b505050506040513d601f19601f82011682018060405250810190610d7791906136a3565b610d84576103a781611065565b826001600160a01b038116610dab5760405162461bcd60e51b81526004016103e990613879565b600480546001600160a01b0319166001600160a01b038616179055610c0a565b610dd58282612214565b5050565b6000610620878787600088888861132d565b600080516020613b73833981519152600033603954604051632474521560e21b8152600481018590526001600160a01b0380841660248301529293509116906391d1485490604401602060405180830381865afa158015610e50573d6000803e3d6000fd5b505050506040513d601f19601f82011682018060405250810190610e7491906136a3565b610e81576103a781611065565b826001600160a01b038116610ea85760405162461bcd60e51b81526004016103e990613879565b600380546001600160a01b0319166001600160a01b038616179055610c0a565b600054610100900460ff1615808015610ee85750600054600160ff909116105b80610f025750303b158015610f02575060005460ff166001145b610f655760405162461bcd60e51b815260206004820152602e60248201527f496e697469616c697a61626c653a20636f6e747261637420697320616c72656160448201526d191e481a5b9a5d1a585b1a5e995960921b60648201526084016103e9565b6000805460ff191660011790558015610f88576000805461ff0019166101001790555b6001600160a01b03851615801590610fa857506001600160a01b03841615155b8015610fbc57506001600160a01b03831615155b8015610fd057506001600160a01b03821615155b610fec5760405162461bcd60e51b81526004016103e990613879565b610ff585611224565b611000848484612812565b8015611046576000805461ff0019169055604051600181527f7f26b83ff96e1f2b6a682f133852f6798a09c465da95921460cefb38474024989060200160405180910390a15b5050505050565b610a5381612a12565b6001600160a01b03163b151590565b606061107b6001600160a01b0383166014611081565b92915050565b6060600061109083600261385a565b61109b90600261381e565b67ffffffffffffffff8111156110b3576110b36130aa565b6040519080825280601f01601f1916602001820160405280156110dd576020820181803683370190505b509050600360fc1b816000815181106110f8576110f8613844565b60200101906001600160f81b031916908160001a905350600f60fb1b8160018151811061112757611127613844565b60200101906001600160f81b031916908160001a905350600061114b84600261385a565b61115690600161381e565b90505b60018111156111ce576f181899199a1a9b1b9c1cb0b131b232b360811b85600f166010811061118a5761118a613844565b1a60f81b8282815181106111a0576111a0613844565b60200101906001600160f81b031916908160001a90535060049490941c936111c7816138bb565b9050611159565b50831561121d5760405162461bcd60e51b815260206004820181905260248201527f537472696e67733a20686578206c656e67746820696e73756666696369656e7460448201526064016103e9565b9392505050565b603980546001600160a01b0319166001600160a01b0392909216919091179055565b6040805160a08101825286815260208101869052908101849052606081018390528115156080820152600580546001810182556000829052825191027f036b6384b5eca791c62761152d0c79bb0604c104a5fb6f4eb0703f3154bb3db0019081906112b19082613918565b50602082015160018281019190915560408301516002830155606083015160038301556080909201516004909101805460ff19169115159190911790556005546112fb9190613831565b60405133907fc9b91babd5124906e4cca98d9386ddac639dfee98b2bd33a27dbb5c048bd855a90600090a35050505050565b6000806005878154811061134357611343613844565b600091825260209182902060025460408051633bef226f60e21b81529051600590940290920194506001600160a01b031692630ea018f792849263efbc89bc9260048083019391928290030181865afa1580156113a4573d6000803e3d6000fd5b505050506040513d601f19601f820116820180604052508101906113c891906137ef565b6040516001600160e01b031960e084901b1681526004810191909152336024820152604401602060405180830381865afa15801561140a573d6000803e3d6000fd5b505050506040513d601f19601f8201168201806040525081019061142e91906136a3565b61148a5760405162461bcd60e51b815260206004820152602760248201527f5265736f6c7574696f6e3a206f6e6c7920636f6e7472696275746f722063616e6044820152662063726561746560c81b60648201526084016103e9565b85158061149b5750600481015460ff165b6114e75760405162461bcd60e51b815260206004820152601e60248201527f5265736f6c7574696f6e3a2063616e6e6f74206265206e65676174697665000060448201526064016103e9565b83518551146115385760405162461bcd60e51b815260206004820152601b60248201527f5265736f6c7574696f6e3a206c656e677468206d69736d61746368000000000060448201526064016103e9565b6001805460009182611549836139d8565b90915550604051909150819033907f5cb605df30db4389dcc26eb7b6ac40cee45e3da41204619ed102f777bf814f8b90600090a36000818152600660205260409020806115978b8d836139f1565b506001810189905560058101805460ff191689151517905586516115c490600783019060208a0190612e4b565b5085516115da9060088301906020890190612eb0565b50600a0180546001600160a01b0386166001600160a01b0319909116179055915050979650505050505050565b600087815260066020526040902060028101548891901561163a5760405162461bcd60e51b81526004016103e990613ab1565b60068101541561165c5760405162461bcd60e51b81526004016103e990613ae8565b88600154811061167e5760405162461bcd60e51b81526004016103e990613b1f565b6040518a9033907fe9fbf855f59ea63a795f1f64e447af0f3316384d1f74ac2685c9cf4231d15ef890600090a360008a8152600660205260409020845186511461170a5760405162461bcd60e51b815260206004820152601b60248201527f5265736f6c7574696f6e3a206c656e677468206d69736d61746368000000000060448201526064016103e9565b600254604080516306c1c03b60e01b815290516001600160a01b0390921691630ea018f79183916306c1c03b916004808201926020929091908290030181865afa15801561175c573d6000803e3d6000fd5b505050506040513d601f19601f8201168201806040525081019061178091906137ef565b6040516001600160e01b031960e084901b1681526004810191909152336024820152604401602060405180830381865afa1580156117c2573d6000803e3d6000fd5b505050506040513d601f19601f820116820180604052508101906117e691906136a3565b6118455760405162461bcd60e51b815260206004820152602a60248201527f5265736f6c7574696f6e3a206f6e6c79206d616e6167696e6720626f6172642060448201526963616e2075706461746560b01b60648201526084016103e9565b60006005898154811061185a5761185a613844565b9060005260206000209060050201905087158061187b5750600481015460ff165b6118c75760405162461bcd60e51b815260206004820152601e60248201527f5265736f6c7574696f6e3a2063616e6e6f74206265206e65676174697665000060448201526064016103e9565b816118d38b8d836139f1565b506001820189905560058201805460ff1916891515179055865161190090600784019060208a0190612e4b565b5085516119169060088401906020890190612eb0565b50505050505050505050505050565b60008181526006602052604090206002810154829190156119585760405162461bcd60e51b81526004016103e990613ab1565b60068101541561197a5760405162461bcd60e51b81526004016103e990613ae8565b82600154811061199c5760405162461bcd60e51b81526004016103e990613b1f565b604051849033907f6f6c6ecde2adc206ce4f038800c59db57260d8a236c7a599438a553d7e4b3aa690600090a3600254604080516306c1c03b60e01b815290516001600160a01b0390921691630ea018f79183916306c1c03b916004808201926020929091908290030181865afa158015611a1b573d6000803e3d6000fd5b505050506040513d601f19601f82011682018060405250810190611a3f91906137ef565b6040516001600160e01b031960e084901b1681526004810191909152336024820152604401602060405180830381865afa158015611a81573d6000803e3d6000fd5b505050506040513d601f19601f82011682018060405250810190611aa591906136a3565b611b055760405162461bcd60e51b815260206004820152602b60248201527f5265736f6c7574696f6e3a206f6e6c79206d616e6167696e6720626f6172642060448201526a63616e20617070726f766560a81b60648201526084016103e9565b6000848152600660205260408120426002820155600a81015490916001600160a01b0390911690808215611ced5760048054604051631513615960e21b81526001600160a01b038681169382019390935291169063544d856490602401602060405180830381865afa158015611b7f573d6000803e3d6000fd5b505050506040513d601f19601f82011682018060405250810190611ba391906137d2565b6002546040516330ccebb560e01b81526001600160a01b0386811660048301529294509116906330ccebb590602401602060405180830381865afa158015611bef573d6000803e3d6000fd5b505050506040513d601f19601f82011682018060405250810190611c1391906137ef565b60025460408051631fc98fb560e31b815290519293506001600160a01b0390911691638bdbbb7591839163fe4c7da8916004808201926020929091908290030181865afa158015611c68573d6000803e3d6000fd5b505050506040513d601f19601f82011682018060405250810190611c8c91906137ef565b6040516001600160e01b031960e084901b16815260048101919091526001600160a01b0386166024820152604401600060405180830381600087803b158015611cd457600080fd5b505af1158015611ce8573d6000803e3d6000fd5b505050505b611cf5612c0b565b60038501556001600160a01b03831615611df257600254604051638bdbbb7560e01b8152600481018390526001600160a01b03858116602483015290911690638bdbbb7590604401600060405180830381600087803b158015611d5757600080fd5b505af1158015611d6b573d6000803e3d6000fd5b50505050816001600160a01b0316836001600160a01b031614611df25760048054604051632949582d60e01b81526001600160a01b03868116938201939093528483166024820152911690632949582d90604401600060405180830381600087803b158015611dd957600080fd5b505af1158015611ded573d6000803e3d6000fd5b505050505b5050505050505050565b604051819033907f14a68c83cab032d52f3c5eb75dcda4cfdc0efbe72a39c36bda85edd44918df0990600090a360008181526006602052604090206007810154611e885760405162461bcd60e51b815260206004820152601e60248201527f5265736f6c7574696f6e3a206e6f7468696e6720746f2065786563757465000060448201526064016103e9565b6000816002015411611ed75760405162461bcd60e51b815260206004820152601860248201527714995cdbdb1d5d1a5bdb8e881b9bdd08185c1c1c9bdd995960421b60448201526064016103e9565b600981015415611f295760405162461bcd60e51b815260206004820152601c60248201527f5265736f6c7574696f6e3a20616c72656164792065786563757465640000000060448201526064016103e9565b6000611f3482612df1565b91505080421015611f7f5760405162461bcd60e51b815260206004820152601560248201527414995cdbdb1d5d1a5bdb8e881b9bdd08195b991959605a1b60448201526064016103e9565b611f8883610956565b611fcd5760405162461bcd60e51b815260206004820152601660248201527514995cdbdb1d5d1a5bdb8e881b9bdd081c185cdcd95960521b60448201526064016103e9565b60008260070180548060200260200160405190810160405280929190818152602001828054801561202757602002820191906000526020600020905b81546001600160a01b03168152600190910190602001808311612009575b50505050509050600083600801805480602002602001604051908101604052809291908181526020016000905b8282101561210057838290600052602060002001805461207390613748565b80601f016020809104026020016040519081016040528092919081815260200182805461209f90613748565b80156120ec5780601f106120c1576101008083540402835291602001916120ec565b820191906000526020600020905b8154815290600101906020018083116120cf57829003601f168201915b505050505081526020019060010190612054565b505042600988015550909150600090505b825181101561220c57600083828151811061212e5761212e613844565b60200260200101516001600160a01b031683838151811061215157612151613844565b60200260200101516040516121669190613b56565b6000604051808303816000865af19150503d80600081146121a3576040519150601f19603f3d011682016040523d82523d6000602084013e6121a8565b606091505b50509050806121f95760405162461bcd60e51b815260206004820152601c60248201527f5265736f6c7574696f6e3a20657865637574696f6e206661696c65640000000060448201526064016103e9565b5080612204816139d8565b915050612111565b505050505050565b6000828152600660205260409020600281015461226e5760405162461bcd60e51b815260206004820152601860248201527714995cdbdb1d5d1a5bdb8e881b9bdd08185c1c1c9bdd995960421b60448201526064016103e9565b600a8101546001600160a01b0316330361229a5760405162461bcd60e51b81526004016103e99061379b565b60048054600383015460405163b652d57b60e01b81526001600160a01b039092169263b652d57b926122d0923392909101613782565b602060405180830381865afa1580156122ed573d6000803e3d6000fd5b505050506040513d601f19601f8201168201806040525081019061231191906136a3565b61232d5760405162461bcd60e51b81526004016103e99061379b565b336000908152600c8201602052604090205460ff1615158215151415806123665750336000908152600b8201602052604090205460ff16155b6123bd5760405162461bcd60e51b815260206004820152602260248201527f5265736f6c7574696f6e3a2063616e2774207265706561742073616d6520766f604482015261746560f01b60648201526084016103e9565b6000806123c983612df1565b915091508142101580156123dc57508042105b6124285760405162461bcd60e51b815260206004820152601760248201527f5265736f6c7574696f6e3a206e6f7420766f7461626c6500000000000000000060448201526064016103e9565b60048054600385015460405163eaeded5f60e01b81526000936001600160a01b039093169263eaeded5f9261245f92339201613782565b602060405180830381865afa15801561247c573d6000803e3d6000fd5b505050506040513d601f19601f820116820180604052508101906124a091906137ef565b600480546003870154604051630fcc97f960e11b81529394506000936001600160a01b0390921692631f992ff2926124dc923392909101613782565b602060405180830381865afa1580156124f9573d6000803e3d6000fd5b505050506040513d601f19601f8201168201806040525081019061251d91906137d2565b90506001600160a01b03811633146126fd57600254600386015460405163277166bf60e11b81526001600160a01b0390921691634ee2cd7e9161256591339190600401613782565b602060405180830381865afa158015612582573d6000803e3d6000fd5b505050506040513d601f19601f820116820180604052508101906125a691906137ef565b600380549087015460405163277166bf60e11b81526001600160a01b0390921691634ee2cd7e916125dc91339190600401613782565b602060405180830381865afa1580156125f9573d6000803e3d6000fd5b505050506040513d601f19601f8201168201806040525081019061261d91906137ef565b612627919061381e565b6001600160a01b0382166000908152600b8701602052604090205490925060ff16801561266e57506001600160a01b0381166000908152600c8601602052604090205460ff165b1561268d57818560040160008282546126879190613831565b90915550505b6001600160a01b0381166000908152600d86016020526040812080548492906126b790849061381e565b909155505060405182815287906001600160a01b038316907f2a753d47dc7411744b037903d0f3d1273bd5046e19f509d13d0a896bb6dca8969060200160405180910390a35b336000908152600d860160205260409020546127199083613831565b915085801561273a5750336000908152600c8601602052604090205460ff16155b1561275e5781856004016000828254612753919061381e565b909155506127929050565b336000908152600c8601602052604090205460ff1615612792578185600401600082825461278c9190613831565b90915550505b604080518381528715156020820152889133917fe38278e9a4991080fd5c68b1594173a60b3db30bd509a1fe3d0b68f9fcb2e0ab910160405180910390a35050336000908152600b8401602090815260408083208054600160ff1991821617909155600c9096019091529020805490931693151593909317909155505050565b600280546001600160a01b038086166001600160a01b031992831617909255600380548584169083161790556004805492841692909116919091179055604080518082019091526009815268185b595b991b595b9d60ba1b6020820152612884906042621275006207e9006000611246565b6128be6040518060400160405280600d81526020016c6361706974616c4368616e676560981b8152506042621275006207e9006000611246565b6128f56040518060400160405280600a815260200169383932b1b63ab9b4b7b760b11b815250604b621275006207e9006000611246565b6129326040518060400160405280601081526020016f333ab73230b6b2b73a30b627ba3432b960811b8152506033621275006207e9006000611246565b61296a6040518060400160405280600b81526020016a1cda59db9a599a58d85b9d60aa1b81525060336207e900620546006000611246565b6129a26040518060400160405280600b81526020016a3234b9b9b7b63aba34b7b760a91b8152506042621275006207e9006000611246565b6129d660405180604001604052806007815260200166726f7574696e6560c81b81525060336203f4806202a3006001611246565b612a086040518060400160405280600781526020016667656e6573697360c81b81525060646000620546006000611246565b5050601960015550565b6000818152600660205260409020600281015482919015612a455760405162461bcd60e51b81526004016103e990613ab1565b600681015415612a675760405162461bcd60e51b81526004016103e990613ae8565b826001548110612a895760405162461bcd60e51b81526004016103e990613b1f565b604051849033907f206580a2d87d2bd5906ada5f3ca523aefb5f6b61f702ea347d5399778b647dae90600090a3600254604080516306c1c03b60e01b815290516001600160a01b0390921691630ea018f79183916306c1c03b916004808201926020929091908290030181865afa158015612b08573d6000803e3d6000fd5b505050506040513d601f19601f82011682018060405250810190612b2c91906137ef565b6040516001600160e01b031960e084901b1681526004810191909152336024820152604401602060405180830381865afa158015612b6e573d6000803e3d6000fd5b505050506040513d601f19601f82011682018060405250810190612b9291906136a3565b612bf15760405162461bcd60e51b815260206004820152602a60248201527f5265736f6c7574696f6e3a206f6e6c79206d616e6167696e6720626f6172642060448201526918d85b881c995a9958dd60b21b60648201526084016103e9565b505050600090815260066020819052604090912042910155565b600080600260009054906101000a90046001600160a01b03166001600160a01b0316639711715a6040518163ffffffff1660e01b81526004016020604051808303816000875af1158015612c63573d6000803e3d6000fd5b505050506040513d601f19601f82011682018060405250810190612c8791906137ef565b905080600360009054906101000a90046001600160a01b03166001600160a01b0316639711715a6040518163ffffffff1660e01b81526004016020604051808303816000875af1158015612cdf573d6000803e3d6000fd5b505050506040513d601f19601f82011682018060405250810190612d0391906137ef565b148015612d87575080600460009054906101000a90046001600160a01b03166001600160a01b0316639711715a6040518163ffffffff1660e01b81526004016020604051808303816000875af1158015612d61573d6000803e3d6000fd5b505050506040513d601f19601f82011682018060405250810190612d8591906137ef565b145b612dec5760405162461bcd60e51b815260206004820152603060248201527f5265736f6c7574696f6e4d616e616765723a20736e617073686f74206964732060448201526f185c99481a5b98dbdb9cda5cdd195b9d60821b60648201526084016103e9565b919050565b60008060006005846001015481548110612e0d57612e0d613844565b9060005260206000209060050201905080600201548460020154612e31919061381e565b9250806003015483612e43919061381e565b915050915091565b828054828255906000526020600020908101928215612ea0579160200282015b82811115612ea057825182546001600160a01b0319166001600160a01b03909116178255602090920191600190910190612e6b565b50612eac929150612f02565b5090565b828054828255906000526020600020908101928215612ef6579160200282015b82811115612ef65782518290612ee69082613918565b5091602001919060010190612ed0565b50612eac929150612f17565b5b80821115612eac5760008155600101612f03565b80821115612eac576000612f2b8282612f34565b50600101612f17565b508054612f4090613748565b6000825580601f10612f50575050565b601f016020900490600052602060002090810190610a539190612f02565b6001600160a01b0381168114610a5357600080fd5b600060208284031215612f9557600080fd5b813561121d81612f6e565b600060208284031215612fb257600080fd5b5035919050565b60005b83811015612fd4578181015183820152602001612fbc565b50506000910152565b60008151808452612ff5816020860160208601612fb9565b601f01601f19169290920160200192915050565b604080825283519082018190526000906020906060840190828701845b8281101561304b5781516001600160a01b031684529284019290840190600101613026565b50505083810382850152845180825282820190600581901b8301840187850160005b8381101561309b57601f19868403018552613089838351612fdd565b9487019492509086019060010161306d565b50909998505050505050505050565b634e487b7160e01b600052604160045260246000fd5b604051601f8201601f1916810167ffffffffffffffff811182821017156130e9576130e96130aa565b604052919050565b600067ffffffffffffffff83111561310b5761310b6130aa565b61311e601f8401601f19166020016130c0565b905082815283838301111561313257600080fd5b828260208301376000602084830101529392505050565b8015158114610a5357600080fd5b600080600080600060a0868803121561316f57600080fd5b853567ffffffffffffffff81111561318657600080fd5b8601601f8101881361319757600080fd5b6131a6888235602084016130f1565b95505060208601359350604086013592506060860135915060808601356131cc81613149565b809150509295509295909350565b60008083601f8401126131ec57600080fd5b50813567ffffffffffffffff81111561320457600080fd5b60208301915083602082850101111561321c57600080fd5b9250929050565b600067ffffffffffffffff82111561323d5761323d6130aa565b5060051b60200190565b600082601f83011261325857600080fd5b8135602061326d61326883613223565b6130c0565b82815260059290921b8401810191818101908684111561328c57600080fd5b8286015b848110156132b05780356132a381612f6e565b8352918301918301613290565b509695505050505050565b600082601f8301126132cc57600080fd5b813560206132dc61326883613223565b82815260059290921b840181019181810190868411156132fb57600080fd5b8286015b848110156132b057803567ffffffffffffffff81111561331f5760008081fd5b8701603f810189136133315760008081fd5b6133428986830135604084016130f1565b8452509183019183016132ff565b60008060008060008060a0878903121561336957600080fd5b863567ffffffffffffffff8082111561338157600080fd5b61338d8a838b016131da565b909850965060208901359550604089013591506133a982613149565b909350606088013590808211156133bf57600080fd5b6133cb8a838b01613247565b935060808901359150808211156133e157600080fd5b506133ee89828a016132bb565b9150509295509295509295565b6000806040838503121561340e57600080fd5b82359150602083013561342081612f6e565b809150509250929050565b600080600080600080600060c0888a03121561344657600080fd5b87359650602088013567ffffffffffffffff8082111561346557600080fd5b6134718b838c016131da565b909850965060408a0135955060608a0135915061348d82613149565b909350608089013590808211156134a357600080fd5b6134af8b838c01613247565b935060a08a01359150808211156134c557600080fd5b506134d28a828b016132bb565b91505092959891949750929550565b60a0815260006134f460a0830188612fdd565b905085602083015284604083015283606083015282151560808301529695505050505050565b600061012080835261352e8184018d612fdd565b602084019b909b52505060408101979097526060870195909552608086019390935290151560a085015260c084015260e08301526001600160a01b031661010090910152919050565b6000806040838503121561358a57600080fd5b82359150602083013561342081613149565b60008060008060008060a087890312156135b557600080fd5b863567ffffffffffffffff808211156135cd57600080fd5b6135d98a838b016131da565b90985096506020890135955060408901359150808211156135f957600080fd5b6136058a838b01613247565b9450606089013591508082111561361b57600080fd5b5061362889828a016132bb565b925050608087013561363981612f6e565b809150509295509295509295565b6000806000806080858703121561365d57600080fd5b843561366881612f6e565b9350602085013561367881612f6e565b9250604085013561368881612f6e565b9150606085013561369881612f6e565b939692955090935050565b6000602082840312156136b557600080fd5b815161121d81613149565b7f416363657373436f6e74726f6c3a206163636f756e74200000000000000000008152600083516136f8816017850160208801612fb9565b7001034b99036b4b9b9b4b733903937b6329607d1b6017918401918201528351613729816028840160208801612fb9565b01602801949350505050565b60208152600061121d6020830184612fdd565b600181811c9082168061375c57607f821691505b60208210810361377c57634e487b7160e01b600052602260045260246000fd5b50919050565b6001600160a01b03929092168252602082015260400190565b6020808252601f908201527f5265736f6c7574696f6e3a206163636f756e742063616e6e6f7420766f746500604082015260600190565b6000602082840312156137e457600080fd5b815161121d81612f6e565b60006020828403121561380157600080fd5b5051919050565b634e487b7160e01b600052601160045260246000fd5b8082018082111561107b5761107b613808565b8181038181111561107b5761107b613808565b634e487b7160e01b600052603260045260246000fd5b600081600019048311821515161561387457613874613808565b500290565b60208082526022908201527f5265736f6c7574696f6e4d616e616765723a20307830206e6f7420616c6c6f77604082015261195960f21b606082015260800190565b6000816138ca576138ca613808565b506000190190565b601f8211156103fb57600081815260208120601f850160051c810160208610156138f95750805b601f850160051c820191505b8181101561220c57828155600101613905565b815167ffffffffffffffff811115613932576139326130aa565b613946816139408454613748565b846138d2565b602080601f83116001811461397b57600084156139635750858301515b600019600386901b1c1916600185901b17855561220c565b600085815260208120601f198616915b828110156139aa5788860151825594840194600190910190840161398b565b50858210156139c85787850151600019600388901b60f8161c191681555b5050505050600190811b01905550565b6000600182016139ea576139ea613808565b5060010190565b67ffffffffffffffff831115613a0957613a096130aa565b613a1d83613a178354613748565b836138d2565b6000601f841160018114613a515760008515613a395750838201355b600019600387901b1c1916600186901b178355611046565b600083815260209020601f19861690835b82811015613a825786850135825560209485019460019092019101613a62565b5086821015613a9f5760001960f88860031b161c19848701351681555b505060018560011b0183555050505050565b6020808252601c908201527f5265736f6c7574696f6e3a20616c726561647920617070726f76656400000000604082015260600190565b6020808252601c908201527f5265736f6c7574696f6e3a20616c72656164792072656a656374656400000000604082015260600190565b6020808252601a908201527f5265736f6c7574696f6e3a20646f6573206e6f74206578697374000000000000604082015260600190565b60008251613b68818460208701612fb9565b919091019291505056fe97667070c54ef182b0f5858b034beac1b6f3089aa2d3188bb1e8929f4fa9b929a2646970667358221220ae0b218cd15154fec5402183897496f3c2fa0167484caaeb08186a5e4c785d2d64736f6c63430008100033",
  "linkReferences": {},
  "deployedLinkReferences": {}
}