{
  "_format": "hh-sol-artifact-1",
  "contractName": "ShareholderRegistry",
  "sourceName": "contracts/ShareholderRegistry/ShareholderRegistry.sol",
  "abi": [
    {
      "inputs": [],
      "stateMutability": "nonpayable",
      "type": "constructor"
    },
    {
      "anonymous": false,
      "inputs": [
        {
          "indexed": true,
          "internalType": "address",
          "name": "owner",
          "type": "address"
        },
        {
          "indexed": true,
          "internalType": "address",
          "name": "spender",
          "type": "address"
        },
        {
          "indexed": false,
          "internalType": "uint256",
          "name": "value",
          "type": "uint256"
        }
      ],
      "name": "Approval",
      "type": "event"
    },
    {
      "anonymous": false,
      "inputs": [
        {
          "indexed": false,
          "internalType": "uint8",
          "name": "version",
          "type": "uint8"
        }
      ],
      "name": "Initialized",
      "type": "event"
    },
    {
      "anonymous": false,
      "inputs": [
        {
          "indexed": false,
          "internalType": "uint256",
          "name": "id",
          "type": "uint256"
        }
      ],
      "name": "Snapshot",
      "type": "event"
    },
    {
      "anonymous": false,
      "inputs": [
        {
          "indexed": true,
          "internalType": "address",
          "name": "account",
          "type": "address"
        },
        {
          "indexed": false,
          "internalType": "bytes32",
          "name": "previous",
          "type": "bytes32"
        },
        {
          "indexed": false,
          "internalType": "bytes32",
          "name": "current",
          "type": "bytes32"
        }
      ],
      "name": "StatusChanged",
      "type": "event"
    },
    {
      "anonymous": false,
      "inputs": [
        {
          "indexed": true,
          "internalType": "address",
          "name": "from",
          "type": "address"
        },
        {
          "indexed": true,
          "internalType": "address",
          "name": "to",
          "type": "address"
        },
        {
          "indexed": false,
          "internalType": "uint256",
          "name": "value",
          "type": "uint256"
        }
      ],
      "name": "Transfer",
      "type": "event"
    },
    {
      "inputs": [],
      "name": "CONTRIBUTOR_STATUS",
      "outputs": [
        {
          "internalType": "bytes32",
          "name": "",
          "type": "bytes32"
        }
      ],
      "stateMutability": "view",
      "type": "function"
    },
    {
      "inputs": [],
      "name": "INVESTOR_STATUS",
      "outputs": [
        {
          "internalType": "bytes32",
          "name": "",
          "type": "bytes32"
        }
      ],
      "stateMutability": "view",
      "type": "function"
    },
    {
      "inputs": [],
      "name": "MANAGING_BOARD_STATUS",
      "outputs": [
        {
          "internalType": "bytes32",
          "name": "",
          "type": "bytes32"
        }
      ],
      "stateMutability": "view",
      "type": "function"
    },
    {
      "inputs": [],
      "name": "SHAREHOLDER_STATUS",
      "outputs": [
        {
          "internalType": "bytes32",
          "name": "",
          "type": "bytes32"
        }
      ],
      "stateMutability": "view",
      "type": "function"
    },
    {
      "inputs": [
        {
          "internalType": "address",
          "name": "owner",
          "type": "address"
        },
        {
          "internalType": "address",
          "name": "spender",
          "type": "address"
        }
      ],
      "name": "allowance",
      "outputs": [
        {
          "internalType": "uint256",
          "name": "",
          "type": "uint256"
        }
      ],
      "stateMutability": "view",
      "type": "function"
    },
    {
      "inputs": [
        {
          "internalType": "address",
          "name": "spender",
          "type": "address"
        },
        {
          "internalType": "uint256",
          "name": "amount",
          "type": "uint256"
        }
      ],
      "name": "approve",
      "outputs": [
        {
          "internalType": "bool",
          "name": "",
          "type": "bool"
        }
      ],
      "stateMutability": "nonpayable",
      "type": "function"
    },
    {
      "inputs": [
        {
          "internalType": "address",
          "name": "account",
          "type": "address"
        }
      ],
      "name": "balanceOf",
      "outputs": [
        {
          "internalType": "uint256",
          "name": "",
          "type": "uint256"
        }
      ],
      "stateMutability": "view",
      "type": "function"
    },
    {
      "inputs": [
        {
          "internalType": "address",
          "name": "account",
          "type": "address"
        },
        {
          "internalType": "uint256",
          "name": "snapshotId",
          "type": "uint256"
        }
      ],
      "name": "balanceOfAt",
      "outputs": [
        {
          "internalType": "uint256",
          "name": "balance",
          "type": "uint256"
        }
      ],
      "stateMutability": "view",
      "type": "function"
    },
    {
      "inputs": [
        {
          "internalType": "address[]",
          "name": "recipients",
          "type": "address[]"
        }
      ],
      "name": "batchTransferFromDAO",
      "outputs": [],
      "stateMutability": "nonpayable",
      "type": "function"
    },
    {
      "inputs": [
        {
          "internalType": "address",
          "name": "account",
          "type": "address"
        },
        {
          "internalType": "uint256",
          "name": "amount",
          "type": "uint256"
        }
      ],
      "name": "burn",
      "outputs": [],
      "stateMutability": "nonpayable",
      "type": "function"
    },
    {
      "inputs": [],
      "name": "decimals",
      "outputs": [
        {
          "internalType": "uint8",
          "name": "",
          "type": "uint8"
        }
      ],
      "stateMutability": "view",
      "type": "function"
    },
    {
      "inputs": [
        {
          "internalType": "address",
          "name": "spender",
          "type": "address"
        },
        {
          "internalType": "uint256",
          "name": "subtractedValue",
          "type": "uint256"
        }
      ],
      "name": "decreaseAllowance",
      "outputs": [
        {
          "internalType": "bool",
          "name": "",
          "type": "bool"
        }
      ],
      "stateMutability": "nonpayable",
      "type": "function"
    },
    {
      "inputs": [
        {
          "internalType": "address",
          "name": "account",
          "type": "address"
        },
        {
          "internalType": "uint256",
          "name": "snapshotId",
          "type": "uint256"
        }
      ],
      "name": "getBalanceAndStatusAt",
      "outputs": [
        {
          "internalType": "uint256",
          "name": "",
          "type": "uint256"
        },
        {
          "internalType": "bytes32",
          "name": "",
          "type": "bytes32"
        }
      ],
      "stateMutability": "view",
      "type": "function"
    },
    {
      "inputs": [],
      "name": "getCurrentSnapshotId",
      "outputs": [
        {
          "internalType": "uint256",
          "name": "",
          "type": "uint256"
        }
      ],
      "stateMutability": "view",
      "type": "function"
    },
    {
      "inputs": [],
      "name": "getRoles",
      "outputs": [
        {
          "internalType": "contract DAORoles",
          "name": "",
          "type": "address"
        }
      ],
      "stateMutability": "view",
      "type": "function"
    },
    {
      "inputs": [
        {
          "internalType": "address",
          "name": "account",
          "type": "address"
        }
      ],
      "name": "getStatus",
      "outputs": [
        {
          "internalType": "bytes32",
          "name": "",
          "type": "bytes32"
        }
      ],
      "stateMutability": "view",
      "type": "function"
    },
    {
      "inputs": [
        {
          "internalType": "address",
          "name": "account",
          "type": "address"
        },
        {
          "internalType": "uint256",
          "name": "snapshotId",
          "type": "uint256"
        }
      ],
      "name": "getStatusAt",
      "outputs": [
        {
          "internalType": "bytes32",
          "name": "status",
          "type": "bytes32"
        }
      ],
      "stateMutability": "view",
      "type": "function"
    },
    {
      "inputs": [
        {
          "internalType": "address",
          "name": "spender",
          "type": "address"
        },
        {
          "internalType": "uint256",
          "name": "addedValue",
          "type": "uint256"
        }
      ],
      "name": "increaseAllowance",
      "outputs": [
        {
          "internalType": "bool",
          "name": "",
          "type": "bool"
        }
      ],
      "stateMutability": "nonpayable",
      "type": "function"
    },
    {
      "inputs": [
        {
          "internalType": "contract DAORoles",
          "name": "roles",
          "type": "address"
        },
        {
          "internalType": "string",
          "name": "name",
          "type": "string"
        },
        {
          "internalType": "string",
          "name": "symbol",
          "type": "string"
        }
      ],
      "name": "initialize",
      "outputs": [],
      "stateMutability": "nonpayable",
      "type": "function"
    },
    {
      "inputs": [
        {
          "internalType": "bytes32",
          "name": "status",
          "type": "bytes32"
        },
        {
          "internalType": "address",
          "name": "account",
          "type": "address"
        }
      ],
      "name": "isAtLeast",
      "outputs": [
        {
          "internalType": "bool",
          "name": "",
          "type": "bool"
        }
      ],
      "stateMutability": "view",
      "type": "function"
    },
    {
      "inputs": [
        {
          "internalType": "bytes32",
          "name": "status",
          "type": "bytes32"
        },
        {
          "internalType": "address",
          "name": "account",
          "type": "address"
        },
        {
          "internalType": "uint256",
          "name": "snapshotId",
          "type": "uint256"
        }
      ],
      "name": "isAtLeastAt",
      "outputs": [
        {
          "internalType": "bool",
          "name": "",
          "type": "bool"
        }
      ],
      "stateMutability": "view",
      "type": "function"
    },
    {
      "inputs": [
        {
          "internalType": "address",
          "name": "account",
          "type": "address"
        },
        {
          "internalType": "uint256",
          "name": "amount",
          "type": "uint256"
        }
      ],
      "name": "mint",
      "outputs": [],
      "stateMutability": "nonpayable",
      "type": "function"
    },
    {
      "inputs": [],
      "name": "name",
      "outputs": [
        {
          "internalType": "string",
          "name": "",
          "type": "string"
        }
      ],
      "stateMutability": "view",
      "type": "function"
    },
    {
      "inputs": [
        {
          "internalType": "contract DAORoles",
          "name": "roles",
          "type": "address"
        }
      ],
      "name": "setRoles",
      "outputs": [],
      "stateMutability": "nonpayable",
      "type": "function"
    },
    {
      "inputs": [
        {
          "internalType": "bytes32",
          "name": "status",
          "type": "bytes32"
        },
        {
          "internalType": "address",
          "name": "account",
          "type": "address"
        }
      ],
      "name": "setStatus",
      "outputs": [],
      "stateMutability": "nonpayable",
      "type": "function"
    },
    {
      "inputs": [
        {
          "internalType": "contract IVoting",
          "name": "voting",
          "type": "address"
        }
      ],
      "name": "setVoting",
      "outputs": [],
      "stateMutability": "nonpayable",
      "type": "function"
    },
    {
      "inputs": [],
      "name": "snapshot",
      "outputs": [
        {
          "internalType": "uint256",
          "name": "",
          "type": "uint256"
        }
      ],
      "stateMutability": "nonpayable",
      "type": "function"
    },
    {
      "inputs": [],
      "name": "symbol",
      "outputs": [
        {
          "internalType": "string",
          "name": "",
          "type": "string"
        }
      ],
      "stateMutability": "view",
      "type": "function"
    },
    {
      "inputs": [],
      "name": "totalSupply",
      "outputs": [
        {
          "internalType": "uint256",
          "name": "",
          "type": "uint256"
        }
      ],
      "stateMutability": "view",
      "type": "function"
    },
    {
      "inputs": [
        {
          "internalType": "uint256",
          "name": "snapshotId",
          "type": "uint256"
        }
      ],
      "name": "totalSupplyAt",
      "outputs": [
        {
          "internalType": "uint256",
          "name": "",
          "type": "uint256"
        }
      ],
      "stateMutability": "view",
      "type": "function"
    },
    {
      "inputs": [
        {
          "internalType": "address",
          "name": "to",
          "type": "address"
        },
        {
          "internalType": "uint256",
          "name": "amount",
          "type": "uint256"
        }
      ],
      "name": "transfer",
      "outputs": [
        {
          "internalType": "bool",
          "name": "",
          "type": "bool"
        }
      ],
      "stateMutability": "nonpayable",
      "type": "function"
    },
    {
      "inputs": [
        {
          "internalType": "address",
          "name": "from",
          "type": "address"
        },
        {
          "internalType": "address",
          "name": "to",
          "type": "address"
        },
        {
          "internalType": "uint256",
          "name": "amount",
          "type": "uint256"
        }
      ],
      "name": "transferFrom",
      "outputs": [
        {
          "internalType": "bool",
          "name": "",
          "type": "bool"
        }
      ],
      "stateMutability": "nonpayable",
      "type": "function"
    }
  ],
  "bytecode": "0x60806040523480156200001157600080fd5b50600054610100900460ff1615808015620000335750600054600160ff909116105b8062000063575062000050306200013d60201b62000f361760201c565b15801562000063575060005460ff166001145b620000cb5760405162461bcd60e51b815260206004820152602e60248201527f496e697469616c697a61626c653a20636f6e747261637420697320616c72656160448201526d191e481a5b9a5d1a585b1a5e995960921b606482015260840160405180910390fd5b6000805460ff191660011790558015620000ef576000805461ff0019166101001790555b801562000136576000805461ff0019169055604051600181527f7f26b83ff96e1f2b6a682f133852f6798a09c465da95921460cefb38474024989060200160405180910390a15b506200014c565b6001600160a01b03163b151590565b612576806200015c6000396000f3fe608060405234801561001057600080fd5b50600436106101f05760003560e01c80635439ad861161010f5780639dc29fac116100a2578063dd62ed3e11610071578063dd62ed3e1461043f578063ed76fff314610452578063efbc89bc1461045b578063fe4c7da81461046457600080fd5b80639dc29fac146103f3578063a457c2d714610406578063a9059cbb14610419578063c4d079511461042c57600080fd5b806390657147116100de57806390657147146103bd57806395d89b41146103d05780639711715a146103d8578063981b24d0146103e057600080fd5b80635439ad861461035e57806370a0823114610366578063710613981461038f5780638bdbbb75146103aa57600080fd5b8063313ce5671161018757806340c10f191161015657806340c10f19146102fd5780634b4b35f6146103105780634baa52cc146103235780634ee2cd7e1461034b57600080fd5b8063313ce567146102b55780633397cc23146102c457806335650b5b146102d757806339509351146102ea57600080fd5b80630ea018f7116101c35780630ea018f71461025e57806318160ddd1461027157806323b872dd1461027957806330ccebb51461028c57600080fd5b806306c1c03b146101f557806306fdde031461021157806309031db614610226578063095ea7b31461023b575b600080fd5b6101fe60685481565b6040519081526020015b60405180910390f35b61021961046d565b6040516102089190611eb6565b610239610234366004611f01565b6104ff565b005b61024e610249366004611f1e565b610600565b6040519015158152602001610208565b61024e61026c366004611f4a565b61061a565b6035546101fe565b61024e610287366004611f7a565b610650565b6101fe61029a366004611f01565b6001600160a01b03166000908152606a602052604090205490565b60405160128152602001610208565b6101fe6102d2366004611f1e565b6106fe565b6102396102e5366004612002565b610712565b61024e6102f8366004611f1e565b6107b1565b61023961030b366004611f1e565b6107d3565b61024e61031e3660046120b4565b610879565b610336610331366004611f1e565b6108a1565b60408051928352602083019190915201610208565b6101fe610359366004611f1e565b610958565b606b546101fe565b6101fe610374366004611f01565b6001600160a01b031660009081526033602052604090205490565b606f546040516001600160a01b039091168152602001610208565b6102396103b8366004611f4a565b61096c565b6102396103cb36600461214b565b610a0c565b610219610b50565b6101fe610b5f565b6101fe6103ee3660046121c1565b610c05565b610239610401366004611f1e565b610c4c565b61024e610414366004611f1e565b610cec565b61024e610427366004611f1e565b610d72565b61023961043a366004611f01565b610e1c565b6101fe61044d3660046121da565b610f0b565b6101fe60655481565b6101fe60675481565b6101fe60665481565b60606036805461047c90612208565b80601f01602080910402602001604051908101604052809291908181526020018280546104a890612208565b80156104f55780601f106104ca576101008083540402835291602001916104f5565b820191906000526020600020905b8154815290600101906020018083116104d857829003601f168201915b5050505050905090565b7f97667070c54ef182b0f5858b034beac1b6f3089aa2d3188bb1e8929f4fa9b929600033606f54604051632474521560e21b8152600481018590526001600160a01b0380841660248301529293509116906391d1485490604401602060405180830381865afa158015610576573d6000803e3d6000fd5b505050506040513d601f19601f8201168201806040525081019061059a9190612242565b6105f2576105a781610f45565b6105b2836020610f57565b6040516020016105c3929190612264565b60408051601f198184030181529082905262461bcd60e51b82526105e991600401611eb6565b60405180910390fd5b6105fb836110f3565b505050565b60003361060e818585611115565b60019150505b92915050565b6001600160a01b038116600090815260336020908152604080832054606a909252822054610649919085611239565b9392505050565b60006000805160206125218339815191528133606f54604051632474521560e21b8152600481018590526001600160a01b0380841660248301529293509116906391d1485490604401602060405180830381865afa1580156106b6573d6000803e3d6000fd5b505050506040513d601f19601f820116820180604052508101906106da9190612242565b6106e7576105a781610f45565b6106f286868661127f565b50600195945050505050565b600061070a83836108a1565b949350505050565b600080516020612521833981519152600033606f54604051632474521560e21b8152600481018590526001600160a01b0380841660248301529293509116906391d1485490604401602060405180830381865afa158015610777573d6000803e3d6000fd5b505050506040513d601f19601f8201168201806040525081019061079b9190612242565b6107a8576105a781610f45565b6105fb8361143b565b60003361060e8185856107c48383610f0b565b6107ce91906122ef565b611115565b600080516020612521833981519152600033606f54604051632474521560e21b8152600481018590526001600160a01b0380841660248301529293509116906391d1485490604401602060405180830381865afa158015610838573d6000803e3d6000fd5b505050506040513d601f19601f8201168201806040525081019061085c9190612242565b610869576105a781610f45565b610873848461147c565b50505050565b600080600061088885856108a1565b91509150610897828288611239565b9695505050505050565b6001600160a01b0382166000908152606e60205260408120819081806108c78684611555565b91509150816108fa576001600160a01b038716600090815260336020908152604080832054606a90925290912054610949565b82600101818154811061090f5761090f612302565b90600052602060002090600202016001015483600101828154811061093657610936612302565b9060005260206000209060020201600001545b945094505050505b9250929050565b600061096483836108a1565b509392505050565b600080516020612521833981519152600033606f54604051632474521560e21b8152600481018590526001600160a01b0380841660248301529293509116906391d1485490604401602060405180830381865afa1580156109d1573d6000803e3d6000fd5b505050506040513d601f19601f820116820180604052508101906109f59190612242565b610a02576105a781610f45565b6108738484611620565b600054610100900460ff1615808015610a2c5750600054600160ff909116105b80610a465750303b158015610a46575060005460ff166001145b610aa95760405162461bcd60e51b815260206004820152602e60248201527f496e697469616c697a61626c653a20636f6e747261637420697320616c72656160448201526d191e481a5b9a5d1a585b1a5e995960921b60648201526084016105e9565b6000805460ff191660011790558015610acc576000805461ff0019166101001790555b6001600160a01b038416610af25760405162461bcd60e51b81526004016105e990612318565b610afc8383611797565b610b05846110f3565b8015610873576000805461ff0019169055604051600181527f7f26b83ff96e1f2b6a682f133852f6798a09c465da95921460cefb38474024989060200160405180910390a150505050565b60606037805461047c90612208565b60006000805160206125218339815191528133606f54604051632474521560e21b8152600481018590526001600160a01b0380841660248301529293509116906391d1485490604401602060405180830381865afa158015610bc5573d6000803e3d6000fd5b505050506040513d601f19601f82011682018060405250810190610be99190612242565b610bf6576105a781610f45565b610bfe611835565b9250505090565b60008080610c1484606c611555565b9150915081610c255760355461070a565b606d805482908110610c3957610c39612302565b9060005260206000200154949350505050565b600080516020612521833981519152600033606f54604051632474521560e21b8152600481018590526001600160a01b0380841660248301529293509116906391d1485490604401602060405180830381865afa158015610cb1573d6000803e3d6000fd5b505050506040513d601f19601f82011682018060405250810190610cd59190612242565b610ce2576105a781610f45565b6108738484611878565b60003381610cfa8286610f0b565b905083811015610d5a5760405162461bcd60e51b815260206004820152602560248201527f45524332303a2064656372656173656420616c6c6f77616e63652062656c6f77604482015264207a65726f60d81b60648201526084016105e9565b610d678286868403611115565b506001949350505050565b60006000805160206125218339815191528133606f54604051632474521560e21b8152600481018590526001600160a01b0380841660248301529293509116906391d1485490604401602060405180830381865afa158015610dd8573d6000803e3d6000fd5b505050506040513d601f19601f82011682018060405250810190610dfc9190612242565b610e09576105a781610f45565b610e1385856119bf565b95945050505050565b7f97667070c54ef182b0f5858b034beac1b6f3089aa2d3188bb1e8929f4fa9b929600033606f54604051632474521560e21b8152600481018590526001600160a01b0380841660248301529293509116906391d1485490604401602060405180830381865afa158015610e93573d6000803e3d6000fd5b505050506040513d601f19601f82011682018060405250810190610eb79190612242565b610ec4576105a781610f45565b826001600160a01b038116610eeb5760405162461bcd60e51b81526004016105e990612318565b606980546001600160a01b0319166001600160a01b038616179055610873565b6001600160a01b03918216600090815260346020908152604080832093909416825291909152205490565b6001600160a01b03163b151590565b60606106146001600160a01b03831660145b60606000610f6683600261235c565b610f719060026122ef565b67ffffffffffffffff811115610f8957610f89611fbb565b6040519080825280601f01601f191660200182016040528015610fb3576020820181803683370190505b509050600360fc1b81600081518110610fce57610fce612302565b60200101906001600160f81b031916908160001a905350600f60fb1b81600181518110610ffd57610ffd612302565b60200101906001600160f81b031916908160001a905350600061102184600261235c565b61102c9060016122ef565b90505b60018111156110a4576f181899199a1a9b1b9c1cb0b131b232b360811b85600f166010811061106057611060612302565b1a60f81b82828151811061107657611076612302565b60200101906001600160f81b031916908160001a90535060049490941c9361109d8161237b565b905061102f565b5083156106495760405162461bcd60e51b815260206004820181905260248201527f537472696e67733a20686578206c656e67746820696e73756666696369656e7460448201526064016105e9565b606f80546001600160a01b0319166001600160a01b0392909216919091179055565b6001600160a01b0383166111775760405162461bcd60e51b8152602060048201526024808201527f45524332303a20617070726f76652066726f6d20746865207a65726f206164646044820152637265737360e01b60648201526084016105e9565b6001600160a01b0382166111d85760405162461bcd60e51b815260206004820152602260248201527f45524332303a20617070726f766520746f20746865207a65726f206164647265604482015261737360f01b60648201526084016105e9565b6001600160a01b0383811660008181526034602090815260408083209487168084529482529182902085905590518481527f8c5be1e5ebec7d5bd14f71427d1e84f3dd0314c0f7b2291e5b200ac8c7c3b925910160405180910390a3505050565b6000808411801561070a5750606654821480611256575060655482145b8061126057508282145b8061070a57506067548214801561070a57506068548314949350505050565b6001600160a01b0383166112e35760405162461bcd60e51b815260206004820152602560248201527f45524332303a207472616e736665722066726f6d20746865207a65726f206164604482015264647265737360d81b60648201526084016105e9565b6001600160a01b0382166113455760405162461bcd60e51b815260206004820152602360248201527f45524332303a207472616e7366657220746f20746865207a65726f206164647260448201526265737360e81b60648201526084016105e9565b6113508383836119cd565b6001600160a01b038316600090815260336020526040902054818110156113c85760405162461bcd60e51b815260206004820152602660248201527f45524332303a207472616e7366657220616d6f756e7420657863656564732062604482015265616c616e636560d01b60648201526084016105e9565b6001600160a01b0380851660008181526033602052604080822086860390559286168082529083902080548601905591517fddf252ad1be2c89b69c2b068fc378daa952ba7f163c4a11628f55a4df523b3ef906114289086815260200190565b60405180910390a3610873848484611a20565b805160005b818110156105fb576114743084838151811061145e5761145e612302565b6020026020010151670de0b6b3a764000061127f565b600101611440565b6001600160a01b0382166114d25760405162461bcd60e51b815260206004820152601f60248201527f45524332303a206d696e7420746f20746865207a65726f20616464726573730060448201526064016105e9565b6114de600083836119cd565b80603560008282546114f091906122ef565b90915550506001600160a01b0382166000818152603360209081526040808320805486019055518481527fddf252ad1be2c89b69c2b068fc378daa952ba7f163c4a11628f55a4df523b3ef910160405180910390a361155160008383611a20565b5050565b600080600084116115a15760405162461bcd60e51b81526020600482015260166024820152750536e617073686f747461626c653a20696420697320360541b60448201526064016105e9565b606b548411156115f35760405162461bcd60e51b815260206004820152601d60248201527f536e617073686f747461626c653a206e6f6e6578697374656e7420696400000060448201526064016105e9565b60006115ff8486611abf565b8454909150810361161557600092509050610951565b600192509050610951565b6001600160a01b0381163b1561169e5760405162461bcd60e51b815260206004820152603960248201527f5368617265686f6c64657252656769737472793a2063616e6e6f74207365742060448201527f73746174757320666f7220736d61727420636f6e74726163740000000000000060648201526084016105e9565b8115806116b257506116b26065548261061a565b6117115760405162461bcd60e51b815260206004820152602a60248201527f5368617265686f6c64657252656769737472793a206164647265737320686173604482015269206e6f20746f6b656e7360b01b60648201526084016105e9565b6001600160a01b0381166000818152606a602090815260409182902054825181815291820186905292917f63d1f3ab699618c7d6d972a3c28f0d08fa090bebc96a34c3a30e5fcda6397ab2910160405180910390a2611771828285611b60565b6001600160a01b0382166000908152606a602052604090208390556105fb828285611b74565b6117a18282611bcf565b50507f307a5ff72e442b798b18d109baae15fe48b6d3690fd14c03015a2f47dd89e2f16065557f14480ae0991a8fe24c1733177e7d71ec79d1f142a7f0e5971a3b930e177598176066557f84d5b933b93417199db826f5da9d5b1189791cb2dfd61240824c7e46b055f03d6067557f1417f6a224499a6e3918f776fd5ff7d6d29c2d693d9862a904be8a74faad51f1606855565b42606b8190556040519081526000907f8030e83b04d87bef53480e26263266d6ca66863aa8506aca6f2559d18aa1cb679060200160405180910390a150606b5490565b6001600160a01b0382166118d85760405162461bcd60e51b815260206004820152602160248201527f45524332303a206275726e2066726f6d20746865207a65726f206164647265736044820152607360f81b60648201526084016105e9565b6118e4826000836119cd565b6001600160a01b038216600090815260336020526040902054818110156119585760405162461bcd60e51b815260206004820152602260248201527f45524332303a206275726e20616d6f756e7420657863656564732062616c616e604482015261636560f01b60648201526084016105e9565b6001600160a01b03831660008181526033602090815260408083208686039055603580548790039055518581529192917fddf252ad1be2c89b69c2b068fc378daa952ba7f163c4a11628f55a4df523b3ef910160405180910390a36105fb83600084611a20565b60003361060e81858561127f565b6119d8838383611c00565b6001600160a01b0383166119f7576119ef82611c84565b6105fb611d29565b6001600160a01b038216611a0e576119ef83611c84565b611a1783611c84565b6105fb82611c84565b6001600160a01b038316600090815260336020526040902054600003611a4b57611a4b600084611620565b606954604051636fb12c5f60e11b81526001600160a01b0385811660048301528481166024830152604482018490529091169063df6258be906064015b600060405180830381600087803b158015611aa257600080fd5b505af1158015611ab6573d6000803e3d6000fd5b50505050505050565b81546000908103611ad257506000610614565b82546000905b80821015611b1c576000611aec8383611d85565b905084611af98783611da0565b541115611b0857809150611b16565b611b138160016122ef565b92505b50611ad8565b600082118015611b3f575083611b3c86611b37600186612392565b611da0565b54145b15611b5857611b4f600183612392565b92505050610614565b509050610614565b611b6983611c84565b6105fb838383611db1565b611b82600183606754611239565b158015611b985750611b98600182606754611239565b156105fb57606954604051634693feab60e01b81526001600160a01b03858116600483015290911690634693feab90602401611a88565b600054610100900460ff16611bf65760405162461bcd60e51b81526004016105e9906123a5565b6115518282611e0d565b611c12670de0b6b3a7640000826123f0565b611c2490670de0b6b3a764000061235c565b81146105fb5760405162461bcd60e51b815260206004820152602960248201527f5368617265686f6c64657252656769737472793a204e6f206672616374696f6e604482015268616c20746f6b656e7360b81b60648201526084016105e9565b6000611c8f606b5490565b6001600160a01b0383166000908152606e6020526040902090915081611cb482611e4d565b10156105fb5780546001808201835560008381526020808220909301949094556040805180820182526001600160a01b0396909616808652606a845281862054875285526033835284205485830190815292810180548083018255908552919093209351600290910290930192835551910155565b6000611d34606b5490565b9050606c81611d4282611e4d565b1015611551578054600181810183556000838152602090209091018390558101611d6b60355490565b815460018101835560009283526020909220909101555050565b6000611d9460028484186123f0565b610649908484166122ef565b60008281526020812082018061070a565b611dbf600183606754611239565b8015611dd65750611dd4600182606754611239565b155b156105fb5760695460405163d86f5a0760e01b81526001600160a01b0385811660048301529091169063d86f5a0790602401611a88565b600054610100900460ff16611e345760405162461bcd60e51b81526004016105e9906123a5565b6036611e408382612460565b5060376105fb8282612460565b80546000908103611e6057506000919050565b81548290611e7090600190612392565b81548110611e8057611e80612302565b90600052602060002001549050919050565b60005b83811015611ead578181015183820152602001611e95565b50506000910152565b6020815260008251806020840152611ed5816040850160208701611e92565b601f01601f19169190910160400192915050565b6001600160a01b0381168114611efe57600080fd5b50565b600060208284031215611f1357600080fd5b813561064981611ee9565b60008060408385031215611f3157600080fd5b8235611f3c81611ee9565b946020939093013593505050565b60008060408385031215611f5d57600080fd5b823591506020830135611f6f81611ee9565b809150509250929050565b600080600060608486031215611f8f57600080fd5b8335611f9a81611ee9565b92506020840135611faa81611ee9565b929592945050506040919091013590565b634e487b7160e01b600052604160045260246000fd5b604051601f8201601f1916810167ffffffffffffffff81118282101715611ffa57611ffa611fbb565b604052919050565b6000602080838503121561201557600080fd5b823567ffffffffffffffff8082111561202d57600080fd5b818501915085601f83011261204157600080fd5b81358181111561205357612053611fbb565b8060051b9150612064848301611fd1565b818152918301840191848101908884111561207e57600080fd5b938501935b838510156120a8578435925061209883611ee9565b8282529385019390850190612083565b98975050505050505050565b6000806000606084860312156120c957600080fd5b833592506020840135611faa81611ee9565b600082601f8301126120ec57600080fd5b813567ffffffffffffffff81111561210657612106611fbb565b612119601f8201601f1916602001611fd1565b81815284602083860101111561212e57600080fd5b816020850160208301376000918101602001919091529392505050565b60008060006060848603121561216057600080fd5b833561216b81611ee9565b9250602084013567ffffffffffffffff8082111561218857600080fd5b612194878388016120db565b935060408601359150808211156121aa57600080fd5b506121b7868287016120db565b9150509250925092565b6000602082840312156121d357600080fd5b5035919050565b600080604083850312156121ed57600080fd5b82356121f881611ee9565b91506020830135611f6f81611ee9565b600181811c9082168061221c57607f821691505b60208210810361223c57634e487b7160e01b600052602260045260246000fd5b50919050565b60006020828403121561225457600080fd5b8151801515811461064957600080fd5b7f416363657373436f6e74726f6c3a206163636f756e742000000000000000000081526000835161229c816017850160208801611e92565b7001034b99036b4b9b9b4b733903937b6329607d1b60179184019182015283516122cd816028840160208801611e92565b01602801949350505050565b634e487b7160e01b600052601160045260246000fd5b80820180821115610614576106146122d9565b634e487b7160e01b600052603260045260246000fd5b60208082526024908201527f5368617265686f6c64657252656769737472793a20307830206e6f7420616c6c6040820152631bddd95960e21b606082015260800190565b6000816000190483118215151615612376576123766122d9565b500290565b60008161238a5761238a6122d9565b506000190190565b81810381811115610614576106146122d9565b6020808252602b908201527f496e697469616c697a61626c653a20636f6e7472616374206973206e6f74206960408201526a6e697469616c697a696e6760a81b606082015260800190565b60008261240d57634e487b7160e01b600052601260045260246000fd5b500490565b601f8211156105fb57600081815260208120601f850160051c810160208610156124395750805b601f850160051c820191505b8181101561245857828155600101612445565b505050505050565b815167ffffffffffffffff81111561247a5761247a611fbb565b61248e816124888454612208565b84612412565b602080601f8311600181146124c357600084156124ab5750858301515b600019600386901b1c1916600185901b178555612458565b600085815260208120601f198616915b828110156124f2578886015182559484019460019091019084016124d3565b50858210156125105787850151600019600388901b60f8161c191681555b5050505050600190811b0190555056fe7b97752341782019d21e7c1027eedcd270e56f5b672dcc28d53bf58a346002fca26469706673582212207ab6ecfefe19c6e1e64344c589b4671452a2fb4e522dcd8a3024ae616452c18c64736f6c63430008100033",
  "linkReferences": {},
  "deployedLinkReferences": {}
}