{
  "_format": "hh-sol-artifact-1",
  "contractName": "ShareholderRegistry",
  "sourceName": "contracts/ShareholderRegistry/ShareholderRegistry.sol",
  "abi": [
    {
      "inputs": [],
      "stateMutability": "nonpayable",
      "type": "constructor"
    },
    {
      "anonymous": false,
      "inputs": [
        {
          "indexed": true,
          "internalType": "address",
          "name": "owner",
          "type": "address"
        },
        {
          "indexed": true,
          "internalType": "address",
          "name": "spender",
          "type": "address"
        },
        {
          "indexed": false,
          "internalType": "uint256",
          "name": "value",
          "type": "uint256"
        }
      ],
      "name": "Approval",
      "type": "event"
    },
    {
      "anonymous": false,
      "inputs": [
        {
          "indexed": false,
          "internalType": "uint8",
          "name": "version",
          "type": "uint8"
        }
      ],
      "name": "Initialized",
      "type": "event"
    },
    {
      "anonymous": false,
      "inputs": [
        {
          "indexed": false,
          "internalType": "uint256",
          "name": "id",
          "type": "uint256"
        }
      ],
      "name": "Snapshot",
      "type": "event"
    },
    {
      "anonymous": false,
      "inputs": [
        {
          "indexed": true,
          "internalType": "address",
          "name": "account",
          "type": "address"
        },
        {
          "indexed": false,
          "internalType": "bytes32",
          "name": "previous",
          "type": "bytes32"
        },
        {
          "indexed": false,
          "internalType": "bytes32",
          "name": "current",
          "type": "bytes32"
        }
      ],
      "name": "StatusChanged",
      "type": "event"
    },
    {
      "anonymous": false,
      "inputs": [
        {
          "indexed": true,
          "internalType": "address",
          "name": "from",
          "type": "address"
        },
        {
          "indexed": true,
          "internalType": "address",
          "name": "to",
          "type": "address"
        },
        {
          "indexed": false,
          "internalType": "uint256",
          "name": "value",
          "type": "uint256"
        }
      ],
      "name": "Transfer",
      "type": "event"
    },
    {
      "inputs": [],
      "name": "CONTRIBUTOR_STATUS",
      "outputs": [
        {
          "internalType": "bytes32",
          "name": "",
          "type": "bytes32"
        }
      ],
      "stateMutability": "view",
      "type": "function"
    },
    {
      "inputs": [],
      "name": "INVESTOR_STATUS",
      "outputs": [
        {
          "internalType": "bytes32",
          "name": "",
          "type": "bytes32"
        }
      ],
      "stateMutability": "view",
      "type": "function"
    },
    {
      "inputs": [],
      "name": "MANAGING_BOARD_STATUS",
      "outputs": [
        {
          "internalType": "bytes32",
          "name": "",
          "type": "bytes32"
        }
      ],
      "stateMutability": "view",
      "type": "function"
    },
    {
      "inputs": [],
      "name": "SHAREHOLDER_STATUS",
      "outputs": [
        {
          "internalType": "bytes32",
          "name": "",
          "type": "bytes32"
        }
      ],
      "stateMutability": "view",
      "type": "function"
    },
    {
      "inputs": [
        {
          "internalType": "address",
          "name": "owner",
          "type": "address"
        },
        {
          "internalType": "address",
          "name": "spender",
          "type": "address"
        }
      ],
      "name": "allowance",
      "outputs": [
        {
          "internalType": "uint256",
          "name": "",
          "type": "uint256"
        }
      ],
      "stateMutability": "view",
      "type": "function"
    },
    {
      "inputs": [
        {
          "internalType": "address",
          "name": "spender",
          "type": "address"
        },
        {
          "internalType": "uint256",
          "name": "amount",
          "type": "uint256"
        }
      ],
      "name": "approve",
      "outputs": [
        {
          "internalType": "bool",
          "name": "",
          "type": "bool"
        }
      ],
      "stateMutability": "nonpayable",
      "type": "function"
    },
    {
      "inputs": [
        {
          "internalType": "address",
          "name": "account",
          "type": "address"
        }
      ],
      "name": "balanceOf",
      "outputs": [
        {
          "internalType": "uint256",
          "name": "",
          "type": "uint256"
        }
      ],
      "stateMutability": "view",
      "type": "function"
    },
    {
      "inputs": [
        {
          "internalType": "address",
          "name": "account",
          "type": "address"
        },
        {
          "internalType": "uint256",
          "name": "snapshotId",
          "type": "uint256"
        }
      ],
      "name": "balanceOfAt",
      "outputs": [
        {
          "internalType": "uint256",
          "name": "balance",
          "type": "uint256"
        }
      ],
      "stateMutability": "view",
      "type": "function"
    },
    {
      "inputs": [
        {
          "internalType": "address[]",
          "name": "recipients",
          "type": "address[]"
        }
      ],
      "name": "batchTransferFromDAO",
      "outputs": [],
      "stateMutability": "nonpayable",
      "type": "function"
    },
    {
      "inputs": [
        {
          "internalType": "address",
          "name": "account",
          "type": "address"
        },
        {
          "internalType": "uint256",
          "name": "amount",
          "type": "uint256"
        }
      ],
      "name": "burn",
      "outputs": [],
      "stateMutability": "nonpayable",
      "type": "function"
    },
    {
      "inputs": [],
      "name": "decimals",
      "outputs": [
        {
          "internalType": "uint8",
          "name": "",
          "type": "uint8"
        }
      ],
      "stateMutability": "view",
      "type": "function"
    },
    {
      "inputs": [
        {
          "internalType": "address",
          "name": "spender",
          "type": "address"
        },
        {
          "internalType": "uint256",
          "name": "subtractedValue",
          "type": "uint256"
        }
      ],
      "name": "decreaseAllowance",
      "outputs": [
        {
          "internalType": "bool",
          "name": "",
          "type": "bool"
        }
      ],
      "stateMutability": "nonpayable",
      "type": "function"
    },
    {
      "inputs": [
        {
          "internalType": "address",
          "name": "account",
          "type": "address"
        },
        {
          "internalType": "uint256",
          "name": "snapshotId",
          "type": "uint256"
        }
      ],
      "name": "getBalanceAndStatusAt",
      "outputs": [
        {
          "internalType": "uint256",
          "name": "",
          "type": "uint256"
        },
        {
          "internalType": "bytes32",
          "name": "",
          "type": "bytes32"
        }
      ],
      "stateMutability": "view",
      "type": "function"
    },
    {
      "inputs": [],
      "name": "getCurrentSnapshotId",
      "outputs": [
        {
          "internalType": "uint256",
          "name": "",
          "type": "uint256"
        }
      ],
      "stateMutability": "view",
      "type": "function"
    },
    {
      "inputs": [],
      "name": "getRoles",
      "outputs": [
        {
          "internalType": "contract DAORoles",
          "name": "",
          "type": "address"
        }
      ],
      "stateMutability": "view",
      "type": "function"
    },
    {
      "inputs": [
        {
          "internalType": "address",
          "name": "account",
          "type": "address"
        }
      ],
      "name": "getStatus",
      "outputs": [
        {
          "internalType": "bytes32",
          "name": "",
          "type": "bytes32"
        }
      ],
      "stateMutability": "view",
      "type": "function"
    },
    {
      "inputs": [
        {
          "internalType": "address",
          "name": "account",
          "type": "address"
        },
        {
          "internalType": "uint256",
          "name": "snapshotId",
          "type": "uint256"
        }
      ],
      "name": "getStatusAt",
      "outputs": [
        {
          "internalType": "bytes32",
          "name": "status",
          "type": "bytes32"
        }
      ],
      "stateMutability": "view",
      "type": "function"
    },
    {
      "inputs": [
        {
          "internalType": "address",
          "name": "spender",
          "type": "address"
        },
        {
          "internalType": "uint256",
          "name": "addedValue",
          "type": "uint256"
        }
      ],
      "name": "increaseAllowance",
      "outputs": [
        {
          "internalType": "bool",
          "name": "",
          "type": "bool"
        }
      ],
      "stateMutability": "nonpayable",
      "type": "function"
    },
    {
      "inputs": [
        {
          "internalType": "contract DAORoles",
          "name": "roles",
          "type": "address"
        },
        {
          "internalType": "string",
          "name": "name",
          "type": "string"
        },
        {
          "internalType": "string",
          "name": "symbol",
          "type": "string"
        }
      ],
      "name": "initialize",
      "outputs": [],
      "stateMutability": "nonpayable",
      "type": "function"
    },
    {
      "inputs": [
        {
          "internalType": "bytes32",
          "name": "status",
          "type": "bytes32"
        },
        {
          "internalType": "address",
          "name": "account",
          "type": "address"
        }
      ],
      "name": "isAtLeast",
      "outputs": [
        {
          "internalType": "bool",
          "name": "",
          "type": "bool"
        }
      ],
      "stateMutability": "view",
      "type": "function"
    },
    {
      "inputs": [
        {
          "internalType": "bytes32",
          "name": "status",
          "type": "bytes32"
        },
        {
          "internalType": "address",
          "name": "account",
          "type": "address"
        },
        {
          "internalType": "uint256",
          "name": "snapshotId",
          "type": "uint256"
        }
      ],
      "name": "isAtLeastAt",
      "outputs": [
        {
          "internalType": "bool",
          "name": "",
          "type": "bool"
        }
      ],
      "stateMutability": "view",
      "type": "function"
    },
    {
      "inputs": [
        {
          "internalType": "address",
          "name": "account",
          "type": "address"
        },
        {
          "internalType": "uint256",
          "name": "amount",
          "type": "uint256"
        }
      ],
      "name": "mint",
      "outputs": [],
      "stateMutability": "nonpayable",
      "type": "function"
    },
    {
      "inputs": [],
      "name": "name",
      "outputs": [
        {
          "internalType": "string",
          "name": "",
          "type": "string"
        }
      ],
      "stateMutability": "view",
      "type": "function"
    },
    {
      "inputs": [
        {
          "internalType": "contract DAORoles",
          "name": "roles",
          "type": "address"
        }
      ],
      "name": "setRoles",
      "outputs": [],
      "stateMutability": "nonpayable",
      "type": "function"
    },
    {
      "inputs": [
        {
          "internalType": "bytes32",
          "name": "status",
          "type": "bytes32"
        },
        {
          "internalType": "address",
          "name": "account",
          "type": "address"
        }
      ],
      "name": "setStatus",
      "outputs": [],
      "stateMutability": "nonpayable",
      "type": "function"
    },
    {
      "inputs": [
        {
          "internalType": "contract IVoting",
          "name": "voting",
          "type": "address"
        }
      ],
      "name": "setVoting",
      "outputs": [],
      "stateMutability": "nonpayable",
      "type": "function"
    },
    {
      "inputs": [],
      "name": "snapshot",
      "outputs": [
        {
          "internalType": "uint256",
          "name": "",
          "type": "uint256"
        }
      ],
      "stateMutability": "nonpayable",
      "type": "function"
    },
    {
      "inputs": [],
      "name": "symbol",
      "outputs": [
        {
          "internalType": "string",
          "name": "",
          "type": "string"
        }
      ],
      "stateMutability": "view",
      "type": "function"
    },
    {
      "inputs": [],
      "name": "totalSupply",
      "outputs": [
        {
          "internalType": "uint256",
          "name": "",
          "type": "uint256"
        }
      ],
      "stateMutability": "view",
      "type": "function"
    },
    {
      "inputs": [
        {
          "internalType": "uint256",
          "name": "snapshotId",
          "type": "uint256"
        }
      ],
      "name": "totalSupplyAt",
      "outputs": [
        {
          "internalType": "uint256",
          "name": "",
          "type": "uint256"
        }
      ],
      "stateMutability": "view",
      "type": "function"
    },
    {
      "inputs": [
        {
          "internalType": "address",
          "name": "to",
          "type": "address"
        },
        {
          "internalType": "uint256",
          "name": "amount",
          "type": "uint256"
        }
      ],
      "name": "transfer",
      "outputs": [
        {
          "internalType": "bool",
          "name": "",
          "type": "bool"
        }
      ],
      "stateMutability": "nonpayable",
      "type": "function"
    },
    {
      "inputs": [
        {
          "internalType": "address",
          "name": "from",
          "type": "address"
        },
        {
          "internalType": "address",
          "name": "to",
          "type": "address"
        },
        {
          "internalType": "uint256",
          "name": "amount",
          "type": "uint256"
        }
      ],
      "name": "transferFrom",
      "outputs": [
        {
          "internalType": "bool",
          "name": "",
          "type": "bool"
        }
      ],
      "stateMutability": "nonpayable",
      "type": "function"
    }
  ],
  "bytecode": "0x60806040523480156200001157600080fd5b50600054610100900460ff1615808015620000335750600054600160ff909116105b806200004f5750303b1580156200004f575060005460ff166001145b620000b75760405162461bcd60e51b815260206004820152602e60248201527f496e697469616c697a61626c653a20636f6e747261637420697320616c72656160448201526d191e481a5b9a5d1a585b1a5e995960921b606482015260840160405180910390fd5b6000805460ff191660011790558015620000db576000805461ff0019166101001790555b801562000122576000805461ff0019169055604051600181527f7f26b83ff96e1f2b6a682f133852f6798a09c465da95921460cefb38474024989060200160405180910390a15b5061245080620001336000396000f3fe608060405234801561001057600080fd5b50600436106101f05760003560e01c80635439ad861161010f5780639dc29fac116100a2578063dd62ed3e11610071578063dd62ed3e1461043f578063ed76fff314610452578063efbc89bc1461045b578063fe4c7da81461046457600080fd5b80639dc29fac146103f3578063a457c2d714610406578063a9059cbb14610419578063c4d079511461042c57600080fd5b806390657147116100de57806390657147146103bd57806395d89b41146103d05780639711715a146103d8578063981b24d0146103e057600080fd5b80635439ad861461035e57806370a0823114610366578063710613981461038f5780638bdbbb75146103aa57600080fd5b8063313ce5671161018757806340c10f191161015657806340c10f19146102fd5780634b4b35f6146103105780634baa52cc146103235780634ee2cd7e1461034b57600080fd5b8063313ce567146102b55780633397cc23146102c457806335650b5b146102d757806339509351146102ea57600080fd5b80630ea018f7116101c35780630ea018f71461025e57806318160ddd1461027157806323b872dd1461027957806330ccebb51461028c57600080fd5b806306c1c03b146101f557806306fdde031461021157806309031db614610226578063095ea7b31461023b575b600080fd5b6101fe60685481565b6040519081526020015b60405180910390f35b61021961046d565b6040516102089190611ddc565b610239610234366004611e27565b6104ff565b005b61024e610249366004611e44565b610600565b6040519015158152602001610208565b61024e61026c366004611e70565b61061a565b6035546101fe565b61024e610287366004611ea0565b610650565b6101fe61029a366004611e27565b6001600160a01b03166000908152606a602052604090205490565b60405160128152602001610208565b6101fe6102d2366004611e44565b6106fe565b6102396102e5366004611f28565b610712565b61024e6102f8366004611e44565b6107b1565b61023961030b366004611e44565b6107d3565b61024e61031e366004611fda565b610879565b610336610331366004611e44565b6108a1565b60408051928352602083019190915201610208565b6101fe610359366004611e44565b610958565b606b546101fe565b6101fe610374366004611e27565b6001600160a01b031660009081526033602052604090205490565b606f546040516001600160a01b039091168152602001610208565b6102396103b8366004611e70565b61096c565b6102396103cb366004612071565b610a0c565b610219610b2a565b6101fe610b39565b6101fe6103ee3660046120e7565b610bdf565b610239610401366004611e44565b610c26565b61024e610414366004611e44565b610cc6565b61024e610427366004611e44565b610d4c565b61023961043a366004611e27565b610df6565b6101fe61044d366004612100565b610ebe565b6101fe60655481565b6101fe60675481565b6101fe60665481565b60606036805461047c9061212e565b80601f01602080910402602001604051908101604052809291908181526020018280546104a89061212e565b80156104f55780601f106104ca576101008083540402835291602001916104f5565b820191906000526020600020905b8154815290600101906020018083116104d857829003601f168201915b5050505050905090565b7f97667070c54ef182b0f5858b034beac1b6f3089aa2d3188bb1e8929f4fa9b929600033606f54604051632474521560e21b8152600481018590526001600160a01b0380841660248301529293509116906391d1485490604401602060405180830381865afa158015610576573d6000803e3d6000fd5b505050506040513d601f19601f8201168201806040525081019061059a9190612168565b6105f2576105a781610ee9565b6105b2836020610efb565b6040516020016105c392919061218a565b60408051601f198184030181529082905262461bcd60e51b82526105e991600401611ddc565b60405180910390fd5b6105fb83611097565b505050565b60003361060e8185856110b9565b60019150505b92915050565b6001600160a01b038116600090815260336020908152604080832054606a9092528220546106499190856111dd565b9392505050565b60006000805160206123fb8339815191528133606f54604051632474521560e21b8152600481018590526001600160a01b0380841660248301529293509116906391d1485490604401602060405180830381865afa1580156106b6573d6000803e3d6000fd5b505050506040513d601f19601f820116820180604052508101906106da9190612168565b6106e7576105a781610ee9565b6106f2868686611223565b50600195945050505050565b600061070a83836108a1565b949350505050565b6000805160206123fb833981519152600033606f54604051632474521560e21b8152600481018590526001600160a01b0380841660248301529293509116906391d1485490604401602060405180830381865afa158015610777573d6000803e3d6000fd5b505050506040513d601f19601f8201168201806040525081019061079b9190612168565b6107a8576105a781610ee9565b6105fb836113df565b60003361060e8185856107c48383610ebe565b6107ce9190612215565b6110b9565b6000805160206123fb833981519152600033606f54604051632474521560e21b8152600481018590526001600160a01b0380841660248301529293509116906391d1485490604401602060405180830381865afa158015610838573d6000803e3d6000fd5b505050506040513d601f19601f8201168201806040525081019061085c9190612168565b610869576105a781610ee9565b6108738484611420565b50505050565b600080600061088885856108a1565b915091506108978282886111dd565b9695505050505050565b6001600160a01b0382166000908152606e60205260408120819081806108c786846114f9565b91509150816108fa576001600160a01b038716600090815260336020908152604080832054606a90925290912054610949565b82600101818154811061090f5761090f612228565b90600052602060002090600202016001015483600101828154811061093657610936612228565b9060005260206000209060020201600001545b945094505050505b9250929050565b600061096483836108a1565b509392505050565b6000805160206123fb833981519152600033606f54604051632474521560e21b8152600481018590526001600160a01b0380841660248301529293509116906391d1485490604401602060405180830381865afa1580156109d1573d6000803e3d6000fd5b505050506040513d601f19601f820116820180604052508101906109f59190612168565b610a02576105a781610ee9565b61087384846115c4565b600054610100900460ff1615808015610a2c5750600054600160ff909116105b80610a465750303b158015610a46575060005460ff166001145b610aa95760405162461bcd60e51b815260206004820152602e60248201527f496e697469616c697a61626c653a20636f6e747261637420697320616c72656160448201526d191e481a5b9a5d1a585b1a5e995960921b60648201526084016105e9565b6000805460ff191660011790558015610acc576000805461ff0019166101001790555b610ad683836116bd565b610adf84611097565b8015610873576000805461ff0019169055604051600181527f7f26b83ff96e1f2b6a682f133852f6798a09c465da95921460cefb38474024989060200160405180910390a150505050565b60606037805461047c9061212e565b60006000805160206123fb8339815191528133606f54604051632474521560e21b8152600481018590526001600160a01b0380841660248301529293509116906391d1485490604401602060405180830381865afa158015610b9f573d6000803e3d6000fd5b505050506040513d601f19601f82011682018060405250810190610bc39190612168565b610bd0576105a781610ee9565b610bd861175b565b9250505090565b60008080610bee84606c6114f9565b9150915081610bff5760355461070a565b606d805482908110610c1357610c13612228565b9060005260206000200154949350505050565b6000805160206123fb833981519152600033606f54604051632474521560e21b8152600481018590526001600160a01b0380841660248301529293509116906391d1485490604401602060405180830381865afa158015610c8b573d6000803e3d6000fd5b505050506040513d601f19601f82011682018060405250810190610caf9190612168565b610cbc576105a781610ee9565b610873848461179e565b60003381610cd48286610ebe565b905083811015610d345760405162461bcd60e51b815260206004820152602560248201527f45524332303a2064656372656173656420616c6c6f77616e63652062656c6f77604482015264207a65726f60d81b60648201526084016105e9565b610d4182868684036110b9565b506001949350505050565b60006000805160206123fb8339815191528133606f54604051632474521560e21b8152600481018590526001600160a01b0380841660248301529293509116906391d1485490604401602060405180830381865afa158015610db2573d6000803e3d6000fd5b505050506040513d601f19601f82011682018060405250810190610dd69190612168565b610de3576105a781610ee9565b610ded85856118e5565b95945050505050565b7f97667070c54ef182b0f5858b034beac1b6f3089aa2d3188bb1e8929f4fa9b929600033606f54604051632474521560e21b8152600481018590526001600160a01b0380841660248301529293509116906391d1485490604401602060405180830381865afa158015610e6d573d6000803e3d6000fd5b505050506040513d601f19601f82011682018060405250810190610e919190612168565b610e9e576105a781610ee9565b606980546001600160a01b0319166001600160a01b038516179055505050565b6001600160a01b03918216600090815260346020908152604080832093909416825291909152205490565b60606106146001600160a01b03831660145b60606000610f0a83600261223e565b610f15906002612215565b67ffffffffffffffff811115610f2d57610f2d611ee1565b6040519080825280601f01601f191660200182016040528015610f57576020820181803683370190505b509050600360fc1b81600081518110610f7257610f72612228565b60200101906001600160f81b031916908160001a905350600f60fb1b81600181518110610fa157610fa1612228565b60200101906001600160f81b031916908160001a9053506000610fc584600261223e565b610fd0906001612215565b90505b6001811115611048576f181899199a1a9b1b9c1cb0b131b232b360811b85600f166010811061100457611004612228565b1a60f81b82828151811061101a5761101a612228565b60200101906001600160f81b031916908160001a90535060049490941c9361104181612255565b9050610fd3565b5083156106495760405162461bcd60e51b815260206004820181905260248201527f537472696e67733a20686578206c656e67746820696e73756666696369656e7460448201526064016105e9565b606f80546001600160a01b0319166001600160a01b0392909216919091179055565b6001600160a01b03831661111b5760405162461bcd60e51b8152602060048201526024808201527f45524332303a20617070726f76652066726f6d20746865207a65726f206164646044820152637265737360e01b60648201526084016105e9565b6001600160a01b03821661117c5760405162461bcd60e51b815260206004820152602260248201527f45524332303a20617070726f766520746f20746865207a65726f206164647265604482015261737360f01b60648201526084016105e9565b6001600160a01b0383811660008181526034602090815260408083209487168084529482529182902085905590518481527f8c5be1e5ebec7d5bd14f71427d1e84f3dd0314c0f7b2291e5b200ac8c7c3b925910160405180910390a3505050565b6000808411801561070a57506066548214806111fa575060655482145b8061120457508282145b8061070a57506067548214801561070a57506068548314949350505050565b6001600160a01b0383166112875760405162461bcd60e51b815260206004820152602560248201527f45524332303a207472616e736665722066726f6d20746865207a65726f206164604482015264647265737360d81b60648201526084016105e9565b6001600160a01b0382166112e95760405162461bcd60e51b815260206004820152602360248201527f45524332303a207472616e7366657220746f20746865207a65726f206164647260448201526265737360e81b60648201526084016105e9565b6112f48383836118f3565b6001600160a01b0383166000908152603360205260409020548181101561136c5760405162461bcd60e51b815260206004820152602660248201527f45524332303a207472616e7366657220616d6f756e7420657863656564732062604482015265616c616e636560d01b60648201526084016105e9565b6001600160a01b0380851660008181526033602052604080822086860390559286168082529083902080548601905591517fddf252ad1be2c89b69c2b068fc378daa952ba7f163c4a11628f55a4df523b3ef906113cc9086815260200190565b60405180910390a3610873848484611946565b805160005b818110156105fb576114183084838151811061140257611402612228565b6020026020010151670de0b6b3a7640000611223565b6001016113e4565b6001600160a01b0382166114765760405162461bcd60e51b815260206004820152601f60248201527f45524332303a206d696e7420746f20746865207a65726f20616464726573730060448201526064016105e9565b611482600083836118f3565b80603560008282546114949190612215565b90915550506001600160a01b0382166000818152603360209081526040808320805486019055518481527fddf252ad1be2c89b69c2b068fc378daa952ba7f163c4a11628f55a4df523b3ef910160405180910390a36114f560008383611946565b5050565b600080600084116115455760405162461bcd60e51b81526020600482015260166024820152750536e617073686f747461626c653a20696420697320360541b60448201526064016105e9565b606b548411156115975760405162461bcd60e51b815260206004820152601d60248201527f536e617073686f747461626c653a206e6f6e6578697374656e7420696400000060448201526064016105e9565b60006115a384866119e5565b845490915081036115b957600092509050610951565b600192509050610951565b8115806115d857506115d86065548261061a565b6116375760405162461bcd60e51b815260206004820152602a60248201527f5368617265686f6c64657252656769737472793a206164647265737320686173604482015269206e6f20746f6b656e7360b01b60648201526084016105e9565b6001600160a01b0381166000818152606a602090815260409182902054825181815291820186905292917f63d1f3ab699618c7d6d972a3c28f0d08fa090bebc96a34c3a30e5fcda6397ab2910160405180910390a2611697828285611a86565b6001600160a01b0382166000908152606a602052604090208390556105fb828285611a9a565b6116c78282611af5565b50507f307a5ff72e442b798b18d109baae15fe48b6d3690fd14c03015a2f47dd89e2f16065557f14480ae0991a8fe24c1733177e7d71ec79d1f142a7f0e5971a3b930e177598176066557f84d5b933b93417199db826f5da9d5b1189791cb2dfd61240824c7e46b055f03d6067557f1417f6a224499a6e3918f776fd5ff7d6d29c2d693d9862a904be8a74faad51f1606855565b42606b8190556040519081526000907f8030e83b04d87bef53480e26263266d6ca66863aa8506aca6f2559d18aa1cb679060200160405180910390a150606b5490565b6001600160a01b0382166117fe5760405162461bcd60e51b815260206004820152602160248201527f45524332303a206275726e2066726f6d20746865207a65726f206164647265736044820152607360f81b60648201526084016105e9565b61180a826000836118f3565b6001600160a01b0382166000908152603360205260409020548181101561187e5760405162461bcd60e51b815260206004820152602260248201527f45524332303a206275726e20616d6f756e7420657863656564732062616c616e604482015261636560f01b60648201526084016105e9565b6001600160a01b03831660008181526033602090815260408083208686039055603580548790039055518581529192917fddf252ad1be2c89b69c2b068fc378daa952ba7f163c4a11628f55a4df523b3ef910160405180910390a36105fb83600084611946565b60003361060e818585611223565b6118fe838383611b26565b6001600160a01b03831661191d5761191582611baa565b6105fb611c4f565b6001600160a01b0382166119345761191583611baa565b61193d83611baa565b6105fb82611baa565b6001600160a01b038316600090815260336020526040902054600003611971576119716000846115c4565b606954604051636fb12c5f60e11b81526001600160a01b0385811660048301528481166024830152604482018490529091169063df6258be906064015b600060405180830381600087803b1580156119c857600080fd5b505af11580156119dc573d6000803e3d6000fd5b50505050505050565b815460009081036119f857506000610614565b82546000905b80821015611a42576000611a128383611cab565b905084611a1f8783611cc6565b541115611a2e57809150611a3c565b611a39816001612215565b92505b506119fe565b600082118015611a65575083611a6286611a5d60018661226c565b611cc6565b54145b15611a7e57611a7560018361226c565b92505050610614565b509050610614565b611a8f83611baa565b6105fb838383611cd7565b611aa86001836067546111dd565b158015611abe5750611abe6001826067546111dd565b156105fb57606954604051634693feab60e01b81526001600160a01b03858116600483015290911690634693feab906024016119ae565b600054610100900460ff16611b1c5760405162461bcd60e51b81526004016105e99061227f565b6114f58282611d33565b611b38670de0b6b3a7640000826122ca565b611b4a90670de0b6b3a764000061223e565b81146105fb5760405162461bcd60e51b815260206004820152602960248201527f5368617265686f6c64657252656769737472793a204e6f206672616374696f6e604482015268616c20746f6b656e7360b81b60648201526084016105e9565b6000611bb5606b5490565b6001600160a01b0383166000908152606e6020526040902090915081611bda82611d73565b10156105fb5780546001808201835560008381526020808220909301949094556040805180820182526001600160a01b0396909616808652606a845281862054875285526033835284205485830190815292810180548083018255908552919093209351600290910290930192835551910155565b6000611c5a606b5490565b9050606c81611c6882611d73565b10156114f5578054600181810183556000838152602090209091018390558101611c9160355490565b815460018101835560009283526020909220909101555050565b6000611cba60028484186122ca565b61064990848416612215565b60008281526020812082018061070a565b611ce56001836067546111dd565b8015611cfc5750611cfa6001826067546111dd565b155b156105fb5760695460405163d86f5a0760e01b81526001600160a01b0385811660048301529091169063d86f5a07906024016119ae565b600054610100900460ff16611d5a5760405162461bcd60e51b81526004016105e99061227f565b6036611d66838261233a565b5060376105fb828261233a565b80546000908103611d8657506000919050565b81548290611d969060019061226c565b81548110611da657611da6612228565b90600052602060002001549050919050565b60005b83811015611dd3578181015183820152602001611dbb565b50506000910152565b6020815260008251806020840152611dfb816040850160208701611db8565b601f01601f19169190910160400192915050565b6001600160a01b0381168114611e2457600080fd5b50565b600060208284031215611e3957600080fd5b813561064981611e0f565b60008060408385031215611e5757600080fd5b8235611e6281611e0f565b946020939093013593505050565b60008060408385031215611e8357600080fd5b823591506020830135611e9581611e0f565b809150509250929050565b600080600060608486031215611eb557600080fd5b8335611ec081611e0f565b92506020840135611ed081611e0f565b929592945050506040919091013590565b634e487b7160e01b600052604160045260246000fd5b604051601f8201601f1916810167ffffffffffffffff81118282101715611f2057611f20611ee1565b604052919050565b60006020808385031215611f3b57600080fd5b823567ffffffffffffffff80821115611f5357600080fd5b818501915085601f830112611f6757600080fd5b813581811115611f7957611f79611ee1565b8060051b9150611f8a848301611ef7565b8181529183018401918481019088841115611fa457600080fd5b938501935b83851015611fce5784359250611fbe83611e0f565b8282529385019390850190611fa9565b98975050505050505050565b600080600060608486031215611fef57600080fd5b833592506020840135611ed081611e0f565b600082601f83011261201257600080fd5b813567ffffffffffffffff81111561202c5761202c611ee1565b61203f601f8201601f1916602001611ef7565b81815284602083860101111561205457600080fd5b816020850160208301376000918101602001919091529392505050565b60008060006060848603121561208657600080fd5b833561209181611e0f565b9250602084013567ffffffffffffffff808211156120ae57600080fd5b6120ba87838801612001565b935060408601359150808211156120d057600080fd5b506120dd86828701612001565b9150509250925092565b6000602082840312156120f957600080fd5b5035919050565b6000806040838503121561211357600080fd5b823561211e81611e0f565b91506020830135611e9581611e0f565b600181811c9082168061214257607f821691505b60208210810361216257634e487b7160e01b600052602260045260246000fd5b50919050565b60006020828403121561217a57600080fd5b8151801515811461064957600080fd5b7f416363657373436f6e74726f6c3a206163636f756e74200000000000000000008152600083516121c2816017850160208801611db8565b7001034b99036b4b9b9b4b733903937b6329607d1b60179184019182015283516121f3816028840160208801611db8565b01602801949350505050565b634e487b7160e01b600052601160045260246000fd5b80820180821115610614576106146121ff565b634e487b7160e01b600052603260045260246000fd5b8082028115828204841417610614576106146121ff565b600081612264576122646121ff565b506000190190565b81810381811115610614576106146121ff565b6020808252602b908201527f496e697469616c697a61626c653a20636f6e7472616374206973206e6f74206960408201526a6e697469616c697a696e6760a81b606082015260800190565b6000826122e757634e487b7160e01b600052601260045260246000fd5b500490565b601f8211156105fb57600081815260208120601f850160051c810160208610156123135750805b601f850160051c820191505b818110156123325782815560010161231f565b505050505050565b815167ffffffffffffffff81111561235457612354611ee1565b61236881612362845461212e565b846122ec565b602080601f83116001811461239d57600084156123855750858301515b600019600386901b1c1916600185901b178555612332565b600085815260208120601f198616915b828110156123cc578886015182559484019460019091019084016123ad565b50858210156123ea5787850151600019600388901b60f8161c191681555b5050505050600190811b0190555056fe7b97752341782019d21e7c1027eedcd270e56f5b672dcc28d53bf58a346002fca26469706673582212208fe7b7561c0787bc1a814adae978d6113f3040a7b1a7d9f8f17ad698488ba53964736f6c63430008130033",
  "linkReferences": {},
  "deployedLinkReferences": {}
}