{
  "_format": "hh-sol-artifact-1",
  "contractName": "Voting",
  "sourceName": "contracts/Voting/Voting.sol",
  "abi": [
    {
      "inputs": [],
      "stateMutability": "nonpayable",
      "type": "constructor"
    },
    {
      "anonymous": false,
      "inputs": [
        {
          "indexed": true,
          "internalType": "address",
          "name": "delegator",
          "type": "address"
        },
        {
          "indexed": false,
          "internalType": "address",
          "name": "currentDelegate",
          "type": "address"
        },
        {
          "indexed": false,
          "internalType": "address",
          "name": "newDelegate",
          "type": "address"
        }
      ],
      "name": "DelegateChanged",
      "type": "event"
    },
    {
      "anonymous": false,
      "inputs": [
        {
          "indexed": true,
          "internalType": "address",
          "name": "account",
          "type": "address"
        },
        {
          "indexed": false,
          "internalType": "uint256",
          "name": "oldVotingPower",
          "type": "uint256"
        },
        {
          "indexed": false,
          "internalType": "uint256",
          "name": "newVotingPower",
          "type": "uint256"
        }
      ],
      "name": "DelegateVotesChanged",
      "type": "event"
    },
    {
      "anonymous": false,
      "inputs": [
        {
          "indexed": false,
          "internalType": "uint8",
          "name": "version",
          "type": "uint8"
        }
      ],
      "name": "Initialized",
      "type": "event"
    },
    {
      "anonymous": false,
      "inputs": [
        {
          "indexed": false,
          "internalType": "uint256",
          "name": "id",
          "type": "uint256"
        }
      ],
      "name": "Snapshot",
      "type": "event"
    },
    {
      "inputs": [
        {
          "internalType": "address",
          "name": "account",
          "type": "address"
        }
      ],
      "name": "afterAddContributor",
      "outputs": [],
      "stateMutability": "nonpayable",
      "type": "function"
    },
    {
      "inputs": [
        {
          "internalType": "address",
          "name": "from",
          "type": "address"
        },
        {
          "internalType": "address",
          "name": "to",
          "type": "address"
        },
        {
          "internalType": "uint256",
          "name": "amount",
          "type": "uint256"
        }
      ],
      "name": "afterTokenTransfer",
      "outputs": [],
      "stateMutability": "nonpayable",
      "type": "function"
    },
    {
      "inputs": [
        {
          "internalType": "address",
          "name": "account",
          "type": "address"
        }
      ],
      "name": "beforeRemoveContributor",
      "outputs": [],
      "stateMutability": "nonpayable",
      "type": "function"
    },
    {
      "inputs": [
        {
          "internalType": "address",
          "name": "account",
          "type": "address"
        }
      ],
      "name": "canVote",
      "outputs": [
        {
          "internalType": "bool",
          "name": "",
          "type": "bool"
        }
      ],
      "stateMutability": "view",
      "type": "function"
    },
    {
      "inputs": [
        {
          "internalType": "address",
          "name": "account",
          "type": "address"
        },
        {
          "internalType": "uint256",
          "name": "snapshotId",
          "type": "uint256"
        }
      ],
      "name": "canVoteAt",
      "outputs": [
        {
          "internalType": "bool",
          "name": "",
          "type": "bool"
        }
      ],
      "stateMutability": "view",
      "type": "function"
    },
    {
      "inputs": [
        {
          "internalType": "address",
          "name": "newDelegate",
          "type": "address"
        }
      ],
      "name": "delegate",
      "outputs": [],
      "stateMutability": "nonpayable",
      "type": "function"
    },
    {
      "inputs": [
        {
          "internalType": "address",
          "name": "delegator",
          "type": "address"
        },
        {
          "internalType": "address",
          "name": "newDelegate",
          "type": "address"
        }
      ],
      "name": "delegateFrom",
      "outputs": [],
      "stateMutability": "nonpayable",
      "type": "function"
    },
    {
      "inputs": [],
      "name": "getCurrentSnapshotId",
      "outputs": [
        {
          "internalType": "uint256",
          "name": "",
          "type": "uint256"
        }
      ],
      "stateMutability": "view",
      "type": "function"
    },
    {
      "inputs": [
        {
          "internalType": "address",
          "name": "account",
          "type": "address"
        }
      ],
      "name": "getDelegate",
      "outputs": [
        {
          "internalType": "address",
          "name": "",
          "type": "address"
        }
      ],
      "stateMutability": "view",
      "type": "function"
    },
    {
      "inputs": [
        {
          "internalType": "address",
          "name": "account",
          "type": "address"
        },
        {
          "internalType": "uint256",
          "name": "snapshotId",
          "type": "uint256"
        }
      ],
      "name": "getDelegateAt",
      "outputs": [
        {
          "internalType": "address",
          "name": "",
          "type": "address"
        }
      ],
      "stateMutability": "view",
      "type": "function"
    },
    {
      "inputs": [],
      "name": "getRoles",
      "outputs": [
        {
          "internalType": "contract DAORoles",
          "name": "",
          "type": "address"
        }
      ],
      "stateMutability": "view",
      "type": "function"
    },
    {
      "inputs": [],
      "name": "getTotalVotingPower",
      "outputs": [
        {
          "internalType": "uint256",
          "name": "",
          "type": "uint256"
        }
      ],
      "stateMutability": "view",
      "type": "function"
    },
    {
      "inputs": [
        {
          "internalType": "uint256",
          "name": "snapshotId",
          "type": "uint256"
        }
      ],
      "name": "getTotalVotingPowerAt",
      "outputs": [
        {
          "internalType": "uint256",
          "name": "",
          "type": "uint256"
        }
      ],
      "stateMutability": "view",
      "type": "function"
    },
    {
      "inputs": [
        {
          "internalType": "address",
          "name": "account",
          "type": "address"
        }
      ],
      "name": "getVotingPower",
      "outputs": [
        {
          "internalType": "uint256",
          "name": "",
          "type": "uint256"
        }
      ],
      "stateMutability": "view",
      "type": "function"
    },
    {
      "inputs": [
        {
          "internalType": "address",
          "name": "account",
          "type": "address"
        },
        {
          "internalType": "uint256",
          "name": "snapshotId",
          "type": "uint256"
        }
      ],
      "name": "getVotingPowerAt",
      "outputs": [
        {
          "internalType": "uint256",
          "name": "",
          "type": "uint256"
        }
      ],
      "stateMutability": "view",
      "type": "function"
    },
    {
      "inputs": [
        {
          "internalType": "contract DAORoles",
          "name": "roles",
          "type": "address"
        }
      ],
      "name": "initialize",
      "outputs": [],
      "stateMutability": "nonpayable",
      "type": "function"
    },
    {
      "inputs": [
        {
          "internalType": "contract DAORoles",
          "name": "roles",
          "type": "address"
        }
      ],
      "name": "setRoles",
      "outputs": [],
      "stateMutability": "nonpayable",
      "type": "function"
    },
    {
      "inputs": [
        {
          "internalType": "contract IShareholderRegistry",
          "name": "shareholderRegistry",
          "type": "address"
        }
      ],
      "name": "setShareholderRegistry",
      "outputs": [],
      "stateMutability": "nonpayable",
      "type": "function"
    },
    {
      "inputs": [
        {
          "internalType": "contract IERC20Upgradeable",
          "name": "token",
          "type": "address"
        }
      ],
      "name": "setToken",
      "outputs": [],
      "stateMutability": "nonpayable",
      "type": "function"
    },
    {
      "inputs": [],
      "name": "snapshot",
      "outputs": [
        {
          "internalType": "uint256",
          "name": "",
          "type": "uint256"
        }
      ],
      "stateMutability": "nonpayable",
      "type": "function"
    }
  ],
  "bytecode": "0x60806040523480156200001157600080fd5b50600c54610100900460ff1615808015620000335750600c54600160ff909116105b8062000063575062000050306200013d60201b62000c2b1760201c565b158015620000635750600c5460ff166001145b620000cb5760405162461bcd60e51b815260206004820152602e60248201527f496e697469616c697a61626c653a20636f6e747261637420697320616c72656160448201526d191e481a5b9a5d1a585b1a5e995960921b606482015260840160405180910390fd5b600c805460ff191660011790558015620000ef57600c805461ff0019166101001790555b80156200013657600c805461ff0019169055604051600181527f7f26b83ff96e1f2b6a682f133852f6798a09c465da95921460cefb38474024989060200160405180910390a15b506200014c565b6001600160a01b03163b151590565b611e33806200015c6000396000f3fe608060405234801561001057600080fd5b506004361061012c5760003560e01c806371061398116100ad578063bb4d443611610071578063bb4d443614610264578063c4d66de81461028d578063d86f5a07146102a0578063df6258be146102b3578063eaeded5f146102c657600080fd5b806371061398146102025780639711715a14610213578063a260b1021461021b578063adfaa72e1461022e578063b652d57b1461025157600080fd5b80633fadf73b116100f45780633fadf73b146101ae5780634693feab146101c15780635439ad86146101d4578063544d8564146101dc5780635c19a95c146101ef57600080fd5b806309031db61461013157806311acc1a714610146578063144fa6d71461015d5780631f992ff2146101705780632949582d1461019b575b600080fd5b61014461013f366004611b0a565b6102d9565b005b6006545b6040519081526020015b60405180910390f35b61014461016b366004611b0a565b6103da565b61018361017e366004611b27565b6104cb565b6040516001600160a01b039091168152602001610154565b6101446101a9366004611b53565b61053d565b61014a6101bc366004611b8c565b6105ef565b6101446101cf366004611b0a565b610637565b60075461014a565b6101836101ea366004611b0a565b6106e8565b6101446101fd366004611b0a565b610706565b603f546001600160a01b0316610183565b61014a610713565b610144610229366004611b0a565b6107cb565b61024161023c366004611b0a565b6108a3565b6040519015158152602001610154565b61024161025f366004611b27565b6108c0565b61014a610272366004611b0a565b6001600160a01b031660009081526004602052604090205490565b61014461029b366004611b0a565b610937565b6101446102ae366004611b0a565b610a70565b6101446102c1366004611ba5565b610b21565b61014a6102d4366004611b27565b610bb5565b7f97667070c54ef182b0f5858b034beac1b6f3089aa2d3188bb1e8929f4fa9b929600033603f54604051632474521560e21b8152600481018590526001600160a01b0380841660248301529293509116906391d1485490604401602060405180830381865afa158015610350573d6000803e3d6000fd5b505050506040513d601f19601f820116820180604052508101906103749190611be6565b6103cc5761038181610c3a565b61038c836020610c4c565b60405160200161039d929190611c2c565b60408051601f198184030181529082905262461bcd60e51b82526103c391600401611ca1565b60405180910390fd5b6103d583610def565b505050565b7f97667070c54ef182b0f5858b034beac1b6f3089aa2d3188bb1e8929f4fa9b929600033603f54604051632474521560e21b8152600481018590526001600160a01b0380841660248301529293509116906391d1485490604401602060405180830381865afa158015610451573d6000803e3d6000fd5b505050506040513d601f19601f820116820180604052508101906104759190611be6565b6104825761038181610c3a565b826001600160a01b0381166104a95760405162461bcd60e51b81526004016103c390611cd4565b600180546001600160a01b0319166001600160a01b0386161790555b50505050565b6001600160a01b038216600090815260086020526040812081806104ef8584610e11565b915091508161050657610501866106e8565b610531565b82600101818154811061051b5761051b611d0b565b6000918252602090912001546001600160a01b03165b93505050505b92915050565b7f7b97752341782019d21e7c1027eedcd270e56f5b672dcc28d53bf58a346002fc600033603f54604051632474521560e21b8152600481018590526001600160a01b0380841660248301529293509116906391d1485490604401602060405180830381865afa1580156105b4573d6000803e3d6000fd5b505050506040513d601f19601f820116820180604052508101906105d89190611be6565b6105e55761038181610c3a565b6104c58484610edf565b600080806105fe84600a610e11565b915091508161060f5760065461062f565b600b80548290811061062357610623611d0b565b90600052602060002001545b949350505050565b7fec46be11ac15979aa8ace9d17da41014d9503d92e5a7a20f5753f3af0d7a4230600033603f54604051632474521560e21b8152600481018590526001600160a01b0380841660248301529293509116906391d1485490604401602060405180830381865afa1580156106ae573d6000803e3d6000fd5b505050506040513d601f19601f820116820180604052508101906106d29190611be6565b6106df5761038181610c3a565b6103d5836114e3565b6001600160a01b039081166000908152600360205260409020541690565b6107103382610edf565b50565b60007f7b97752341782019d21e7c1027eedcd270e56f5b672dcc28d53bf58a346002fc8133603f54604051632474521560e21b8152600481018590526001600160a01b0380841660248301529293509116906391d1485490604401602060405180830381865afa15801561078b573d6000803e3d6000fd5b505050506040513d601f19601f820116820180604052508101906107af9190611be6565b6107bc5761038181610c3a565b6107c46114ed565b9250505090565b7f97667070c54ef182b0f5858b034beac1b6f3089aa2d3188bb1e8929f4fa9b929600033603f54604051632474521560e21b8152600481018590526001600160a01b0380841660248301529293509116906391d1485490604401602060405180830381865afa158015610842573d6000803e3d6000fd5b505050506040513d601f19601f820116820180604052508101906108669190611be6565b6108735761038181610c3a565b826001600160a01b03811661089a5760405162461bcd60e51b81526004016103c390611cd4565b6104c584611530565b6000806108af836106e8565b6001600160a01b0316141592915050565b6001600160a01b038216600090815260086020526040812081806108e48584610e11565b91509150816108f657610501866108a3565b60006001600160a01b031683600101828154811061091657610916611d0b565b6000918252602090912001546001600160a01b031614159695505050505050565b600c54610100900460ff16158080156109575750600c54600160ff909116105b806109715750303b1580156109715750600c5460ff166001145b6109d45760405162461bcd60e51b815260206004820152602e60248201527f496e697469616c697a61626c653a20636f6e747261637420697320616c72656160448201526d191e481a5b9a5d1a585b1a5e995960921b60648201526084016103c3565b600c805460ff1916600117905580156109f757600c805461ff0019166101001790555b6001600160a01b038216610a1d5760405162461bcd60e51b81526004016103c390611cd4565b610a2682610def565b8015610a6c57600c805461ff0019169055604051600181527f7f26b83ff96e1f2b6a682f133852f6798a09c465da95921460cefb38474024989060200160405180910390a15b5050565b7fec46be11ac15979aa8ace9d17da41014d9503d92e5a7a20f5753f3af0d7a4230600033603f54604051632474521560e21b8152600481018590526001600160a01b0380841660248301529293509116906391d1485490604401602060405180830381865afa158015610ae7573d6000803e3d6000fd5b505050506040513d601f19601f82011682018060405250810190610b0b9190611be6565b610b185761038181610c3a565b6103d5836115b3565b6001546001600160a01b0316331480610b4457506000546001600160a01b031633145b610baa5760405162461bcd60e51b815260206004820152603160248201527f566f74696e673a206f6e6c7920546f6b656e20636f6e74726163742063616e2060448201527031b0b636103a3434b99036b2ba3437b21760791b60648201526084016103c3565b6103d5838383611709565b6001600160a01b03821660009081526009602052604081208180610bd98584610e11565b9150915081610c00576001600160a01b038616600090815260046020526040902054610531565b826001018181548110610c1557610c15611d0b565b9060005260206000200154935050505092915050565b6001600160a01b03163b151590565b60606105376001600160a01b03831660145b60606000610c5b836002611d37565b610c66906002611d56565b67ffffffffffffffff811115610c7e57610c7e611d69565b6040519080825280601f01601f191660200182016040528015610ca8576020820181803683370190505b509050600360fc1b81600081518110610cc357610cc3611d0b565b60200101906001600160f81b031916908160001a905350600f60fb1b81600181518110610cf257610cf2611d0b565b60200101906001600160f81b031916908160001a9053506000610d16846002611d37565b610d21906001611d56565b90505b6001811115610d99576f181899199a1a9b1b9c1cb0b131b232b360811b85600f1660108110610d5557610d55611d0b565b1a60f81b828281518110610d6b57610d6b611d0b565b60200101906001600160f81b031916908160001a90535060049490941c93610d9281611d7f565b9050610d24565b508315610de85760405162461bcd60e51b815260206004820181905260248201527f537472696e67733a20686578206c656e67746820696e73756666696369656e7460448201526064016103c3565b9392505050565b603f80546001600160a01b0319166001600160a01b0392909216919091179055565b60008060008411610e5d5760405162461bcd60e51b81526020600482015260166024820152750536e617073686f747461626c653a20696420697320360541b60448201526064016103c3565b600754841115610eaf5760405162461bcd60e51b815260206004820152601d60248201527f536e617073686f747461626c653a206e6f6e6578697374656e7420696400000060448201526064016103c3565b6000610ebb8486611724565b84549091508103610ed157600092509050610ed8565b6001925090505b9250929050565b6000610eea836106e8565b90506000610ef7836106e8565b6001600160a01b038581166000818152600560205260408082205491546002549151630ea018f760e01b81526004810192909252602482019390935293945092911690630ea018f790604401602060405180830381865afa158015610f60573d6000803e3d6000fd5b505050506040513d601f19601f82011682018060405250810190610f849190611be6565b610fe05760405162461bcd60e51b815260206004820152602760248201527f566f74696e673a206f6e6c7920636f6e7472696275746f72732063616e2064656044820152663632b3b0ba329760c91b60648201526084016103c3565b600054600254604051630ea018f760e01b815260048101919091526001600160a01b03868116602483015290911690630ea018f790604401602060405180830381865afa158015611035573d6000803e3d6000fd5b505050506040513d601f19601f820116820180604052508101906110599190611be6565b6110b95760405162461bcd60e51b815260206004820152602b60248201527f566f74696e673a206f6e6c7920636f6e7472696275746f72732063616e20626560448201526a103232b632b3b0ba32b21760a91b60648201526084016103c3565b816001600160a01b0316846001600160a01b031614806110ea5750836001600160a01b0316856001600160a01b0316145b6111495760405162461bcd60e51b815260206004820152602a60248201527f566f74696e673a206e65772064656c6567617465206973206e6f742073656c666044820152690819195b1959d85d195960b21b60648201526084016103c3565b8015806111675750836001600160a01b0316856001600160a01b0316145b6111c25760405162461bcd60e51b815260206004820152602660248201527f566f74696e673a2064656c656761746f7220697320616c72656164792064656c6044820152651959d85d195960d21b60648201526084016103c3565b6001600160a01b0383161580156111ea5750836001600160a01b0316856001600160a01b0316145b806111fd57506001600160a01b03831615155b6112575760405162461bcd60e51b815260206004820152602560248201527f566f74696e673a2066697273742064656c65676174652073686f756c642062656044820152641039b2b63360d91b60648201526084016103c3565b826001600160a01b0316846001600160a01b0316036112cb5760405162461bcd60e51b815260206004820152602a60248201527f566f74696e673a206e65772064656c656761746520657175616c20746f206f6c604482015269642064656c656761746560b01b60648201526084016103c3565b6112d4856117d1565b600080546040516370a0823160e01b81526001600160a01b038881166004830152909116906370a0823190602401602060405180830381865afa15801561131f573d6000803e3d6000fd5b505050506040513d601f19601f820116820180604052508101906113439190611d96565b6001546040516370a0823160e01b81526001600160a01b038981166004830152909116906370a0823190602401602060405180830381865afa15801561138d573d6000803e3d6000fd5b505050506040513d601f19601f820116820180604052508101906113b19190611d96565b6113bb9190611d56565b6001600160a01b03878116600081815260036020526040902080546001600160a01b03191692891692831790559192501480159061140157506001600160a01b03851615155b15611430576001600160a01b038516600090815260056020526040812080549161142a83611daf565b91905055505b836001600160a01b0316866001600160a01b03161415801561145a57506001600160a01b03841615155b15611489576001600160a01b038416600090815260056020526040812080549161148383611d7f565b91905055505b604080516001600160a01b03868116825287811660208301528816917f3134e8a2e6d97e929a7e54011ea5485d7d196dd5f0ba4d4ef95803e8e3fc257f910160405180910390a26114db8486836117fb565b505050505050565b6107108182610edf565b4260078190556040519081526000907f8030e83b04d87bef53480e26263266d6ca66863aa8506aca6f2559d18aa1cb679060200160405180910390a15060075490565b600080546001600160a01b0319166001600160a01b03831690811790915560408051633bef226f60e21b8152905163efbc89bc916004808201926020929091908290030181865afa158015611589573d6000803e3d6000fd5b505050506040513d601f19601f820116820180604052508101906115ad9190611d96565b60025550565b60006115be826106e8565b9050816001600160a01b0316816001600160a01b0316036115e7576115e2826117d1565b6115f1565b6115f18283610edf565b6001600160a01b0382811660008181526003602052604080822080546001600160a01b0319169055815490516370a0823160e01b81526004810193909352909216906370a0823190602401602060405180830381865afa158015611659573d6000803e3d6000fd5b505050506040513d601f19601f8201168201806040525081019061167d9190611d96565b6001546040516370a0823160e01b81526001600160a01b038681166004830152909116906370a0823190602401602060405180830381865afa1580156116c7573d6000803e3d6000fd5b505050506040513d601f19601f820116820180604052508101906116eb9190611d96565b6116f59190611d56565b905080156103d5576103d5836000836117fb565b6103d5611715846106e8565b61171e846106e8565b836117fb565b8154600090810361173757506000610537565b82546000905b8082101561178457600061175183836119a0565b600087815260209020909150859082015411156117705780915061177e565b61177b816001611d56565b92505b5061173d565b6000821180156117b05750836117ad8661179f600186611dc8565b600091825260209091200190565b54145b156117c9576117c0600183611dc8565b92505050610537565b509050610537565b6001600160a01b0381166000908152600860205260409020610710906117f6836106e8565b6119bb565b816001600160a01b0316836001600160a01b03161415801561181d5750600081115b156103d5576001600160a01b038316156118bf5761183a83611a22565b6001600160a01b03831660009081526004602052604090205461185d8282611dc8565b6001600160a01b038516600081815260046020526040908190208390555190917fdec2bacdd2f05b59de34da9b523dff8be42e5e38e818c82fdb0bae774387a724916118b191858252602082015260400190565b60405180910390a2506118df565b6118c7611a55565b80600660008282546118d99190611d56565b90915550505b6001600160a01b0382161561197c576118f782611a22565b6001600160a01b03821660009081526004602052604090205461191a8282611d56565b6001600160a01b038416600081815260046020526040908190208390555190917fdec2bacdd2f05b59de34da9b523dff8be42e5e38e818c82fdb0bae774387a7249161196e91858252602082015260400190565b60405180910390a250505050565b611984611a55565b80600660008282546119969190611dc8565b9091555050505050565b60006119af6002848418611ddb565b610de890848416611d56565b60006119c660075490565b9050806119d284611a65565b10156103d55782546001818101855560008581526020808220909301849055818601805492830181558152919091200180546001600160a01b0384166001600160a01b0319909116179055505050565b6001600160a01b03811660009081526009602090815260408083206004909252909120546107109190611aaa565b611aaa565b611a63600a611a5060065490565b565b80546000908103611a7857506000919050565b81548290611a8890600190611dc8565b81548110611a9857611a98611d0b565b90600052602060002001549050919050565b6000611ab560075490565b905080611ac184611a65565b10156103d5578254600180820185556000858152602080822090930193909355938401805494850181558252902090910155565b6001600160a01b038116811461071057600080fd5b600060208284031215611b1c57600080fd5b8135610de881611af5565b60008060408385031215611b3a57600080fd5b8235611b4581611af5565b946020939093013593505050565b60008060408385031215611b6657600080fd5b8235611b7181611af5565b91506020830135611b8181611af5565b809150509250929050565b600060208284031215611b9e57600080fd5b5035919050565b600080600060608486031215611bba57600080fd5b8335611bc581611af5565b92506020840135611bd581611af5565b929592945050506040919091013590565b600060208284031215611bf857600080fd5b81518015158114610de857600080fd5b60005b83811015611c23578181015183820152602001611c0b565b50506000910152565b7f416363657373436f6e74726f6c3a206163636f756e7420000000000000000000815260008351611c64816017850160208801611c08565b7001034b99036b4b9b9b4b733903937b6329607d1b6017918401918201528351611c95816028840160208801611c08565b01602801949350505050565b6020815260008251806020840152611cc0816040850160208701611c08565b601f01601f19169190910160400192915050565b60208082526017908201527f566f74696e673a20307830206e6f7420616c6c6f776564000000000000000000604082015260600190565b634e487b7160e01b600052603260045260246000fd5b634e487b7160e01b600052601160045260246000fd5b6000816000190483118215151615611d5157611d51611d21565b500290565b8082018082111561053757610537611d21565b634e487b7160e01b600052604160045260246000fd5b600081611d8e57611d8e611d21565b506000190190565b600060208284031215611da857600080fd5b5051919050565b600060018201611dc157611dc1611d21565b5060010190565b8181038181111561053757610537611d21565b600082611df857634e487b7160e01b600052601260045260246000fd5b50049056fea26469706673582212209687689fcf396e862176693820f7e1de9b3bf7d19f70658bcbf2e906d6e725c464736f6c63430008100033",
  "linkReferences": {},
  "deployedLinkReferences": {}
}