{
  "_format": "hh-sol-artifact-1",
  "contractName": "Voting",
  "sourceName": "contracts/Voting/Voting.sol",
  "abi": [
    {
      "inputs": [],
      "stateMutability": "nonpayable",
      "type": "constructor"
    },
    {
      "anonymous": false,
      "inputs": [
        {
          "indexed": true,
          "internalType": "address",
          "name": "delegator",
          "type": "address"
        },
        {
          "indexed": false,
          "internalType": "address",
          "name": "currentDelegate",
          "type": "address"
        },
        {
          "indexed": false,
          "internalType": "address",
          "name": "newDelegate",
          "type": "address"
        }
      ],
      "name": "DelegateChanged",
      "type": "event"
    },
    {
      "anonymous": false,
      "inputs": [
        {
          "indexed": true,
          "internalType": "address",
          "name": "account",
          "type": "address"
        },
        {
          "indexed": false,
          "internalType": "uint256",
          "name": "oldVotingPower",
          "type": "uint256"
        },
        {
          "indexed": false,
          "internalType": "uint256",
          "name": "newVotingPower",
          "type": "uint256"
        }
      ],
      "name": "DelegateVotesChanged",
      "type": "event"
    },
    {
      "anonymous": false,
      "inputs": [
        {
          "indexed": false,
          "internalType": "uint8",
          "name": "version",
          "type": "uint8"
        }
      ],
      "name": "Initialized",
      "type": "event"
    },
    {
      "anonymous": false,
      "inputs": [
        {
          "indexed": false,
          "internalType": "uint256",
          "name": "id",
          "type": "uint256"
        }
      ],
      "name": "Snapshot",
      "type": "event"
    },
    {
      "inputs": [
        {
          "internalType": "address",
          "name": "account",
          "type": "address"
        }
      ],
      "name": "afterAddContributor",
      "outputs": [],
      "stateMutability": "nonpayable",
      "type": "function"
    },
    {
      "inputs": [
        {
          "internalType": "address",
          "name": "from",
          "type": "address"
        },
        {
          "internalType": "address",
          "name": "to",
          "type": "address"
        },
        {
          "internalType": "uint256",
          "name": "amount",
          "type": "uint256"
        }
      ],
      "name": "afterTokenTransfer",
      "outputs": [],
      "stateMutability": "nonpayable",
      "type": "function"
    },
    {
      "inputs": [
        {
          "internalType": "address",
          "name": "account",
          "type": "address"
        }
      ],
      "name": "beforeRemoveContributor",
      "outputs": [],
      "stateMutability": "nonpayable",
      "type": "function"
    },
    {
      "inputs": [
        {
          "internalType": "address",
          "name": "account",
          "type": "address"
        }
      ],
      "name": "canVote",
      "outputs": [
        {
          "internalType": "bool",
          "name": "",
          "type": "bool"
        }
      ],
      "stateMutability": "view",
      "type": "function"
    },
    {
      "inputs": [
        {
          "internalType": "address",
          "name": "account",
          "type": "address"
        },
        {
          "internalType": "uint256",
          "name": "snapshotId",
          "type": "uint256"
        }
      ],
      "name": "canVoteAt",
      "outputs": [
        {
          "internalType": "bool",
          "name": "",
          "type": "bool"
        }
      ],
      "stateMutability": "view",
      "type": "function"
    },
    {
      "inputs": [
        {
          "internalType": "address",
          "name": "newDelegate",
          "type": "address"
        }
      ],
      "name": "delegate",
      "outputs": [],
      "stateMutability": "nonpayable",
      "type": "function"
    },
    {
      "inputs": [
        {
          "internalType": "address",
          "name": "delegator",
          "type": "address"
        },
        {
          "internalType": "address",
          "name": "newDelegate",
          "type": "address"
        }
      ],
      "name": "delegateFrom",
      "outputs": [],
      "stateMutability": "nonpayable",
      "type": "function"
    },
    {
      "inputs": [],
      "name": "getCurrentSnapshotId",
      "outputs": [
        {
          "internalType": "uint256",
          "name": "",
          "type": "uint256"
        }
      ],
      "stateMutability": "view",
      "type": "function"
    },
    {
      "inputs": [
        {
          "internalType": "address",
          "name": "account",
          "type": "address"
        }
      ],
      "name": "getDelegate",
      "outputs": [
        {
          "internalType": "address",
          "name": "",
          "type": "address"
        }
      ],
      "stateMutability": "view",
      "type": "function"
    },
    {
      "inputs": [
        {
          "internalType": "address",
          "name": "account",
          "type": "address"
        },
        {
          "internalType": "uint256",
          "name": "snapshotId",
          "type": "uint256"
        }
      ],
      "name": "getDelegateAt",
      "outputs": [
        {
          "internalType": "address",
          "name": "",
          "type": "address"
        }
      ],
      "stateMutability": "view",
      "type": "function"
    },
    {
      "inputs": [],
      "name": "getRoles",
      "outputs": [
        {
          "internalType": "contract DAORoles",
          "name": "",
          "type": "address"
        }
      ],
      "stateMutability": "view",
      "type": "function"
    },
    {
      "inputs": [],
      "name": "getTotalVotingPower",
      "outputs": [
        {
          "internalType": "uint256",
          "name": "",
          "type": "uint256"
        }
      ],
      "stateMutability": "view",
      "type": "function"
    },
    {
      "inputs": [
        {
          "internalType": "uint256",
          "name": "snapshotId",
          "type": "uint256"
        }
      ],
      "name": "getTotalVotingPowerAt",
      "outputs": [
        {
          "internalType": "uint256",
          "name": "",
          "type": "uint256"
        }
      ],
      "stateMutability": "view",
      "type": "function"
    },
    {
      "inputs": [
        {
          "internalType": "address",
          "name": "account",
          "type": "address"
        }
      ],
      "name": "getVotingPower",
      "outputs": [
        {
          "internalType": "uint256",
          "name": "",
          "type": "uint256"
        }
      ],
      "stateMutability": "view",
      "type": "function"
    },
    {
      "inputs": [
        {
          "internalType": "address",
          "name": "account",
          "type": "address"
        },
        {
          "internalType": "uint256",
          "name": "snapshotId",
          "type": "uint256"
        }
      ],
      "name": "getVotingPowerAt",
      "outputs": [
        {
          "internalType": "uint256",
          "name": "",
          "type": "uint256"
        }
      ],
      "stateMutability": "view",
      "type": "function"
    },
    {
      "inputs": [
        {
          "internalType": "contract DAORoles",
          "name": "roles",
          "type": "address"
        }
      ],
      "name": "initialize",
      "outputs": [],
      "stateMutability": "nonpayable",
      "type": "function"
    },
    {
      "inputs": [
        {
          "internalType": "contract DAORoles",
          "name": "roles",
          "type": "address"
        }
      ],
      "name": "setRoles",
      "outputs": [],
      "stateMutability": "nonpayable",
      "type": "function"
    },
    {
      "inputs": [
        {
          "internalType": "contract IShareholderRegistry",
          "name": "shareholderRegistry",
          "type": "address"
        }
      ],
      "name": "setShareholderRegistry",
      "outputs": [],
      "stateMutability": "nonpayable",
      "type": "function"
    },
    {
      "inputs": [
        {
          "internalType": "contract IERC20Upgradeable",
          "name": "token",
          "type": "address"
        }
      ],
      "name": "setToken",
      "outputs": [],
      "stateMutability": "nonpayable",
      "type": "function"
    },
    {
      "inputs": [],
      "name": "snapshot",
      "outputs": [
        {
          "internalType": "uint256",
          "name": "",
          "type": "uint256"
        }
      ],
      "stateMutability": "nonpayable",
      "type": "function"
    }
  ],
  "bytecode": "0x608060405234801561001057600080fd5b50600c54610100900460ff16158080156100315750600c54600160ff909116105b8061004b5750303b15801561004b5750600c5460ff166001145b6100b25760405162461bcd60e51b815260206004820152602e60248201527f496e697469616c697a61626c653a20636f6e747261637420697320616c72656160448201526d191e481a5b9a5d1a585b1a5e995960921b606482015260840160405180910390fd5b600c805460ff1916600117905580156100d557600c805461ff0019166101001790555b801561011b57600c805461ff0019169055604051600181527f7f26b83ff96e1f2b6a682f133852f6798a09c465da95921460cefb38474024989060200160405180910390a15b50611d75806200012c6000396000f3fe608060405234801561001057600080fd5b506004361061012c5760003560e01c806371061398116100ad578063bb4d443611610071578063bb4d443614610264578063c4d66de81461028d578063d86f5a07146102a0578063df6258be146102b3578063eaeded5f146102c657600080fd5b806371061398146102025780639711715a14610213578063a260b1021461021b578063adfaa72e1461022e578063b652d57b1461025157600080fd5b80633fadf73b116100f45780633fadf73b146101ae5780634693feab146101c15780635439ad86146101d4578063544d8564146101dc5780635c19a95c146101ef57600080fd5b806309031db61461013157806311acc1a714610146578063144fa6d71461015d5780631f992ff2146101705780632949582d1461019b575b600080fd5b61014461013f366004611a8b565b6102d9565b005b6006545b6040519081526020015b60405180910390f35b61014461016b366004611a8b565b6103da565b61018361017e366004611aa8565b6104a2565b6040516001600160a01b039091168152602001610154565b6101446101a9366004611ad4565b610514565b61014a6101bc366004611b0d565b6105cc565b6101446101cf366004611a8b565b610614565b60075461014a565b6101836101ea366004611a8b565b6106c5565b6101446101fd366004611a8b565b6106e3565b603f546001600160a01b0316610183565b61014a6106f0565b610144610229366004611a8b565b6107a8565b61024161023c366004611a8b565b610859565b6040519015158152602001610154565b61024161025f366004611aa8565b610876565b61014a610272366004611a8b565b6001600160a01b031660009081526004602052604090205490565b61014461029b366004611a8b565b6108ed565b6101446102ae366004611a8b565b610a00565b6101446102c1366004611b26565b610ab1565b61014a6102d4366004611aa8565b610b45565b7f97667070c54ef182b0f5858b034beac1b6f3089aa2d3188bb1e8929f4fa9b929600033603f54604051632474521560e21b8152600481018590526001600160a01b0380841660248301529293509116906391d1485490604401602060405180830381865afa158015610350573d6000803e3d6000fd5b505050506040513d601f19601f820116820180604052508101906103749190611b67565b6103cc5761038181610bbb565b61038c836020610bcd565b60405160200161039d929190611bad565b60408051601f198184030181529082905262461bcd60e51b82526103c391600401611c22565b60405180910390fd5b6103d583610d70565b505050565b7f97667070c54ef182b0f5858b034beac1b6f3089aa2d3188bb1e8929f4fa9b929600033603f54604051632474521560e21b8152600481018590526001600160a01b0380841660248301529293509116906391d1485490604401602060405180830381865afa158015610451573d6000803e3d6000fd5b505050506040513d601f19601f820116820180604052508101906104759190611b67565b6104825761038181610bbb565b600180546001600160a01b0319166001600160a01b038516179055505050565b6001600160a01b038216600090815260086020526040812081806104c68584610d92565b91509150816104dd576104d8866106c5565b610508565b8260010181815481106104f2576104f2611c55565b6000918252602090912001546001600160a01b03165b93505050505b92915050565b7f7b97752341782019d21e7c1027eedcd270e56f5b672dcc28d53bf58a346002fc600033603f54604051632474521560e21b8152600481018590526001600160a01b0380841660248301529293509116906391d1485490604401602060405180830381865afa15801561058b573d6000803e3d6000fd5b505050506040513d601f19601f820116820180604052508101906105af9190611b67565b6105bc5761038181610bbb565b6105c68484610e60565b50505050565b600080806105db84600a610d92565b91509150816105ec5760065461060c565b600b80548290811061060057610600611c55565b90600052602060002001545b949350505050565b7fec46be11ac15979aa8ace9d17da41014d9503d92e5a7a20f5753f3af0d7a4230600033603f54604051632474521560e21b8152600481018590526001600160a01b0380841660248301529293509116906391d1485490604401602060405180830381865afa15801561068b573d6000803e3d6000fd5b505050506040513d601f19601f820116820180604052508101906106af9190611b67565b6106bc5761038181610bbb565b6103d583611464565b6001600160a01b039081166000908152600360205260409020541690565b6106ed3382610e60565b50565b60007f7b97752341782019d21e7c1027eedcd270e56f5b672dcc28d53bf58a346002fc8133603f54604051632474521560e21b8152600481018590526001600160a01b0380841660248301529293509116906391d1485490604401602060405180830381865afa158015610768573d6000803e3d6000fd5b505050506040513d601f19601f8201168201806040525081019061078c9190611b67565b6107995761038181610bbb565b6107a161146e565b9250505090565b7f97667070c54ef182b0f5858b034beac1b6f3089aa2d3188bb1e8929f4fa9b929600033603f54604051632474521560e21b8152600481018590526001600160a01b0380841660248301529293509116906391d1485490604401602060405180830381865afa15801561081f573d6000803e3d6000fd5b505050506040513d601f19601f820116820180604052508101906108439190611b67565b6108505761038181610bbb565b6103d5836114b1565b600080610865836106c5565b6001600160a01b0316141592915050565b6001600160a01b0382166000908152600860205260408120818061089a8584610d92565b91509150816108ac576104d886610859565b60006001600160a01b03168360010182815481106108cc576108cc611c55565b6000918252602090912001546001600160a01b031614159695505050505050565b600c54610100900460ff161580801561090d5750600c54600160ff909116105b806109275750303b1580156109275750600c5460ff166001145b61098a5760405162461bcd60e51b815260206004820152602e60248201527f496e697469616c697a61626c653a20636f6e747261637420697320616c72656160448201526d191e481a5b9a5d1a585b1a5e995960921b60648201526084016103c3565b600c805460ff1916600117905580156109ad57600c805461ff0019166101001790555b6109b682610d70565b80156109fc57600c805461ff0019169055604051600181527f7f26b83ff96e1f2b6a682f133852f6798a09c465da95921460cefb38474024989060200160405180910390a15b5050565b7fec46be11ac15979aa8ace9d17da41014d9503d92e5a7a20f5753f3af0d7a4230600033603f54604051632474521560e21b8152600481018590526001600160a01b0380841660248301529293509116906391d1485490604401602060405180830381865afa158015610a77573d6000803e3d6000fd5b505050506040513d601f19601f82011682018060405250810190610a9b9190611b67565b610aa85761038181610bbb565b6103d583611534565b6001546001600160a01b0316331480610ad457506000546001600160a01b031633145b610b3a5760405162461bcd60e51b815260206004820152603160248201527f566f74696e673a206f6e6c7920546f6b656e20636f6e74726163742063616e2060448201527031b0b636103a3434b99036b2ba3437b21760791b60648201526084016103c3565b6103d583838361168a565b6001600160a01b03821660009081526009602052604081208180610b698584610d92565b9150915081610b90576001600160a01b038616600090815260046020526040902054610508565b826001018181548110610ba557610ba5611c55565b9060005260206000200154935050505092915050565b606061050e6001600160a01b03831660145b60606000610bdc836002611c81565b610be7906002611c98565b67ffffffffffffffff811115610bff57610bff611cab565b6040519080825280601f01601f191660200182016040528015610c29576020820181803683370190505b509050600360fc1b81600081518110610c4457610c44611c55565b60200101906001600160f81b031916908160001a905350600f60fb1b81600181518110610c7357610c73611c55565b60200101906001600160f81b031916908160001a9053506000610c97846002611c81565b610ca2906001611c98565b90505b6001811115610d1a576f181899199a1a9b1b9c1cb0b131b232b360811b85600f1660108110610cd657610cd6611c55565b1a60f81b828281518110610cec57610cec611c55565b60200101906001600160f81b031916908160001a90535060049490941c93610d1381611cc1565b9050610ca5565b508315610d695760405162461bcd60e51b815260206004820181905260248201527f537472696e67733a20686578206c656e67746820696e73756666696369656e7460448201526064016103c3565b9392505050565b603f80546001600160a01b0319166001600160a01b0392909216919091179055565b60008060008411610dde5760405162461bcd60e51b81526020600482015260166024820152750536e617073686f747461626c653a20696420697320360541b60448201526064016103c3565b600754841115610e305760405162461bcd60e51b815260206004820152601d60248201527f536e617073686f747461626c653a206e6f6e6578697374656e7420696400000060448201526064016103c3565b6000610e3c84866116a5565b84549091508103610e5257600092509050610e59565b6001925090505b9250929050565b6000610e6b836106c5565b90506000610e78836106c5565b6001600160a01b038581166000818152600560205260408082205491546002549151630ea018f760e01b81526004810192909252602482019390935293945092911690630ea018f790604401602060405180830381865afa158015610ee1573d6000803e3d6000fd5b505050506040513d601f19601f82011682018060405250810190610f059190611b67565b610f615760405162461bcd60e51b815260206004820152602760248201527f566f74696e673a206f6e6c7920636f6e7472696275746f72732063616e2064656044820152663632b3b0ba329760c91b60648201526084016103c3565b600054600254604051630ea018f760e01b815260048101919091526001600160a01b03868116602483015290911690630ea018f790604401602060405180830381865afa158015610fb6573d6000803e3d6000fd5b505050506040513d601f19601f82011682018060405250810190610fda9190611b67565b61103a5760405162461bcd60e51b815260206004820152602b60248201527f566f74696e673a206f6e6c7920636f6e7472696275746f72732063616e20626560448201526a103232b632b3b0ba32b21760a91b60648201526084016103c3565b816001600160a01b0316846001600160a01b0316148061106b5750836001600160a01b0316856001600160a01b0316145b6110ca5760405162461bcd60e51b815260206004820152602a60248201527f566f74696e673a206e65772064656c6567617465206973206e6f742073656c666044820152690819195b1959d85d195960b21b60648201526084016103c3565b8015806110e85750836001600160a01b0316856001600160a01b0316145b6111435760405162461bcd60e51b815260206004820152602660248201527f566f74696e673a2064656c656761746f7220697320616c72656164792064656c6044820152651959d85d195960d21b60648201526084016103c3565b6001600160a01b03831615801561116b5750836001600160a01b0316856001600160a01b0316145b8061117e57506001600160a01b03831615155b6111d85760405162461bcd60e51b815260206004820152602560248201527f566f74696e673a2066697273742064656c65676174652073686f756c642062656044820152641039b2b63360d91b60648201526084016103c3565b826001600160a01b0316846001600160a01b03160361124c5760405162461bcd60e51b815260206004820152602a60248201527f566f74696e673a206e65772064656c656761746520657175616c20746f206f6c604482015269642064656c656761746560b01b60648201526084016103c3565b61125585611752565b600080546040516370a0823160e01b81526001600160a01b038881166004830152909116906370a0823190602401602060405180830381865afa1580156112a0573d6000803e3d6000fd5b505050506040513d601f19601f820116820180604052508101906112c49190611cd8565b6001546040516370a0823160e01b81526001600160a01b038981166004830152909116906370a0823190602401602060405180830381865afa15801561130e573d6000803e3d6000fd5b505050506040513d601f19601f820116820180604052508101906113329190611cd8565b61133c9190611c98565b6001600160a01b03878116600081815260036020526040902080546001600160a01b03191692891692831790559192501480159061138257506001600160a01b03851615155b156113b1576001600160a01b03851660009081526005602052604081208054916113ab83611cf1565b91905055505b836001600160a01b0316866001600160a01b0316141580156113db57506001600160a01b03841615155b1561140a576001600160a01b038416600090815260056020526040812080549161140483611cc1565b91905055505b604080516001600160a01b03868116825287811660208301528816917f3134e8a2e6d97e929a7e54011ea5485d7d196dd5f0ba4d4ef95803e8e3fc257f910160405180910390a261145c84868361177c565b505050505050565b6106ed8182610e60565b4260078190556040519081526000907f8030e83b04d87bef53480e26263266d6ca66863aa8506aca6f2559d18aa1cb679060200160405180910390a15060075490565b600080546001600160a01b0319166001600160a01b03831690811790915560408051633bef226f60e21b8152905163efbc89bc916004808201926020929091908290030181865afa15801561150a573d6000803e3d6000fd5b505050506040513d601f19601f8201168201806040525081019061152e9190611cd8565b60025550565b600061153f826106c5565b9050816001600160a01b0316816001600160a01b0316036115685761156382611752565b611572565b6115728283610e60565b6001600160a01b0382811660008181526003602052604080822080546001600160a01b0319169055815490516370a0823160e01b81526004810193909352909216906370a0823190602401602060405180830381865afa1580156115da573d6000803e3d6000fd5b505050506040513d601f19601f820116820180604052508101906115fe9190611cd8565b6001546040516370a0823160e01b81526001600160a01b038681166004830152909116906370a0823190602401602060405180830381865afa158015611648573d6000803e3d6000fd5b505050506040513d601f19601f8201168201806040525081019061166c9190611cd8565b6116769190611c98565b905080156103d5576103d58360008361177c565b6103d5611696846106c5565b61169f846106c5565b8361177c565b815460009081036116b85750600061050e565b82546000905b808210156117055760006116d28383611921565b600087815260209020909150859082015411156116f1578091506116ff565b6116fc816001611c98565b92505b506116be565b60008211801561173157508361172e86611720600186611d0a565b600091825260209091200190565b54145b1561174a57611741600183611d0a565b9250505061050e565b50905061050e565b6001600160a01b03811660009081526008602052604090206106ed90611777836106c5565b61193c565b816001600160a01b0316836001600160a01b03161415801561179e5750600081115b156103d5576001600160a01b03831615611840576117bb836119a3565b6001600160a01b0383166000908152600460205260409020546117de8282611d0a565b6001600160a01b038516600081815260046020526040908190208390555190917fdec2bacdd2f05b59de34da9b523dff8be42e5e38e818c82fdb0bae774387a7249161183291858252602082015260400190565b60405180910390a250611860565b6118486119d6565b806006600082825461185a9190611c98565b90915550505b6001600160a01b038216156118fd57611878826119a3565b6001600160a01b03821660009081526004602052604090205461189b8282611c98565b6001600160a01b038416600081815260046020526040908190208390555190917fdec2bacdd2f05b59de34da9b523dff8be42e5e38e818c82fdb0bae774387a724916118ef91858252602082015260400190565b60405180910390a250505050565b6119056119d6565b80600660008282546119179190611d0a565b9091555050505050565b60006119306002848418611d1d565b610d6990848416611c98565b600061194760075490565b905080611953846119e6565b10156103d55782546001818101855560008581526020808220909301849055818601805492830181558152919091200180546001600160a01b0384166001600160a01b0319909116179055505050565b6001600160a01b03811660009081526009602090815260408083206004909252909120546106ed9190611a2b565b611a2b565b6119e4600a6119d160065490565b565b805460009081036119f957506000919050565b81548290611a0990600190611d0a565b81548110611a1957611a19611c55565b90600052602060002001549050919050565b6000611a3660075490565b905080611a42846119e6565b10156103d5578254600180820185556000858152602080822090930193909355938401805494850181558252902090910155565b6001600160a01b03811681146106ed57600080fd5b600060208284031215611a9d57600080fd5b8135610d6981611a76565b60008060408385031215611abb57600080fd5b8235611ac681611a76565b946020939093013593505050565b60008060408385031215611ae757600080fd5b8235611af281611a76565b91506020830135611b0281611a76565b809150509250929050565b600060208284031215611b1f57600080fd5b5035919050565b600080600060608486031215611b3b57600080fd5b8335611b4681611a76565b92506020840135611b5681611a76565b929592945050506040919091013590565b600060208284031215611b7957600080fd5b81518015158114610d6957600080fd5b60005b83811015611ba4578181015183820152602001611b8c565b50506000910152565b7f416363657373436f6e74726f6c3a206163636f756e7420000000000000000000815260008351611be5816017850160208801611b89565b7001034b99036b4b9b9b4b733903937b6329607d1b6017918401918201528351611c16816028840160208801611b89565b01602801949350505050565b6020815260008251806020840152611c41816040850160208701611b89565b601f01601f19169190910160400192915050565b634e487b7160e01b600052603260045260246000fd5b634e487b7160e01b600052601160045260246000fd5b808202811582820484141761050e5761050e611c6b565b8082018082111561050e5761050e611c6b565b634e487b7160e01b600052604160045260246000fd5b600081611cd057611cd0611c6b565b506000190190565b600060208284031215611cea57600080fd5b5051919050565b600060018201611d0357611d03611c6b565b5060010190565b8181038181111561050e5761050e611c6b565b600082611d3a57634e487b7160e01b600052601260045260246000fd5b50049056fea26469706673582212202cce9305142df1cfb8a051d30d4d5cae6ad8b946430e593d1748623ebbf41d8264736f6c63430008130033",
  "linkReferences": {},
  "deployedLinkReferences": {}
}